:020000040800F2
:10000000381C0020050100089B460008F92C000858
:10001000994600083B0B0008D54B00080000000083
:100020000000000000000000000000009F460008E3
:100030002B0E0008000000009D460008A1460008A5
:100040001F0100081F0100081F0100081F01000810
:100050001F0100081F0100081F0100081F01000800
:100060001F0100081F0100081F0100081F010008F0
:100070001F0100081F010008DD0D0008E90D000840
:10008000F50D00081F0100081F0100081F010008EE
:100090001F0100081F0100081F0100081F010008C0
:1000A0001F010008054700081F0100081F01000884
:1000B000114700081F0100081F010008092D000852
:1000C000FD2C00081F0100081F0100081F01000887
:1000D0001F010008BD4B0008C94B00081F010008A4
:1000E0001F0100081F0100081F010008DFF810D0E1
:1000F00000F0F6FC0048004771600008AFF3008094
:10010000381C00200648804706480047FEE7FEE707
:10011000FEE7FEE7FEE7FEE7FEE7FEE7FEE7FEE7B7
:1001200003470008ED000008202A04DB203A21FAEA
:1001300002F00021704721FA02F3D040C2F1200200
:10014000914008431946704710B5431A934209D2AB
:100150008318881803E010F8011D03F8011D521ED2
:10016000F9D210BD40EA01039B0703D009E008C99A
:10017000121F08C0042AFAD203E011F8013B00F86C
:10018000013B521EF9D210BDD2B201E000F8012BA2
:10019000491EFBD270470022F6E710B513460A4607
:1001A00004461946FFF7F0FF204610BDF0B480EA80
:1001B0000102D40F4200B2EB410F02D202460846C0
:1001C00011464A0042D0C30DDDB2C1F3C752AD1A89
:1001D000202D35DAC1F3160141F4000204B1524278
:1001E000C5F1200602FA06F12A411044B3EBD05FB4
:1001F00023D0C4B1012DA0EBC35009DCF0BC4FF0FB
:10020000004202EAC352DBB200F5000000F073BB0B
:10021000400000F1807000EBC350A0F1807040EA14
:10022000D170490009E0490841EAC071A0EBC35010
:1002300000F50000400800EBC350F0BC00F052BBDA
:100240006142012202EB4101001BF6E7F0BC70475E
:1002500081F00041AAE780F00040A7E780EA0102B0
:1002600010B502F00043400022D04A001FD0010E1A
:1002700001EB1261C0F35600C2F3560240F40000D5
:1002800042F40002A0FB022000047F39140400D0D5
:10029000401C50EA124001D44000491EC2B20C0674
:1002A00004EBD010401C4008802A02D003E000205C
:1002B00010BD20F00100002900DA0020184310BD15
:1002C00030B480EA010202F0004530F0004221F033
:1002D000004013D090B1C30DD40DC2F31601C0F38A
:1002E0001600E41A41F4000140F400027D3491420A
:1002F00001D3641C00E04900002C02DA30BC00206D
:1003000070474FF400000023914201D3891A034340
:1003100040084FEA4101F7D151B1914202D14FF06B
:10032000004105E002D24FF0010101E06FF0010150
:1003300003EBC450284430BC00F0D4BA2DE9FE4F82
:10034000804681EA0300C00F0C46009021F0004176
:1003500023F00045B8EB0200A94105D240462146F2
:1003600090461C460B46024623F00040104347D0FF
:10037000270DC7F30A00C3F30A510290401A0190F7
:1003800040286BDAC3F3130040F4801B00989246B8
:1003900020B10023D2EB030A63EB0B0B0198594603
:1003A000C0F14002504600F07CFA06460D46504629
:1003B0005946019A00F084FA10EB080061410024CC
:1003C00087EA115284EAE7731A4340D0009A62B375
:1003D000019A012A4FEA075215DC001B61EB02016A
:1003E0004FF0004202EA0752CDE90042001C41F5FD
:1003F000801132462B4600F0BBFA03B0BDE8F08F07
:1004000040462146F9E7001B61EB0201001C41F563
:10041000801300185B412018A2F5001747EB030179
:1004200040EAD570B6196D4111E06D084FEA360605
:1004300045EAC0754FEA0752001B61EB0201001C40
:1004400041F5801149084FEA300000195141324608
:100450002B4603B0BDE8F04F00F07BBA00980122B4
:1004600040000023D0EB020263EBE07300982146CA
:100470004FEAE074B8EB000061EB0401E9E783F0B8
:1004800000435BE781F0004158E72DE9FE4F81EA28
:10049000030404F0004421F0004100944FF0000BED
:1004A00023F0004350EA01045ED052EA03045BD01B
:1004B000C3F30A54C1F30A552C44A4F2F334019453
:1004C000A0FB0254C1F3130141F48011C3F31303E1
:1004D00043F4801301FB024400FB034E840A970A95
:1004E00044EA815447EA8357A4FB076802958D0AC2
:1004F00005FB07854FEA932C04FB0C542705029D4E
:100500004FEA065847EA1637B5EB08056EEB070CBD
:10051000870E920E47EA811742EA8312A7FB020177
:10052000B6EB0B0164EB00042B0D43EA0C335E18B1
:1005300044EB1C50DA465146E7FB0201C5F31304B5
:100540004FEA0B3343EA14534FEA0432019C43EA67
:100550000603A4F10C040294009CCDE900B400F061
:1005600007FA03B0BDE8F08F00200146F9E72DE956
:10057000F04D81EA030404F0004B21F000451446DD
:100580004FF0000A23F0004150EA050220D054EA5F
:1005900001021DD0C5F30A570246C5F31303C1F388
:1005A0001300C1F30A5640F4801543F48013A7EBFF
:1005B0000608101BD64608F2FD3873EB050002D37F
:1005C00008F1010801E092185B41B8F1000F03DA6D
:1005D00000200146BDE8F08D00204FF48011064652
:1005E00084460EE0171B73EB050705D3121B63EB64
:1005F000050306434CEA010C49084FEA3000921803
:100600005B4150EA0107EDD152EA030012D082EAC1
:10061000040083EA0501084305D0101BAB4106D254
:100620000122002306E000224FF0004302E06FF0B9
:10063000010253101AEB06004CEB085110EB0A00B4
:1006400041EB0B01BDE8F04D00F083B970B521F02E
:10065000004303430CD0C1F30A550024D5EB040535
:1006600064EB0403D617AD1AB34102DB0020014648
:1006700070BD201841EB025170BDC10F80EAE070DF
:100680000844CA079623002100F035B996230022BA
:10069000114600F030B90EB5C10F80EAE070084491
:1006A000CA07002140F233438DE80E000A460B468C
:1006B00000F05EF903B000BD0EB540F23341029187
:1006C0000021CDE900110A460B4600F051F903B0B4
:1006D00000BD3EB5CA17CB0F002450405140C01892
:1006E0006141DA0740F233430094CDE90123224609
:1006F000234600F03DF903B030BD00F0004220F089
:100700000040C10DC0F3160040F400007F2901DA5B
:1007100000207047962903DCC1F19601C84001E032
:1007200096398840002AF4D04042704700F00042D9
:1007300030F000400AD0C10D01F56071C0F3160021
:1007400042EA0151C20840071143704700200146A8
:100750007047000030B5041E71F1000404DB4FF057
:100760000044404264EB0101141E73F1000405DBF8
:100770001C464FF00043524263EB04038B4208BF18
:10078000824230BD30B5041E71F1000404DB4FF02D
:100790000044404264EB0101141E73F1000405DBC8
:1007A0001C464FF00043524263EB0403994208BFDA
:1007B000904230BD01F0004330B421F0004150EAD6
:1007C000010206D00A0DA2F56072C1F31301002ADE
:1007D00002DC30BC00207047440F44EAC104C10071
:1007E000E01830BC00EBC25000F07CB8002801DB00
:1007F000C0F10040002901DBC1F100418142704796
:10080000002801DBC0F10040002901DBC1F10041FB
:100810008842704730B50B46014600202022012453
:1008200009E021FA02F59D4205D303FA02F5491BBE
:1008300004FA02F52844151EA2F10102F1DC30BDD4
:100840002DE9F05F0546002092469B468846064605
:10085000814640241BE02846414647462246FFF792
:1008600063FC53465A46C01A914110D311461846AC
:10087000224600F016F82D1A67EB01084F46224673
:100880000120002100F00DF817EB00094E41201E59
:10089000A4F10104DFDC484631462A464346BDE860
:1008A000F09F202A04DB203A00FA02F10020704772
:1008B0009140C2F1200320FA03F31943904070479E
:1008C000202A06DBCB17203A41FA02F043EAE07314
:1008D00006E041FA02F3D040C2F120029140084301
:1008E000194670470029A8BF7047401C490008BF3F
:1008F00020F00100704710B4B0FA80FC00FA0CF050
:1009000050EA010404BF10BC704749B1CCF1200487
:1009100021FA04F411FA0CF118BF01212143084314
:10092000A3EB0C01CB1D4FEA00614FEA102042BF40
:10093000002010BC704700EBC35010440029A4BF36
:1009400010BC7047401C490008BF20F0010010BCDB
:10095000704710B5141E73F1000408DA401C41F111
:10096000000192185B411A4301D120F0010010BD33
:100970002DE9F04D92469B4611B1B1FA81F202E0A9
:10098000B0FA80F220329046FFF78BFF04460F4604
:1009900040EA0A0041EA0B0153465A46084313D085
:1009A000114653EA010019D0C8F140025046FFF742
:1009B000BBFB05460E46504659464246FFF771FFBF
:1009C000084305D0012004E020463946BDE8F08DFB
:1009D0000020054346EAE0762C4337430A98630536
:1009E000E40AA0EB08000022FD0A44EA47540A305A
:1009F00002D500200146E9E7010510196941DDE94A
:100A0000084500196941BDE8F04DA2E72DE9F04D18
:100A100000231A461B1A8A4103DB00200146BDE869
:100A2000F08DC1F30A52C1F3130141F480154FF068
:100A3000000BD10702D100186D41521E0027044659
:100A400040F2FF11384601EB620A3E4680460246FC
:100A500000204FF48011FFF767FBC2197141BB18EA
:100A600046EB0100B4EB030C75EB000C04D3E41A65
:100A700065EB000517460E46241908F101006D418B
:100A800080463428E3DDF91946EB0600091BA8412E
:100A900003D24FF0FF32134601E0002213461BEB56
:100AA000070046EB0A51BDE8F04DFFF752BFC1F316
:100AB0000A52C1F3130140F2FF3341F480119A420C
:100AC00002DA00200146704740F233439A42A2F214
:100AD000334202DC5242FFF727BBFFF7E2BE0000C1
:100AE000064C074D06E0E06840F0010394E807007B
:100AF00098471034AC42F6D3FFF7FCFAC06C0008FC
:100B0000E06C0008420005D0C0F3C7525242914247
:100B100001DC0020704700EBC15070470146012006
:100B200000F084B908B5002001230090FF224FF4A3
:100B3000FA71184600F090F908BDFEE770B514464A
:100B40000D460646FFF752FE01D2284670BD2146EB
:100B50003046FFF755FE01D2204670BD304670BDCD
:100B60002DE9F0410C461A4FDFF868801A49FFF76B
:100B70006FFB1A4A1A49FFF7E1FF0146194800F0D6
:100B800079F80646174821460C3000F073F820F03B
:100B900000410446B1F17A5F01DA4FF07E513046F0
:100BA00005F014F980F000400F49FFF757FB0546A8
:100BB00000F01EF842463946FFF7C0FF0B49CE60F1
:100BC0000C614D61886148620120C870BDE8F08108
:100BD00000007AC300007A4364CDC8BA9A99993E5E
:100BE0009A9999BEF8030020E12E6542100000207A
:100BF0002DE9F0411B498046884202D31A48BDE8DE
:100C0000F0811A4D012400BF55F834104046FFF71B
:100C1000EDFD22D805EBC404A4F1080520682E6878
:100C20003146FFF715FB074631464046FFF710FBFC
:100C30003946FFF745FB064660686D68401BFFF7C5
:100C40001CFD3146FFF70AFB04462846FFF715FD59
:100C50002146BDE8F041FFF7A9BA641C072CD3D3A5
:100C60000348CCE7CDCC90C000007AC37064000884
:100C700000007A4370B50446104E007A0A46B8B1B7
:100C8000256810462946FFF7E3FA3146FFF7E6FAF2
:100C90002946FFF78BFA206065682946FFF7D8FAE6
:100CA0003146FFF7DBFA2946FFF780FA606070BD36
:100CB0002260012062602072104670BDA482B43EA2
:100CC0002DE9F84F3A4C8246DFF8D890364FDFF8DE
:100CD000DC802168FFF7BCFA054620F00041204681
:100CE000344A00264068914210DC334A20F000412B
:100CF00091420BDCA168314A21F00041914205DCB0
:100D0000C4E900A65046A660BDE8F88F2C49FFF75D
:100D1000A5FA82462B492846FFF7A0FA5146FFF76D
:100D200097FA294A2949FFF709FF2949D4F808B059
:100D300005468A465846FFF739FA29460090FFF7DC
:100D400055FD01D200980BE051465846FFF780FA56
:100D500082462946FFF754FD01D2504600E028465E
:100D60004D464946A060FFF779FA6168FFF71EFA21
:100D7000184A19496060FFF7E1FE29466060FFF7F5
:100D80006DFA2168FFF712FAB84202D3C4E900767F
:100D900003E0404504DBC4E90086A6602068B3E7B1
:100DA0002060B1E70AD7233C00007AC300007A43F1
:100DB000100400203333B33E0000A0400000C842BE
:100DC000E0ED2F422BCEF1430060EA460060EAC618
:100DD00000401C4600401C4500401CC5014800F076
:100DE000C9B80000D4020020014800F0C3B80000D8
:100DF00018030020014800F0BDB800005C0300208B
:100E000030B590F840500124AC40C56B6C6004686C
:100E100063604368102B036803D099600068C26068
:100E200030BD9A600068C16030BD7047084A1070DC
:100E3000FC205070080E9070080CD070080A1071D9
:100E400051716B20907107220149024801F016BFD1
:100E5000CC1300204402002030B4094C029D2070C5
:100E6000F1206070080AA070E17022716371A571B1
:100E70006B20E071214630BC0822024801F0FEBE22
:100E8000BC1300204402002072B6FEE710B590F8B3
:100E900021100022022905D00421816380F820203E
:100EA000012010BD01680B6823F00E030B60016880
:100EB0000B6823F001030B6090F84030C46B0121F4
:100EC00001FA03F3636080F8211080F820201046B7
:100ED00010BD000010B590F821100024022903D0A5
:100EE0000421816301243DE001680A6822F00E02BA
:100EF0000A6001680A6822F001020A601A4A016861
:100F0000914201D1012121E0174A1432914201D1CD
:100F100010211BE0144A2832914201D1891515E0B5
:100F2000114A3C32914201D189140FE00E4A5032ED
:100F3000914202D14FF4803108E00B4A6432914271
:100F400002D14FF4801101E04FF08071064A083A57
:100F50005160012180F82110002180F82010416BA0
:100F600001B18847204610BD0800024090F82100DA
:100F7000704700002DE9F05FC16B0C6801680B68D9
:100F8000D0F840C0042202FA0CF2494DDFF824A147
:100F9000494E4A4FDFF828B1DFF828E122422CD031
:100FA0005A072AD50A68920603D40A6822F0040276
:100FB0000A600168A94201D1042219E0514501D11A
:100FC000402215E0B14202D14FF4806210E0B942F4
:100FD00002D14FF480420BE0594502D14FF48022F8
:100FE00006E0714502D14FF4800201E04FF08062CB
:100FF0002F4908394A60C16A3BE04FF0020808FAFD
:101000000CF818EA040F4FF000094FF0010235D038
:101010005FEA837832D50B689B0605D40B6823F012
:101020000A030B6080F821200168A94201D1022245
:1010300019E0514501D1202215E0B14202D14FF40F
:10104000007210E0B94202D14FF400520BE0594552
:1010500002D14FF4003206E0714502D14FF4001284
:1010600001E04FF00072124908394A6080F8209080
:10107000816A00291AD0BDE8F05F0847082505FA03
:101080000CF5254212D01B0710D50B6823F00E0378
:101090000B6090F84010C36B02FA01F15960826353
:1010A00080F8212080F82090016BE2E7BDE8F09FF6
:1010B000080002401C000240300002404400024090
:1010C000580002406C00024030B528B308C81349EC
:1010D00014221944B1FBF2F18900C1631049816304
:1010E000022141771A6843F6F0718A43D0E900146F
:1010F0002143D0E902452C4321430469214344693B
:101100002143846921431143196000214163012275
:1011100042770177084630BD012030BDF8FFFDBFA2
:101120000000024070B5044690F820000025012818
:101130000CD0012084F8200094F821600020012EBA
:1011400006D084F820000225284670BD022070BD1C
:10115000022684F82160A0632068066826F0010654
:1011600006602046FFF74CFEE06A00282068016810
:1011700002D041F00E0106E021F004010160206878
:10118000016841F00A0101602068016841F0010135
:101190000160D9E770B5044600F010F90546601CFF
:1011A00002D004480078044400F008F9401BA04233
:1011B000FAD370BD000000202DE9F84FDFF8B89198
:1011C0000024A9F1040B23460F2709F1040AABF10F
:1011D000040EC9E00125A5402A40AA427DD1674EF0
:1011E000D1F804C0ACEB0608B44532D014DCBCF135
:1011F000030F3AD009DCBCF1000F2AD0BCF1010F7B
:101200001CD0BCF1020F31D11DE0BCF1110F17D081
:10121000BCF1120F2AD119E0B8F5881F19D006DCED
:10122000B8F5803F15D0B8F5801F1FD111E0B8F593
:10123000001F0ED0B8F5041F18D10AE0CB6815E0E6
:10124000CB681B1D12E0CB6808330FE0CB680C3372
:101250000CE08B682BB1012B4FF0080303D04561E4
:1012600004E0042302E0056100E00023FF2A01D826
:10127000064601E000F104064FEA840501D9A5F114
:101280002005D6F8008007FA05FC28EA0C0803FAC6
:1012900005F548EA0508C6F800804D68ED0062D5FE
:1012A000374DAE6946F00106AE61AD6924F0030624
:1012B00005F001050095334D06EB050CDCF80850F0
:1012C000A607360F07FA06F825EA0805DFF8B88002
:1012D000404503D14FF0000817E044E0DFF8AC8050
:1012E000404502D14FF001080FE0DFF8A4804045EF
:1012F00002D14FF0020808E0DFF89880404502D1A3
:101300004FF0030801E04FF0040808FA06F848EA35
:101310000508CCF808804D68D9F80060ED024D460C
:1013200001D5164300E096432E604D68DAF8006060
:10133000AD02554601D5164300E096432E604D6838
:10134000DBF80060AD035D4601D5164300E096432F
:101350002E604D68DEF80060ED03754601D516433A
:1013600000E096432E60641C0D682A46E5407FF439
:1013700031AFBDE8F88F00000804014000001110F3
:10138000001002400000014000080140000C014034
:1013900000100140001401408068084000D0012086
:1013A0007047C26821EA02030A4043EA0241016130
:1013B00070470AB1016170470904FBE70148806882
:1013C0007047000000000020704770472DE9F04191
:1013D000016804464A694E6890F83E000025D743EC
:1013E000FA050BD4F243D20508D46FF480720125BC
:1013F0004A6121680A6842F400420A60B90508D4CB
:10140000F143C90505D422686FF4007145F0020567
:101410005161790525D4F143C90522D4638D94F82F
:101420003D10226B202808D13BB9212910D0292951
:101430000ED0282901D1212A0AD022686FF48061B8
:10144000516145F00405102806D0402804D008E07A
:10145000204602F049F904E02068016841F4007177
:101460000160380508D4F043C00505D421686FF445
:10147000006045F008054861002D07D0206C284326
:1014800020642046BDE8F04101F0AABCBDE8F0812F
:101490002DE9F047026800215368C66A90F83E4083
:1014A00090F83D50102C12D0402C10D0046C002C21
:1014B0007DD05469E443A6077AD4DE43B60577D4D9
:1014C000036C03B19169BDE8F04702F0E9B8976990
:1014D00051694FF42A0CC9435FEAC1784FF02A4999
:1014E00004D066452AD04E4528D010E0DE43B6052C
:1014F0000DD4C16A614501D1012103E0C16A4945AA
:1015000001D10821C162BDE8F04701F05DBF0E07BF
:1015100016D4DE43B60513D4416CC9B21161416BD8
:1015200009B1896A29B9816B002907D0896A002924
:1015300004D00068416841F400614160BDE8F08773
:101540008E0706D4DE43B60503D4BDE8F04701F0AC
:101550008FBEFE43526876074FEA02521DD4002A1E
:10156000ECDB0A0608D4DA43520505D4490705D551
:10157000BDE8F04701F020BE4907DFD4D943890513
:10158000DCD4212D05D0402CD8D1BDE8F04701F0A6
:1015900061BFBDE8F04701F0CDBD002ACEDB4A06B1
:1015A0000BD4DA43520508D4490708D501E00DE011
:1015B0000EE0BDE8F04701F043BD4907BED4D94372
:1015C0008905BBD4BDE8F04701F0CDBC916970E757
:1015D000E10606D4D943890503D4BDE8F04702F0FB
:1015E000CBB82821212D27D0292D25D0650655D40B
:1015F000DD436D0552D4640752D590F83D30448DDB
:10160000002C9BD01269446A2270426A521C4262CA
:10161000428D521E4285428D002A8FD12A2B8DD1B8
:101620000268536823F4806353602222026380F8C7
:101630003D1000F0B9FB81E7250623D4DD436D059D
:1016400020D4640720D590F83D30448D002CF2D092
:10165000446A24781461426A521C4262428D521ECE
:101660004285428D002AE6D1292BE4D102685368D5
:1016700023F4806353602122026380F83D1000F060
:1016800094FB5BE76107D6D4D9438905D3D4418D58
:101690000029D0D0416A097811610AE06107CAD4F3
:1016A000D9438905C7D4418D0029C4D01169426A44
:1016B0001170416A491C4162418D491E41853DE7D7
:1016C0000349884202D10349002008707047000096
:1016D0000C0100204000002070B5040025D094F8D3
:1016E0003D00002520B984F83C50204600F0F6FA71
:1016F000242084F83D002068016821F00101016088
:101700002068016841F4004101602068016821F40B
:101710000041016000F078FC4D4A6168914201D8B7
:101720004C4900E04C49884201D2012070BD4B4930
:101730002368B0FBF1F15E6826F03F060E435E6061
:101740006368934206D94FF4967359434FF47A7302
:10175000B1FBF3F12368491C1E6A26F03F063143B2
:1017600019626168914210D84900401EB0FBF1F245
:10177000521CC2F30B02042A01D2042022E0B0FB67
:10178000F1F0401CC0F30B001CE0A268F2B301EBC7
:10179000C10303EB0116431EB3FBF6F35B1C43F4DA
:1017A00080431B0549D092B301EBC10202EB01114A
:1017B000401EB0FBF1F0401CC0F30B0040F4804031
:1017C00040F400402168CA694CF6FF739A43104305
:1017D000C861D4E9071001432068026822F0C00202
:1017E00011430160D4E9030101432068826848F293
:1017F000FF339A4311438160D4E90501084321680E
:10180000CA6822F0FF021043C86001E00EE016E053
:101810002068016841F0010101602564202084F8FE
:101820003D00256384F83E50002070BD01EB410669
:10183000431EB3FBF6F35B1CB3E70120C2E701EBE9
:101840004101401EB0FBF1F0401CC0F30B00B7E7B4
:10185000A086010080841E0000093D0040420F0068
:1018600070477047704770470349884202D1034967
:1018700000200870704700000C010020400000208C
:101880002DE9FF4F83B00025DDE910799A46934694
:101890000446DDF848800095FFF790FD064694F871
:1018A0003D0020287CD1192301228849204600963A
:1018B00002F03CF80028F5D194F83C0001286FD0E4
:1018C000012084F83C0020680168C90703D1016841
:1018D00041F0010101602068016821F400610160AC
:1018E000222084F83D00402084F83E002564676291
:1018F000A4F82A90608D20857548E062CDE90086C5
:1019000053465A462046049901F0F8FD00287CD140
:10191000208DDFF8C091202768B1012814D002285B
:10192000206801681ED041F480610160206841692F
:1019300080690090BCE0206841698169009101687C
:1019400041F400710160B3E02068016821F4806116
:10195000016072B62068416981690091016841F4B3
:1019600000710AE041F40061016072B620684169CB
:1019700081690091016821F48061016062B697E09D
:10198000032865D801280CD0022843464FF00002F6
:101990004946204600960BD001F0C8FFA8BB0CE0DA
:1019A00091E032464146204602F066F868BB72E09C
:1019B00001F0BCFF48BB72B633E02068016821F437
:1019C0008061016072B620680069616A0870606AAF
:1019D000401C6062208D401E2085608D401E608509
:1019E0003D4846F2A8110068B0FBF1F0C0EBC00022
:1019F00000EB80000090401E009007D020684069F6
:101A0000C04340070DD50098F5E727E044F8305F64
:101A10006773A573206940F02000206162B62573CA
:101A20001CE02068016841F40071016020680069D1
:101A3000616A0870606A401C6062218D491E2185C0
:101A4000618D491E618562B621680969017026E0D1
:101A500032464146204602F00FF818B1012007B087
:101A6000BDE8F08F20680069616A0870606A401CF8
:101A70006062208D401E81B22185608D401E608590
:101A800020684269D243520712D4032903D1016866
:101A900021F48061016020680069616A0870606AF1
:101AA000401C6062208D401E2085608D401E608538
:101AB000208D00287FF464AF84F83D7084F83E5098
:101AC00084F83C50CBE70220C9E700000200100078
:101AD0000000FFFF040001000C0000202DE9FF4F73
:101AE00083B09A46DDE9119793460446DDF84080BD
:101AF000FFF764FC054694F83D0020287FD11923A8
:101B0000012240492046009501F010FF002876D1BF
:101B100094F83C00012872D0012084F83C00206831
:101B20000168C90703D1016841F001010160206823
:101B3000016821F400610160212084F83D0040200B
:101B400084F83E0000262664C4F82480A4F82A9075
:101B5000608D20852C48E062CDE9007553465A46D9
:101B60002046049901F048FD70B930E02A46394614
:101B7000204601F0B9FF58B1206C042804D1206838
:101B8000016841F400710160012007B0BDE8F08FE9
:101B9000606A216800780861606A401C6062218D7B
:101BA000491E89B22185628D521E62852268536961
:101BB000DB435B070BD469B100781061606A401C9D
:101BC0006062208D401E2085608D401E6085208DC6
:101BD0000028CBD12A463946204601F07BFE00285A
:101BE000CAD154F83D0B016841F400710160202016
:101BF00004F81E09E67766770020C6E7FFE70220B3
:101C0000C3E70000020010000000FFFFF8B5002449
:101C1000DDE90676009490F83D50202D57D12D4DEA
:101C200046F2A81C2D68B5FBFCF505EBC50C0CEBCA
:101C3000051500956D1E009506D00568AD69ED434C
:101C4000AD070BD4009DF5E740F8304F20214173DC
:101C50008473016941F02001016138E090F83C5043
:101C6000012D34D0012580F83C500568D5F800C01E
:101C70005FEACC7C05D1D5F800C04CF0010CC5F86A
:101C800000C00568D5F800C02CF4006CC5F800C091
:101C9000212580F83D50402580F83E50046447627D
:101CA0004685458D05850C4DC56241648264C364DB
:101CB000046501680A6842F480720A6080F83C405A
:101CC0000068416841F4E06141600020F8BD0220F5
:101CD000F8BD00000C0000200000FFFF30B585B00B
:101CE000002100910191029103912A4D03682A4C31
:101CF000122103222948AB422FD1A36943F00803E4
:101D0000A361A369039203F0080304931302CDE9CE
:101D100000316946FFF750FA2148416841F0E0611F
:101D200041F002014160E06940F40010E061E069C7
:101D3000002200F4001004900A211F2000F09CF8FB
:101D40001F2000F08BF800220A21202000F094F8D8
:101D5000202000F083F805B030BD124DAB42FAD11F
:101D6000A36943F00803A361A369039203F0080386
:101D700004934FF44063CDE900316946FFF71CFA44
:101D8000E06940F48000E061E06900F480000490C4
:101D9000E1E700000054004000100240000C014048
:101DA00000000140005800407047704702488168B9
:101DB000027811448160704700000020074810B588
:101DC000016841F010010160032000F075F80F2058
:101DD00000F006F800F024F8002010BD00200240BA
:101DE00070B50D4D04464FF47A712878B1FBF0F0D0
:101DF0000A490968B1FBF0F000F0DCFA48B9102C90
:101E000007D200222146501E00F036F800206C60F8
:101E100070BD012070BD0000000000200C000020FB
:101E20000C4808B5816941F001018161816901F0C7
:101E300001010091C16941F08051C161C06900F0A8
:101E4000805000900448416821F0E06141F0007149
:101E5000416008BD0010024000000140002809DB7D
:101E600000F01F02012191404009800000F1E020B4
:101E7000C0F8001170470000F0B40E4B1B680C4610
:101E8000C3F30223C3F10705042D00D90425191D4E
:101E9000072901D2002300E0DB1E012606FA05F126
:101EA000491E214099409E40761E16403143F0BCA9
:101EB00003F0C9B80CED00E0064900F0070208681D
:101EC0004FF6FF03184040EA0220034A104308601F
:101ED000704700000CED00E00000FA052DE9F04726
:101EE0000F46050061D0434E306800F00700B8424D
:101EF00009D2306820F0070038433060306800F0C5
:101F00000700B84251D128683B4C810712D54007E1
:101F100003D5606840F4E06060602878000703D56E
:101F2000606840F4605060606068A96820F0F0006C
:101F3000084360602878C00728D06868012810D05E
:101F40002168022810D0890700292EDA616821F063
:101F5000030101436160FFF731FA804641F288399D
:101F60000DE021688903EFE78901EDE7FFF726FA25
:101F7000A0EB0801494502D90320BDE8F08760685D
:101F8000696800F00C00B0EB810FEFD1306800F011
:101F90000700B8420BD9306820F0070038433060A2
:101FA000306800F00700B84201D00120E5E728784A
:101FB000400705D56068E96820F4E0600843606088
:101FC0002878000706D56068296920F4605040EA47
:101FD000C100606000F038F86168084AC1F303117D
:101FE000515CC8400649086006480068FFF7F8FEE3
:101FF0000020C2E7002002400010024056640008A2
:102000000C000020040000200448054900684968CD
:10201000044AC1F30221515CC84070470C00002003
:1020200000100240666400080448054900684968D9
:10203000044AC1F3C221515CC84070470C00002023
:1020400000100240666400080E4A51680E4801F014
:102050000C03042B11D0082B0FD10C48C1F3834380
:10206000C903C05C0AD55168084AC1F34041921EB9
:10207000515C054A5043B0FBF1F0704704494843B6
:10208000704700000010024000127A004664000809
:1020900000093D002DE9F84F040070D02078C04DB4
:1020A000C00749D06868C0F38100012807D068687C
:1020B000C0F38100022809D16868C00306D52868EA
:1020C000800339D560680028E7D035E06068B0F556
:1020D000803F0BD010B1B0F5A02F11D0286820F4AC
:1020E00080302860286820F4802002E0286840F4CE
:1020F00080302860606890B1FFF760F906460AE01A
:10210000286840F480202860F0E700BFFFF756F908
:10211000801B642873D828688003F7D50CE0FFF78C
:102120004DF9064605E000BFFFF748F9801B64281B
:10213000F0D828688003F7D420789A4E80074FF0B3
:1021400001094FF0000839D5686810F00C0F07D06E
:102150006868C0F38100022809D16868C00306D40A
:102160002868800714D52069012808D110E020696B
:10217000B0B1C6F80090FFF721F9074605E00AE183
:10218000FFF71CF9C01B0228C4D828688007F7D5C0
:102190002868616920F0F80040EAC10028600DE07D
:1021A000C6F80080FFF70AF9074604E0FFF706F9D2
:1021B000C01B022823D828688007F7D4207800079E
:1021C0002CD57948A169D9B1C0F80090FFF7F6F88D
:1021D000074604E0FFF7F2F8C01B02280FD8686A30
:1021E0008007F7D571484FF4FA510068B0FBF1F061
:1021F000009000BF0098411E0091FAD20EE080E0EE
:10220000C0F80080FFF7DAF8074604E0FFF7D6F8D9
:10221000C01B022875D8686A8007F7D42078400769
:1022200060D5E8690027C00008D4E86940F0805014
:10223000E861E869012700F0805000905C4801687F
:10224000C90513D40168834641F480710160FFF72A
:10225000B5F8824606E000BFFFF7B0F8A0EB0A0031
:1022600064284ED8DBF80000C005F5D5E0680128E9
:102270000AD008B1052813D0286A20F0010028628E
:10228000286A20F0040002E0286A40F00100286279
:10229000E06841F2883B98B1FFF790F882460BE086
:1022A000286A40F004002862EEE700BFFFF786F8D6
:1022B000A0EB0A0159455AD8286A8007F6D50CE0E8
:1022C000FFF77CF8824605E0FFF778F8A0EB0A01FB
:1022D00059454CD8286A8007F6D41FB1E86920F028
:1022E0008050E861E06988B36968C1F3810102291F
:1022F00044D00228C6F8608004D0FFF75FF8044697
:1023000038E034E0FFF75AF8074604E0FFF756F8E4
:10231000C01B02282BD828688001F7D4206AB0F5AA
:10232000803F05D16868A16820F4003008436860E8
:10233000D4E908010843696821F47411084368600E
:10234000C6F86090FFF73AF8044606E025E000BFC3
:10235000FFF734F8001B022809D828688001F7D558
:102360001BE000BFFFF72AF8001B022802D9032058
:10237000BDE8F88F28688001F4D40EE00128F7D07A
:102380006868226A00F48031914204D1616A00F4E5
:102390007010884201D00120EAE70020E8E7000041
:1023A0000010024000004242800442420C00002023
:1023B0000070004010B5401EB0F1807F01D30120B5
:1023C00010BD4FF0E02460610F21601702F03BFE6A
:1023D0000020A06107202061002010BD70477047D9
:1023E00070B590F83C20012A26D0012480F83C40AA
:1023F000022280F83D2003685A689D6822F070062A
:102400000A6832435A600D4B02689A4208D0B2F112
:10241000804F05D00A4B9A4202D00A4B9A4204D10F
:10242000496825F080031943916080F83D40002100
:1024300080F83C10084670BD022070BD002C0140A1
:10244000000400400008004010B5040003D094F8D8
:102450003D0010B107E0012010BD002084F83C00D1
:10246000204600F01FF8022084F83D00211D20685E
:1024700002F054F9012084F8460084F83E0084F804
:102480003F0084F8400084F8410084F8420084F85A
:10249000430084F8440084F8450084F83D0000209F
:1024A00010BD000008B5154A0168154891420ED1CB
:1024B000816941F4006181618069002200F400605B
:1024C000009001211920FFF7D7FC192010E0B1F18D
:1024D000804F11D1C16941F00101C161C069002281
:1024E00000F00100009011461C20FFF7C5FC1C20E5
:1024F000BDE80840FFF7B2BC08BD0000002C014059
:102500000010024090F83D10012901D001207047D1
:10251000022180F83D100168CA6842F00102CA60D9
:1025200000680B49884208D0B0F1804F05D00949B6
:10253000884202D00849884204D1816801F007012D
:10254000062903D0016841F00101016000207047B5
:10255000002C0140000400400008004070B5044613
:1025600090F83C000025012817D0012684F83C6033
:10257000022084F83D002068826822F0770222F46D
:102580007F4282600868502838D00DDC20284FD068
:1025900005DC90B3102811D14AE0022070BD30282C
:1025A00046D040280AD13BE060282FD070280DD0BB
:1025B000B0F5805F03D0B0F5005F12D0012584F83C
:1025C0003D60002084F83C00284670BDCB68D1E90E
:1025D0000121206802F0DEF82068816841F077016F
:1025E00009E0CB68D1E90121206802F0D3F8206826
:1025F000816841F480418160E1E719E0CA68496877
:10260000206802F0D9F85021206806E0CA684968BD
:10261000206802F0E2F86021206802F0C5F8CEE7F9
:10262000CA684968206802F0C7F840212068F4E7CA
:10263000226801461046F0E770472DE9F041044654
:102640000068C66805694FF00007A90713D5B107F0
:1026500011D5F91E0161012020772068806980076B
:10266000204602D0FFF7E8FF04E000F07EF82046A5
:1026700000F07CF82777680716D5700714D5216815
:102680006FF004000861022020772068806910F450
:10269000407F204602D0FFF7CFFF04E000F065F84E
:1026A000204600F063F82777280715D5300713D5A3
:1026B00021686FF008000861042020772068C06955
:1026C0008007204602D0FFF7B7FF04E000F04DF886
:1026D000204600F04BF82777E80616D5F00614D50B
:1026E00021686FF010000861082020772068C06919
:1026F00010F4407F204602D0FFF79EFF04E000F078
:1027000034F8204600F032F82777E80708D0F007C1
:1027100006D021686FF001000861204600F028F81B
:10272000280608D5300606D521686FF080000861BC
:102730002046FFF753FE680608D5700606D52168C7
:102740006FF040000861204600F026F8A8060AD580
:10275000B00608D521686FF0200008612046BDE86A
:10276000F041FFF73CBEBDE8F081704770470000C4
:1027700010B5044600680749884201D102F0F4FA16
:102780002068B0F1804F03D1BDE8104002F024BAB8
:1027900010BD0000002C0140704738B5044690F889
:1027A0004200202801D0022038BD51B14AB1012099
:1027B000206300206063204602F0B8F9216B0129F4
:1027C00001D0012038BD21680A684968009121685C
:1027D0000C3151E8002F42F0100241E80023002B99
:1027E000F5D138BD70B50C4606464FF480752946C4
:1027F0000C48FEF7D6FD0C4881688E4211D1AC42E0
:1028000000D92C46007820B12046BDE8704001F088
:10281000B3BA2146054801F0A1FABDE8704001F0C5
:1028200029BB70BD00080140F80000207016002090
:1028300004498A68904203D10020888001F01ABBC5
:1028400070470000F8000020F8B5016804460868E9
:10285000CA684B6910F00F0F4FF0000559D003F014
:10286000010602F49077374365D0C10705D0D10542
:1028700003D5616C41F001016164410705D5D907B9
:1028800003D0616C41F002016164810705D5D9076D
:1028900003D0616C41F004016164010707D502F0C7
:1028A0002001314303D0616C41F008016164616C27
:1028B00000293AD0800604D5900602D5204602F0C1
:1028C00078F820684069616CC0F38010090700D473
:1028D00060B3204602F038F820684069400621D5F0
:1028E0002068143050E8001F21F0400140E8001239
:1028F000002AF5D1E06BA8B16D494163E06BFEF7AA
:10290000E9FA002811D0E06B416B01B0BDE8F0405E
:10291000084783060FD593060DD52046BDE8F8403D
:1029200002F047B82046FFF783FFF8BD2046FFF7C7
:102930007FFF6564F8BD266B2023012E7CD1C6067F
:102940007AD5D60678D508684868009048694FF06F
:102950000206400640D5E16B086840680004000CA0
:10296000E8D0A28D8242E5D9E085886920282DD063
:1029700020680C3050E8001F21F4807140E80012FC
:10298000002AF5D12068143050E8001F21F0010121
:1029900040E80012002AF5D12068143050E8001FEA
:1029A00021F0400140E80012002AF5D184F84230BD
:1029B000256320680C3050E8001F21F0100140E82A
:1029C0000012002AF5D1E06BFEF760FA6663A08D75
:1029D000E18D401A81B22AE0A08DE18D401A81B2CA
:1029E000E08D0028A6D00029A4D022680C3252E83D
:1029F000000F20F4907042E80007002FF5D1206806
:102A0000143050E8002F22F0010240E80027002F88
:102A1000F5D184F84230256320680C3050E8002F4F
:102A200022F0100240E80023002BF5D16663204617
:102A3000FFF7D8FEF8BDFFE705062BD5150629D50B
:102A400094F841002128F5D1A068B0F5805F01D14C
:102A50002069B0B1206A411C216221680078486079
:102A6000E08C401E0004000CE084E3D12068C168C3
:102A700021F08001C1602068C16841F04001C1605F
:102A8000D8E7206A0088C0F308004860206A801CEC
:102A90002062E5E74006CDD55006CBD5CA68204672
:102AA00022F04002CA6084F8413000F023F9C1E707
:102AB000FF47000870B5040004D094F841000025D9
:102AC00010B106E0012070BD84F84050204600F0AF
:102AD00023F8242084F841002068C16821F40051C3
:102AE000C160204601F0C6FF2068016921F49041D1
:102AF00001612068416921F02A0141612068C168B3
:102B000041F40051C1606564202084F8410084F8DC
:102B100042006563002070BDF0B585B000240094CC
:102B20000194029403940646DFF834C103684D48CB
:102B3000022103224C4D802763454CD1836943F425
:102B400080438361836903F480430493836943F082
:102B5000040383618069039200F00400049008027A
:102B6000CDE9000169462846FEF726FB2815CDE988
:102B70000004694628460294FEF71EFB3C4D3B4884
:102B800001C5102091C53A4845F810496C61AC6107
:102B9000EC61FEF799FA08B1FEF776F9B5636E625B
:102BA000334D324844351430C5E90004C5E90247C5
:102BB0002C616C61AC612846EC61FEF785FA08B1C6
:102BC000FEF762F9F5630022114625206E62FFF7D9
:102BD00053F925203FE0DFF89CC063453DD1C36930
:102BE00043F40033C361C36903F40033049383697E
:102BF00043F0040383618069039200F004000490B1
:102C00000420CDE9000169462846FEF7D5FA0820E0
:102C1000CDE90004694628460294FEF7CDFA144D2A
:102C2000124888352830C5E90004C5E9024720204C
:102C30002C61C5E905400002E8612846FEF744FA28
:102C400008B1FEF721F9F5630022114626206E62D5
:102C5000FFF712F92620FFF701F905B0F0BD0000DB
:102C600000380140001002400008014044000240CA
:102C7000D4020020004400407047704770B50446FD
:102C800090F84100202801D0022070BD49B342B322
:102C90002162A284E28400206064212384F8413010
:102CA000A56B114BAB62A56B104BEB62A56B104B88
:102CB0002B63A36B5863256813462A1DA06BFEF790
:102CC00031FA21686FF0400008602068143050E845
:102CD000001F41F0800140E80012002AF5D10020D9
:102CE00070BD012070BD0000FD4800083F4900088C
:102CF0000F48000870477047FEE700000148FEF7E4
:102D000065BB00000C0100200148FEF7C1BB0000BC
:102D10000C01002038B5406A002190F83D202B4B73
:102D200046F2A8141B68B3FBF4F3C3EBC30303EB35
:102D3000830300933BB15B1E009303681B689B05F4
:102D400005D5009BF6E7036C43F020030364436B57
:102D500003B19962836B03B1996203681C6824F420
:102D600080641C604185436B03B15963836B03B17D
:102D7000596303681C6824F001041C6090F83D400E
:102D80002023602C0BD0282434EA02020FD080F8D4
:102D90003D3080F83E1000BFFEF792FC38BD80F851
:102DA0003D3080F83E100164FEF70EFB38BD02682E
:102DB000136843F0010313600268136843F48063EF
:102DC0001360016380F83D40E6E700000C0000203E
:102DD00000684169C943090601D4002101617047B7
:102DE00070B5044690F83D0094F83E10102901D0CB
:102DF000402906D1222804D121680A6822F4006201
:102E00000A60282131EA00024FF000054FF0200649
:102E100026D021684968090505D4602803D084F8C4
:102E20003D6084F83E50256320684168090537D528
:102E3000416821F400614160606B90F821203C49B9
:102E4000012A11D04163606BFEF744F838B3206863
:102E5000016821F00101016084F83D60606B1CE0B5
:102E6000256384F83D10DFE7A06B4163A06BFEF79C
:102E700031F8A0B120684169C943490605D4006909
:102E8000616A0870606A401C60622068016821F015
:102E90000101016084F83D60A06B416B884710E040
:102EA00094F83D10602910D04169C943490605D402
:102EB0000069616A0870606A401C60622046FEF723
:102EC000FFFB206CC1071CD115E084F83D60256430
:102ED0004169C943490605D40069616A0870606A9E
:102EE000401C60622068016821F0010101602046F9
:102EF000FEF76AFAE5E7810703D4410701D400072A
:102F000004D52068416821F4E061416094F83D00F7
:102F1000216C49070BD5282809D10648E0622563B2
:102F200084F83D6084F83E502046FEF799FC70BD61
:102F3000152D00080000FFFF01684A69D2435205C1
:102F40000FD46FF480624A61002140F8301F2022C4
:102F500042738173026942F004020261017301202D
:102F600070470020704710B5C26A438D0168042B7A
:102F700006D0438D032B08D0438D022B1DD012E0C9
:102F80004A6822F480624A600CE04B6823F4806354
:102F90004B60042A06D0022A04D001680A6822F491
:102FA00080620A6001680969426A1170416A491CBD
:102FB0004162418D491E418510BD012A34D0102A3D
:102FC00032D0042A34D0022A32D00B6843F4007382
:102FD0000B6001680969436A1970416A491C4162C2
:102FE000438D5B1E438503681B690B70416A491C56
:102FF0004162418D491E418501684B6823F440734D
:103000004B60202180F83D1090F83E300021402B8D
:1030100080F83E1010D0082A02D0202A00D01221B9
:103020000163FEF71EFC10BD0B6823F48063CFE73D
:103030000B6843F48063CBE70163FEF714FC10BD1B
:1030400038B590F83D10222910D1C36A418D03296B
:103050000DD901680969426A1170416A491C4162CF
:10306000418D491E4185418D032906D038BDC26A74
:10307000022A02D0012906D029B10068416821F452
:103080008061416038BD2A4A46F2A81400211268C6
:10309000B2FBF4F202EB8202009202682024009D4F
:1030A0006D1E009526D01568AD05F8D4156825F479
:1030B000806515600268556825F4E0655560026812
:1030C0001269456A2A70426A521C4262428D521E3F
:1030D000428580F83D4090F83E2080F83E10402A1E
:1030E00021D0082B02D0202B00D012210163FEF743
:1030F000B8FB38BD036C43F020030364536823F42A
:10310000E063536002681269436A1A70426A521C93
:103110004262428D521E428580F83D4080F83E104A
:10312000FEF7CEFA38BD0163FEF79DFB38BD000007
:103130000C00002010B5C26A90F83D1021290BD177
:10314000418D51B1416A026809781161416A491C97
:103150004162418D491E418510BD20230021082A6E
:1031600013D0202A11D012F5803F0ED00268546887
:1031700024F4E06454601122026380F83E1080F869
:103180003D3000BFFEF76EFB10BD0268546824F4AA
:10319000E06454600268146844F4007414600163CD
:1031A00080F83D3090F83E2080F83E10402AE9D16A
:1031B000FEF75AFB10BD000010B590F83D1090F8D6
:1031C0003E30C26A048DB4B1212903D0402B11D105
:1031D00022290FD1418DE1B390F83E10402942D011
:1031E000416A026809781161416A491C4162418D56
:1031F000491E418510BD2129E8D120230021082A3C
:1032000013D0202A11D012F5803F0ED002685468E6
:1032100024F4E06454601122026380F83E1080F8C8
:103220003D3000BFFEF71EFB10BD0268546824F459
:10323000E06454600268146844F40074146001632C
:1032400080F83D3090F83E2080F83E10402AE9D1C9
:1032500000E002E0FEF708FB10BD0068416821F4C1
:103260008061416010BDBDE8104000F0F3B800007F
:1032700078B590F83E50C26A046B90F83D60002328
:103280000168222E73D1066D0EB9402D6FD0056DE9
:103290001DB90569B5F5404F1BD0458D95B3468DD9
:1032A000484D012E20D0448D022C4DD00C6844F4A2
:1032B00080640C6001684C68240579D5AA4273D0FB
:1032C000012A71D0082A6FD0102A6DD0202A6BD025
:1032D0006EE04A698A6900920A6842F480720A6064
:1032E000016D491C016578BDAA4214D10A6822F417
:1032F00080620A6001684A68120504D50A6822F4EF
:10330000806217E0FFE74A698A6900920A6842F41E
:1033100000720A6050E0082A10D0202A0ED0122C29
:103320000AD0042A03D0022A01D0102AE6D10A6862
:1033300042F480620A603BE0012ADFD00A6822F48E
:1033400080620A600168DEE7042A11D0022A0FD0E9
:10335000102A0DD00C6844F400640C6001684C69BC
:103360008C6900940C6824F480640C6008E025E00B
:103370000C6844F480640C6001684C6989690091B0
:1033800001684C68240517D5AA4207D0012A05D048
:10339000082A03D0102A01D0202A0DD14A6842F40D
:1033A00080524A6008E0FFE74A6842F480524A606F
:1033B00001684A6989690091036578BD486988692F
:1033C000009078BD0000FFFF90F83E10402910D01B
:1033D0000169B1F5804F19D0016DA9B3016D0129C3
:1033E00010D1416C5FF0F10201F4407142EAD11159
:1033F00006E0016D0029416C05D0C9B241F0010120
:1034000000680161704701F0FE01F9E790F83D1096
:103410002129416C09D0C9B241F001010268116152
:10342000416B29B1896A49B902E001F0FE01F5E773
:10343000816B0029E6D0896A0029E3D000684168E1
:1034400041F4006141607047FFE7416CF02201F4F4
:103450004071CBE710B590F83D10026D4AB1026D96
:10346000012A14D0026D022A16D0BDE81040FFF7E1
:10347000AFBCC16C0129816C02D0C1F3072108E007
:103480000268C9B21161016D891C016510BD816CB2
:10349000C9B20268116123E022291CD0428D0AB111
:1034A000212920D0428D002AF0D12129EED10168B6
:1034B0004A6822F4E0624A6001680A6842F40072D5
:1034C0000A6000210163202280F83D2080F83E1030
:1034D000FEF7CAF910BD01680A6842F480720A60FA
:1034E000016D491CD1E7416A026809781161416A9E
:1034F000491C4162418D491E418510BD2DE9F84F9F
:103500000446006889460B9D01689846174641F4B9
:10351000806101602068016841F48071016000955C
:103520004FF0011B0022594620460A9B00F0FEF98D
:103530004FF4007A40B120680068C00501D5C4F896
:1035400040A00320BDE8F88F216809F0FE00086163
:103550002B46284920460A9A00F030FAF0BB206832
:103560004169806900902A4620460A9900F0BCFA19
:1035700040B1206C04283AD12068016841F4007100
:10358000016034E0FEB2B8F1010F09D02168380AB9
:1035900008612A4620460A9900F0A6FA0028E8D1D8
:1035A000206806612A4620460A9900F09DFA002804
:1035B000DFD12068016841F480710160009500222C
:1035C000594620460A9B00F0B1F90028B3D1216882
:1035D00009F0FF0040F00100086100E007E02B4621
:1035E000044920460A9A00F0E9F90028AAD00120EF
:1035F000A8E70000020001002DE9F8430446006836
:103600000D46DDE9089701689846164641F4807139
:1036100001604B4600224FF001112046009700F058
:1036200085F948B120680068C00502D54FF40070E4
:1036300020640320BDE8F883216805F0FE000861DE
:103640003B464A461549204600F0B8F988B920683B
:103650004169806900903A464946204600F044FAA4
:1036600048B1206C042804D12068016841F400713D
:1036700001600120DEE7F5B2B8F1010F09D0216841
:10368000300A08613A464946204600F02DFA0028E3
:10369000E7D1206805610020CCE7000002000100AE
:1036A00038B50C4690F83D20002128259543026846
:1036B0000B4605D051699169009180F83C3038BDC6
:1036C000556825F480655560E243540700D5012113
:1036D000120601D5828900E0028B80F83C3092B25C
:1036E000FDF773FE38BD00002DE9F04190F83D3044
:1036F0000446C26A002120261E4F00686FF48065D0
:10370000082A01D0202A01D1282B04D0212B17D040
:103710004561BDE8F081E762426822F4E062426000
:10372000206845612068026822F48062026021639B
:1037300084F83D6084F83E102046FEF791F8E8E7F3
:10374000E7622122226384F83D6084F83E104168DC
:1037500021F4E0614160206845612068016821F43E
:10376000806101602046FFF733FB2046FEF71DFB1A
:10377000CFE700000000FFFFF8B590F83D60044679
:103780000068416821F4E0614160206800254169DA
:103790000091016841F0010101602068016821F495
:1037A0008061016020684168090520D5474F222EBD
:1037B00048D02A2E46D0616B096849686185618DC1
:1037C00019B1216C41F004012164416821F40061C8
:1037D0004160606BFDF7CAFB012808D0606B47634E
:1037E000606BFDF777FB10B1606B416B8847608DB4
:1037F00008B320684169C943490708D40069616A70
:103800000870606A401C6062608D401E60852068A0
:103810004169C943490608D40069616A0870606A51
:10382000401C6062608D401E6085608D18B1206C08
:1038300040F004002064206C00B32046BDE8F8404E
:10384000FFF7CEBAA16B096849686185618D19B12E
:10385000216C41F004012164416821F40061416060
:10386000A06BFDF783FB0128C1D0A06B4763A06B61
:10387000FDF730FB0028BAD0A06BB6E72A2E06D1A0
:103880002563282084F83D002046FEF78DFA94F841
:103890003D10202028290DD0216B222901D0222E75
:1038A00007D1256384F83D0084F83E502046FEF79A
:1038B0007BFAF8BD0649E162256384F83D0084F88F
:1038C0003E502046FDF7CCFFF8BD0000152D000846
:1038D0000000FFFF70B516460D4604461EE0204668
:1038E000FFF72AFB08B1012070BD681C16D0FDF758
:1038F00065FD801BA84200D885B920684069C04397
:1039000040070BD5002044F8300F20216173A073CD
:10391000216941F0200121612073E4E720684069BA
:10392000C0434007DBD4002070BD00002DE9F04704
:10393000984617460D460446C1F30746DDF8209029
:103940002AE000BFB8F1FF3F26D0FDF737FDA0EB1E
:103950000901414502D8B8F1000F1DD12068012EA0
:1039600016D0806925EA00000004000C12D0002067
:10397000B84211D1002044F8300F20216173A073A8
:10398000216941F02001216120730120BDE8F08709
:103990004069E7E70120EBE72068012E0AD0806943
:1039A00025EA00000004000C06D00020B842C9D06F
:1039B0000020EBE74069F3E70120F7E72DE9F04746
:1039C000984616460D4604464FF000094FF0200A6F
:1039D000C1F3074723E020684069C043400515D480
:1039E0002068016841F40071016021686FF4806013
:1039F0004861C4F8309084F83DA084F83E90216C72
:103A000041F00401216484F83C9021E0701C06D050
:103A1000FDF7D4FCA0EB0800B04203D816B1012F8B
:103A20001FD021E02068012F15D0806925EA000011
:103A30000004000C18D000BF44F8309F84F80DA09B
:103A400084F80E90216941F02001216184F80C90E6
:103A50000120BDE8F087406925EA00000004000C61
:103A6000EAD12068406901E02068806925EA000009
:103A70000004000CAFD1ECE72DE9F04100259046A1
:103A80000E460446202728E04069C043C0060CD4F7
:103A900054F8301B6FF01000486144F810596777F4
:103AA000A577206A2062257714E0FDF787FCA0EB5C
:103AB0000800B04200D886B920684069C04340067B
:103AC0000BD544F8305F6773A573206940F0200080
:103AD000206125730120BDE8F08120684169C94358
:103AE0004906D1D40020F6E770B516460D460446C7
:103AF0001EE02046FFF720FA08B1012070BD681CC7
:103B000016D0FDF75BFC801BA84200D885B9206861
:103B10004069C04300060BD5002044F8300F202137
:103B20006173A073216941F0200121612073E4E7F2
:103B300020684069C0430006DBD4002070BD2DE939
:103B4000FF5F96B024AD044695E88301D4E90823CD
:103B500008930692FCF793FC3A464346FCF795FC23
:103B6000D4E90623FCF7EAFB07911290D4E910A3ED
:103B70005246384641460993FCF787FCCDE90001DF
:103B8000D4E90C939B464A46FCF779FCD4E90E2312
:103B9000CDE90B32FCF773FCD4E90023FCF7CEFB34
:103BA0003A464346FCF771FCD4E90A23FCF7C6FB0E
:103BB00005460E46DDE900014A465B46FCF762FC1D
:103BC0008B460490DDE90001DDE90B32FCF75AFC7D
:103BD0000D910090D4E902013A464346FCF755FCAA
:103BE0005246099BFCF7AAFBCDE90E01D4E9042358
:103BF00028463146FCF7A2FB80468A4602460B4621
:103C000028463146FCF7B3FC81460F4642465346F0
:103C10000D990098FCF7ABFC80468A46DDE9180157
:103C2000079B129AFCF72BFC0B914A463B461090DF
:103C3000FCF72BFC079B129AFCF780FBC4E90601FA
:103C400007911290404651460B9B109AFCF71DFCC1
:103C5000089B069AFCF772FBC4E9080104980690D9
:103C60002A46334648463946FCF70FFC2A46334677
:103C7000FCF708FCC4E90A015B4648463946069A47
:103C8000FCF703FC5B46049AFCF7FCFBC4E90C015F
:103C90002A46334640465146FCF7F7FB0D9B009AF7
:103CA000FCF7F0FBC4E90E015B4640465146069A1C
:103CB000FCF7EBFBDDE90E23FCF7E4FBC4E91001A4
:103CC000079912981AB0BDE8F09F00000E480F49FE
:103CD0008088052801D30A798AB9062802D34A794F
:103CE000022A0CD1072801D38A7942B9082801D3C6
:103CF000CA7922B90A2804D10889B82801D000203D
:103D00007047012070470000F80000207017002065
:103D100070B5104C0025104BA1884A1C92B20429A2
:103D200004D2AA280FD15854A28070BD5854A28042
:103D30000A2A02D8FFF7CAFF38B1A088C328F4D1F5
:103D400000F03CF808B1A58070BDBDE8704000F0FF
:103D500071B80000F80000207017002070B50D4603
:103D60000646002404E0305DFFF7D2FF641CA4B2D5
:103D7000AC42F8D370BD000070B504460546B0F5FE
:103D8000807F00D100250B4E0B48718808448C427F
:103D900003D9A4EB010189B207E008D2C1F5807113
:103DA00089B2FFF7DBFF21460348FFF7D7FF758095
:103DB00070BD0000F80000207016002070B50021D2
:103DC0001A4A0420135C401C194480B2C9B2C228AC
:103DD000F8D392F8C200884204D10125002420467D
:103DE000214601E0002070BDC1EB01130A339BB2F4
:103DF00013441B881BB213B1401C1C44C0B2491CA5
:103E000089B20C29F0D30028EDD0FCF73FFC064620
:103E10002046FCF732FC3146FCF752FA0449C860F0
:103E2000BFF35F8F4D70012070BD00007017002040
:103E3000F80000200D4B10B500209A880C4903E0D3
:103E4000401C80B2042807D2904205D2141A0C44B8
:103E500014F8014CAA2CF3D09880AA2202E0401E4C
:103E600080B20A540028FAD110BD0000F8000020EA
:103E70007017002010B50C4CA06890B1C16B81B1D7
:103E80004FF480720949FEF788FC002808D1002110
:103E90006180A168C96B09680A6822F004020A609F
:103EA00010BD012010BD0000F80000207016002099
:103EB00000280CD0EFF3108172B6054B5A780AB186
:103EC000DB680360BFF35F8F01B962B610467047CD
:103ED000F800002070B5E8B1C16BD9B14268B2F505
:103EE000613F17D18268AAB902699AB9C2688AB9D2
:103EF000027D52070ED54A6862B98A6852B9CA680B
:103F0000802A07D10A692AB94A691AB98A691AB195
:103F1000202A01D0012070BD90F84210202901D044
:103F2000022070BDEFF3108172B60C4D202AA860FC
:103F30000AD00020287000246C80AC80EC606C708B
:103F4000BFF35F8F11B102E00120F3E762B6FFF724
:103F500091FF0028E5D0AC6070BD0000F8000020A3
:103F60002DE9F34F4FF0000085B05FEA010B0646E4
:103F70008146054682460446804605D04FF4FA70D5
:103F8000FDF708F900272FE0012007B0BDE8F08F0A
:103F90006422062103A88DE8070001234322D021D3
:103FA0000598FDF76DFC08B10220EEE7BDF80C00A6
:103FB00040BA02B2BDF80E0012EB090940BA01B2D4
:103FC000BDF8100046EBE27640BA11EB0A0A00B2E7
:103FD00045EBE1754FEAE07210EB080854410A2006
:103FE000FDF7D8F87F1CBFB258465F45D0D3FCF729
:103FF00063FB07468B4648463146FCF76AFB3A4668
:104000005B46FCF7B4FA1D4ED946C6E9020150469C
:104010002946FCF75EFB3A464B46FCF7A8FAC6E990
:1040200004013D465F4640462146FCF752FB2A46C6
:104030003B46FCF79CFAC6E90601002206F1200087
:104040001146C0E90622C0E90822C0E90A22C0E9F7
:104050000C22C0E90E22C0E910224830C0E9062235
:10406000C0E90822C0E90A22C0E90C22C0E90E1208
:10407000C0E910223270104687E700004800002097
:104080002DE9F04385B081460124642504A88DE81C
:10409000310023467522D0214846FDF7F1FB9DF8FB
:1040A0001000702803D0012005B0BDE8F08303AEF6
:1040B0008DF80C40009601236B22D0214846CDE9B3
:1040C0000145FDF70BFD6420FDF764F802278DF82C
:1040D0000C70009601231A22D0214846CDE90145F3
:1040E000FDF7FCFC8DF80C70009601231922D021FD
:1040F0004846CDE90145FDF7F1FC4FF000088DF889
:104100000C80009601231C22D0214846CDE90145B0
:10411000FDF7E4FC8DF80C70009601231D22D021E0
:104120004846CDE90145FDF7D9FC8DF80C80009695
:1041300001231B22D0214846CDE90145FDF7CEFCE5
:104140000020B1E72DE9FF5F88B00C4603230E2263
:1041500004A98DE80E0001233B22D021FDF790FB3E
:1041600000287DD1BDF8100040BA01B22180BDF811
:10417000120040BA00B260800746BDF8140040BA91
:1041800006B2A680BDF8160040BA0FFA80FBBDF853
:10419000180040BA00B220848046BDF81A0040BA28
:1041A00000B260848246BDF81C0040BA00B2A08410
:1041B00081460846FCF76FFA05466FF00D02019143
:1041C000FCF744FAC4E902013846FCF764FA6FF0E0
:1041D0000D02FCF73BFAC4E904013046FCF75BFA38
:1041E00007466FF00D020091FCF730FAC4E90601B2
:1041F0005846FCF742FA7149FCF762F87049FBF740
:10420000D5FF20644046FCF746FADFF8B8B15E46B9
:10421000D6E90223FCF733F9DFF8AC8100224346EC
:10422000FCF7A5F9C4E90A015046FCF734FAD6E9CF
:104230000423FCF724F900224346FCF798F9C4E96B
:104240000C014846FCF727FAD6E90623FCF717F9D4
:1042500000224346FCF78BF9C4E90E01002000E080
:104260007FE0DDE90A235949FCF781F98A46DDE957
:104270000016814638463A460B46FCF706F980465A
:104280000F462A46334610461946FCF7FEF84246CA
:104290003B46FCF753F801F039FF002205460E4675
:1042A0001346FCF757FA10D0B4F90200FCF7F3F903
:1042B0002A463346FCF75BF901F0AAFB444A454B1A
:1042C000FCF7E3F80746884601E00027B846B4F952
:1042D0000400FCF7E0F90646B4F900000D46404240
:1042E000FCF7D9F932462B4601F0A2FC384A394B8B
:1042F000FCF7CBF8054658469BF80020DFF8C4B021
:104300000E460BF1680BFAB10022334B2846FCF73E
:1043100021FA06D2D4E914010022304BFCF732FA1C
:104320000DD300222D4B28463146FCF72BFA1BD229
:10433000D4E914010022284BFCF70CFA14D2CBE983
:104340000656C4E914561DE01E4A41462032C2E911
:104350000678CBE90656A7644C3484E86200012154
:1043600001700CB0BDE8F09FCDE9029AD4E90C01D0
:10437000CDE9000113482A4633466830FFF7DFFBDA
:10438000C4E91401D4E9140121F000410022134BC7
:10439000FCF7F8F903D2E16A81F00041E162CDE96E
:1043A000029AD4E90A01CDE9000106483A4643469B
:1043B0002030FFF7C4FBC4E91201D2E70000AA4392
:1043C000B81E124248000020006060400000F03F2C
:1043D000F8C1631ADCA54C40008056C000805640EE
:1043E000114808B5416941F001014161406900226D
:1043F00000F00100009011460E20FDF73DFD0E205B
:10440000FDF72CFD002211460F20FDF735FD0F2092
:10441000FDF724FD002211461020FDF72DFDBDE81B
:1044200008401020FDF71ABD001002402DE9F043AE
:1044300085B0002526480095019502950395816970
:1044400041F020018161816901F0200104918169BD
:1044500041F004018161816901F0040104918169E5
:1044600041F0080181618069DFF8688000F0080090
:104470004FF480540490002221464046FCF799FFF7
:10448000DFF854904FF41067002239464846FCF795
:1044900090FF009401240226CDE902466946404679
:1044A0000194FCF789FE4FF46040CDE900056946B0
:1044B00002944046FCF780FECDE90074CDE9024647
:1044C00069464846FCF778FE05B0BDE8F083000079
:1044D00000100240000C0140000801400D4810B5DA
:1044E0000B4901600C49416000214FF4804281601A
:1044F000C0E9031241618161C1610162FDF7ECF81D
:10450000002803D0BDE81040FCF7BEBC10BD000081
:10451000005400400C010020801A06000D4810B520
:104520000B4901600C49416000214FF480428160D9
:10453000C0E9031241618161C1610162FDF7CCF8FC
:10454000002803D0BDE81040FCF79EBC10BD000061
:104550000058004060010020801A060010B586B0A7
:10456000002417480094019402940394049413497E
:104570000594016040F65F11C0E901146321C0E9B0
:10458000031444618461FDF75FFF08B1FCF77CFC14
:104590004FF48050009069460948FDF7DFFF08B1ED
:1045A000FCF772FC049404A905480594FDF718FF74
:1045B000002801D0FCF768FC06B010BD002C0140BB
:1045C000B401002010B586B0002416480094019470
:1045D0000294039404944FF080410594016041F6E5
:1045E0001F41C0E901146321C0E903148461FDF790
:1045F0002BFF08B1FCF748FC4FF48050009069464F
:104600000848FDF7ABFF08B1FCF73EFC049404A991
:1046100004480594FDF7E4FE002801D0FCF734FCC3
:1046200006B010BDFC0100200C4810B50A4901601D
:104630004FF4E1314160002181600C22C160C0E98A
:1046400004128161C161FEF735FA002803D0BDE88C
:104650001040FCF719BC10BD003801404402002096
:104660000C4810B50A4901604FF4613141600021E6
:1046700081600C22C160C0E904128161C161FEF752
:1046800019FA002803D0BDE81040FCF7FDBB10BDAF
:10469000004400408C020020FEE7FEE770477047B0
:1046A000FDF784BB30B58FB028216846FBF773FD5A
:1046B00014210AA8FBF76FFD01210804CDE90010C1
:1046C0000024029402250491CDE907504FF4E01034
:1046D00009906846FDF7DEFC08B172B6FEE70F20D0
:1046E000CDE90A054FF48060CDE90C4002210AA80B
:1046F0000E94FDF7F3FB002801D072B6FEE70FB071
:1047000030BD70470148FDF798BF0000B40100209C
:104710000148FDF792BF0000FC010020F0B50268DF
:10472000194B1A4C1A4D4FF08047984205D0B842A9
:1047300003D0A04201D0A84203D122F070064A68FB
:104740003243984205D0B84203D0A04201D0A842DB
:1047500003D122F44074CA6822434C6922F08002DB
:10476000224302608A68C2620A688262984201D16A
:1047700009690163012141610169C90703D0016928
:1047800021F001010161F0BD002C01400004004056
:104790000008004010B5846842EA032224F47F44F4
:1047A0000A432243826010BD826822F070020A43ED
:1047B00042F007018160704710B5036A046A24F073
:1047C00001040462846924F0F00444EA021423F032
:1047D0000A020A438461026210BD10B5036A046ACA
:1047E00024F010040462846923F0A00324F47044CC
:1047F00044EA023243EA01118261016210BD10B540
:10480000406A0021C185C184FEF712F810BD70B561
:10481000446A2068406994F84110C0F3C010002534
:10482000212904D118B1E584204600F0B4F82068AD
:10483000406994F84210C0F38010222904D118B1C5
:10484000E585204600F080F8606C40F01000606460
:104850002046FDF7EDFF70BD10B50146406A0968BE
:1048600009684FF0000289062ED4C28501680C3118
:1048700051E8003F23F4807341E80034002CF5D167
:104880000168143151E8003F23F0010341E800348E
:10489000002CF5D10168143151E8003F23F04003AA
:1048A00041E80034002CF5D1202180F84210016B42
:1048B000012909D101680C3151E8003F23F01003B0
:1048C00041E80034002CF5D14263016B012902D08C
:1048D000FEF7D2F910BD818DFDF784FF10BD10B534
:1048E000406A01214163016B012902D0FEF7C5F93D
:1048F00010BD818D4908FDF775FF10BD10B501464B
:10490000406A09680968890616D40021C1840168D3
:10491000143151E8002F22F0800241E80023002BDF
:10492000F5D101680C3151E8002F42F0400241E816
:104930000023002BF5D110BDFEF7DCF910BD10B53A
:10494000406AFEF7D8F910BD01680C3151E8002F1C
:1049500022F4907241E80023002BF5D10168143154
:1049600051E8002F22F0010241E80023002BF5D18D
:10497000016B012909D101680C3151E8002F22F0A7
:10498000100241E80023002BF5D1202180F84210CD
:1049900000210163704701680C3151E8002F22F0BB
:1049A000C00241E80023002BF5D1202180F84110FE
:1049B000704708B590F84210222901D0022008BDA6
:1049C00082684FF480539A4201D1016921B1816A12
:1049D0009A421BD04AB10AE00268816A5268C2F367
:1049E00008020A80816A891C08E0026972B10268C3
:1049F000526802F07F020A70816A491C8162C18D8F
:104A0000491E0904090CC18503D01BE002685268E5
:104A1000F1E70168CA6822F02002CA600168CA682A
:104A200022F48072CA6001684A6922F001024A6178
:104A3000202180F8421000214163026B012A03D03B
:104A4000FEF71AF9002008BD016301680C3151E836
:104A5000002F22F0100241E80023002BF5D101685D
:104A60000A68D20602D50A6849680091818DFDF76F
:104A7000B9FEE7E770B5044600680169E26821F411
:104A80004051114301612169A068084361690843ED
:104A90002168CA6841F20C639A430243CA602068E5
:104AA0004169A26921F44071114341611E492068A6
:104AB000884202D1FDF7B8FA01E0FDF7A5FA00EB54
:104AC000C00101EB0012606864218000B2FBF0F3CA
:104AD000B3FBF1F36FF018067343B2FBF0F5B2FBD2
:104AE000F0F605EB8305322303EB0515B5FBF1F575
:104AF000B6FBF1F605F0F00505EB0615B2FBF0F696
:104B0000B2FBF0F0B0FBF1F06FF01802504306EB8F
:104B1000800003EB0010B0FBF1F0216800F00F0003
:104B20002844886070BD00000038014038B58162BB
:104B300004468285002013466064222284F84220C5
:104B4000E56B1B4AAA62E56B1A4AEA62E56B1A4AF0
:104B50002A63E26B50630A462168E06B091DFCF78B
:104B6000E1FA2068016840680090206948B1206837
:104B70000C3050E8001F41F4807140E80012002A18
:104B8000F5D12068143050E8001F41F0010140E8E1
:104B90000012002AF5D12068143050E8001F41F0BF
:104BA000400140E80012002AF5D1002038BD000085
:104BB00059480008DF4800080F4800080148FDF781
:104BC00043BE0000440200200148FDF73DBE000046
:104BD0008C020020FEE7000070B51A4D6FF0F90658
:104BE000A87800282DD0E87800B1686AFCF768F84A
:104BF0004FF07C5110F1FF4F02D2FBF7D7FA01E0E2
:104C0000FBF726FBFBF779FD0446B04201DA344698
:104C100002E0FA2C00DDFA242046FBF72EFDE861C5
:104C2000094840682862A86A201A00D540422979BC
:104C300009B1032805DB2046FBF770FF0120AC62B9
:104C4000287170BD100000201004002010B500F085
:104C500039F800F0CFF84FF4FA70FCF79BFAFBF745
:104C600061FF0520FCF796FA0949002008720C3113
:104C700008720C3108604860886006494862C87054
:104C800088620871BDE810400348FFF723B90000AF
:104C9000F8030020100000208C02002010B5040052
:104CA00009D0FFF705F938B104492068884202D0DD
:104CB000FBF7CEFA206010BD0148FBE700003B4344
:104CC000000080BF10B50C48FFF7DAF908B10BA05F
:104CD00009E012A001F0FEF94FF496710648FFF7C3
:104CE0003FF920B117A0BDE8104001F0F3B91D490C
:104CF0000120487010BD0000600100204D5055207B
:104D000057484F5F414D5F49206F72204932432021
:104D10006661696C65640D0A000000004B65657092
:104D2000204D5055207374696C6C3A2063616C6936
:104D300062726174696E67206779726F2E2E2E0D14
:104D40000A0000004D5055206779726F2063616C36
:104D50006962726174696F6E206661696C65640D69
:104D60000A0000001000002070B50E484078A0B185
:104D700000220D4B0D490E48FFF7E4F90B4CD4E926
:104D80000601FBF717FD0546D4E90401FBF712FD08
:104D90002946BDE87040FBF7E3BEBDE8704005A0C2
:104DA00001F098B91000002000C07240A00300205C
:104DB000600100204D5055206E6F74207265616453
:104DC000792C20706C6561736520636865636B2066
:104DD000696E697469616C697A6174696F6E20616A
:104DE0006E642063616C6962726174696F6E0D0A32
:104DF0000000000010B501F0D3F9BDE8104000201C
:104E000001F0C2B9F8B5002001F0BEF90A21084648
:104E100001F034FA1B4EF2881BA11E4800F0BEF8C8
:104E20001D4D0124009495E80E001A4801F0F0FA97
:104E30001E210A2001F022FA327813A1154800F051
:104E4000ADF8009495E80E00124801F0E1FA06F181
:104E50002C00FFF723FF32210A2001F00FFAF06A3D
:104E6000FBF764FC02460B460CA10A4800F096F8DA
:104E7000009495E80E00074801F0CAFABDE8F84032
:104E800001F02ABA10000020436F756E743A202595
:104E9000640000001C040020146C00084C61736561
:104EA000723A20252E32660008B500200090044892
:104EB00001230278C1881846FBF7CEFF08BD000029
:104EC000100000202DE9F041314C4FF400563146DE
:104ED0002046FCF761FA2F4DA0B91420FCF75AF9CF
:104EE00031462046FCF758FA60B9A1142046FCF779
:104EF00058FA2889FBF712FE31462046FCF74CFA97
:104F00000028F9D04FF4804631462046FCF744FA99
:104F1000214FC8B91420FCF73DF931462046FCF773
:104F20003BFA88B9B1113846FCF73BFA0020FBF791
:104F3000F5FDA878012828D00120A8703146204628
:104F4000FCF72AFA0028F9D04FF4004631462046F3
:104F5000FCF722FA002816D11420FCF71BF9314681
:104F60002046FCF719FA00280DD131113846FCF71C
:104F700018FA28894042FBF7D1FD31462046FCF75C
:104F80000BFA0028F9D0BDE8F0810020D5E7000039
:104F9000000C014010000020000801400FB4084B35
:104FA00010B504A902AA039800F09EF9044602A9CC
:104FB000002000F027FD204610BC5DF814FB000027
:104FC000055A00087CB50C001D461646014601D066
:104FD000601E00E00020CDE90010064B6A4629461D
:104FE000304600F081F9002C02D0009A00211170A7
:104FF0007CBD0000EF590008490050EAC12018BFED
:1050000004204A0D18BF40F0010040F2FF72B2EBDD
:10501000515F08BF40F00200012808BF052070471B
:105020004100080218BF04200A0E18BF40F001001A
:105030004FF07F4232EA010108BF40F00200012830
:1050400008BF052070470907090E002804DB00F19E
:10505000E02080F80014704700F00F0000F1E0201D
:1050600080F8141D70472DE9F0414F1E00EBC70179
:105070000446D1E9000115461E4637F006020DD060
:105080002A463346FBF701FA7F1E04EBC703D3E938
:105090000023FBF753F937F00602F1D1022F25D098
:1050A000042F13D0062F18BFBDE8F0812A463346DF
:1050B000FBF7EBF9D4E90A23FBF740F92A4633461C
:1050C000FBF7E3F9D4E90823FBF738F92A4633461E
:1050D000FBF7DBF9D4E90623FBF730F92A46334620
:1050E000FBF7D3F9D4E90423FBF728F92A46334622
:1050F000FBF7CBF9D4E90223FBF720F92A46334624
:10510000FBF7C3F9D4E90023BDE8F041FBF716B97A
:105110000122FBF79BBAFBF711B90000024A0020FD
:105120001107FBF793BA000001FDFFFFFBF73EB844
:105130006FF05E010807FBF7E5BC02E008C8121F2C
:1051400008C1002AFAD170477047002001E001C170
:10515000121F002AFBD17047014908607047000008
:10516000080100202DE9FF5F82B00021DDE9043055
:10517000020DDDF840B0034318D044F61050A2F2FF
:10518000FF3242431514119801281FD0A5EB0B00E4
:10519000401C5FEA000A4FF000064E4FDFF83891DE
:1051A000B046504615D5CAF1000413E01198012409
:1051B0004AA3012801D16FEA0B010298119AC0E9B4
:1051C0000031C0E9024206B0BDE8F09FCBF100001B
:1051D000DFE704460021404A491842EB0450CDE97C
:1051E000001012E0E00707D032463B4640464946F1
:1051F000FBF74BF98046894632463B461046194636
:10520000FBF743F906460F466410002CEAD1DDE9AE
:105210000401DDE90023BAF1000F06DAFBF735F9E6
:1052200042464B46FBF731F905E0FBF7A0F9424651
:105230004B46FBF79CF904460E460022284BFBF731
:10524000A1FA03D84FF0FF30014607E00022254BBA
:1052500020463146FBF772F8FBF729FC102409E0E1
:10526000002C0ADB0A220023FBF7EAFA039B303208
:105270001A55641E50EA0102F2D1641C039AC4F16B
:1052800011031444119A012A03D0012208430DD1BD
:105290000AE0084304D000204FF0110B119072E790
:1052A000A3EB0B056D1E0DE05B4504DD4FF0000226
:1052B00005F1010504E003DA4FF00002A5F1010554
:1052C000002AECD002981199C0E90231C0E90045EA
:1052D00079E70000000014400000F03F30000000BB
:1052E0000000F0430000E03F2DE9FF4F95B09A46E3
:1052F000884606460025EEE1252877D1002427467A
:10530000F94A0121039400E0044316F8013F203BD1
:1053100001FA03F01042F7D130782A2811D06FF04B
:105320002F033078A0F13002092A16D8039A44F0EE
:10533000020402EB820203EB42021044761C03904B
:10534000EFE758F8042B0392002A03DA504244F4A2
:105350000054039044F00204761C30782E2816D1B5
:1053600016F8010F44F004042A280DD06FF02F0224
:105370003078A0F13003092B09D807EB870302EB43
:105380004303C718761CF3E758F8047B761C307883
:105390006C280FD006DC4C2817D068280DD06A285E
:1053A00014D104E0742810D07A280FD10DE044F411
:1053B00000140AE044F4801401E044F440147278CC
:1053C000824202D104F58014761C761C307866285F
:1053D0000BD013DC582877D009DC002875D045287D
:1053E000F6D04628F4D047281AD193E118E0632874
:1053F00035D0642879D0652812D18BE1702873D01C
:1054000008DC6728F1D069286FD06E280DD06F288E
:1054100006D1ACE073282CD0752874D0782853D0EE
:105420005246179990476D1C54E1C4F3025002286C
:1054300009D003280DD0D8F8001004280DD00D6035
:1054400008F1040846E1D8F80010EA17C1E9005253
:10545000F6E7D8F800100D80F2E70D70F0E718F8C5
:10546000041B8DF8001000208DF80100EB46012090
:1054700003E058F804BB4FF0FF3061074FF0000124
:1054800002D40DE009F101018946B9420FDA8145E4
:10549000F8DB1BF809100029F4D108E009F101013B
:1054A00089468142FADB1BF809100029F6D10398DE
:1054B0005346A0EB090721463846179A00F080FAB8
:1054C000284400EB090507E044E008E10DE01BF883
:1054D000010B524617999047B9F10109F7D253468B
:1054E00021463846179AF2E039E00A21C4F3025205
:1054F0004FF0000B0091022A06D058F8040BC11798
:10550000032A09D00AE023E008F1070020F007028F
:10551000F2E80201904605E000B2C117042A01D169
:1055200040B2C117002906DA0A460021404261EB69
:1055300002012D2202E0220504D52B228DF8042041
:10554000012203E0E20701D02022F7E7914657E06D
:105550000A2100E010214FF0000B00910BE0102118
:105560004FF0000B44F004040827009103E00820EA
:105570004FF0000B0090C4F30252022A05D058F8F5
:10558000040B0021032A08D008E008F1070020F0EE
:105590000702F2E80201904603E080B2042A00D13B
:1055A000C0B24FF0000922072AD53278702A07D0FE
:1055B000DDF800C08CF0100C5CEA0B0C05D00EE09E
:1055C00040228DF80420012208E050EA010306D0B1
:1055D00030238DF804308DF8052002229146009B7F
:1055E00083F0080353EA0B030AD150EA010201D108
:1055F000620705D530228DF804204FF001097F1E87
:105600003278582A04D039A20C920CAA02920BE0EC
:105610003BA2F9E75B46009AFBF712F90C9B9B5CF7
:10562000029A521E0292137050EA0102F2D10298BD
:1056300004A9081A00F1200B600702D524F4803475
:1056400000E001275F4502DDA7EB0B0000E0002032
:1056500000EB0B01009003984944401A0390E003CB
:1056600006D453462146179A039800F0A9F9054439
:10567000002706E001A85246C05D179990476D1CAF
:105680007F1C4F45F6DBE0030CD553462146179AA5
:10569000039800F095F9054404E03020524617992C
:1056A00090476D1C0099481E00900029F5DC08E029
:1056B0000298029952460078491C02911799904726
:1056C0006D1CBBF10001ABF1010BF1DC5BE100F003
:1056D00065F90544761C307800287FF40DAE19B0CA
:1056E0002846BDE8F08F0000092801003031323330
:1056F000343536373839616263646566000000000E
:1057000030313233343536373839414243444546F7
:1057100000000000600700D4062708F1070020F011
:105720000700F0E80223804603F0004C5FEA0C001B
:1057300001D097A009E0200501D596A005E0E0077B
:1057400001D095A001E0AFF24C001390307823F027
:10575000004365280CD006DC452809D046281DD01A
:1057600047287FD13BE0662818D067287AD136E0F9
:105770000021112F01DB112000E0781CCDE9000190
:1057800004A90CA8FFF7EEFCDDE90D010C9A4FF01F
:10579000000B07F10109109200914EE04FF000401C
:1057A0000097CDE9011004A90CA8FFF7DBFCDDE9A7
:1057B0000D020C9B0F994FF0000B91461093009235
:1057C00011B9791C00EB0109B7EB090003D4C0F152
:1057D000FF3B07F10109A9EB0700019042E0012F0F
:1057E00000DA01270021112F01DD112000E03846E9
:1057F000CDE9000104A90CA8FFF7B4FCDDE90D0117
:105800000C9A00914FF0000BB946109221070FD46B
:10581000009A4A4503DA914601E0A9F10109B9F17C
:10582000010F05DD109AA9F10101515C3029F4D076
:10583000B84202DA10F1040F03DA0121CDE90110B8
:1058400010E0002803DC8344A9EB000102E0411CC6
:10585000494500DD8946A0EB0B00401C01904FF04C
:1058600000400290200705D40198484502DB4FF024
:10587000FF30019000208DF84B0002980DF14B078E
:10588000B0F1004F25D002200C902B200D900298F3
:1058900000280CDA404202902D200D9007E00A21EA
:1058A0000298FAF7B7FF3031029007F8011D0C9902
:1058B000481E0C900029F2DC02980028EFD1791ED6
:1058C0000D980870307800F0200040F0450007F88F
:1058D000020D11A8C01BC01D02901398007800B1E2
:1058E000012000EB0901019801EBE07102980144ED
:1058F0000398401A401E0390E00306D45346214605
:10590000179A039800F05CF805441398007818B1D2
:105910005246179990476D1CE00323D55346214604
:10592000179A039800F04CF805441BE0BBF1000FF8
:1059300007DB0098584504DD1098179910F80B0004
:1059400001E0179930205246904701980BF1010B66
:10595000401E05F10105019004D12E2052461799F1
:1059600090476D1CB9F10001A9F10109DEDC05E0E9
:1059700017F8010B5246179990476D1C0299481E63
:1059800002900029F4DC53462146179A03989EE6BC
:105990002D0000002B000000200000002DE9F04148
:1059A000044600251E461746880404D405E03946FF
:1059B0002020B0476D1C641EF9D52846BDE8F08153
:1059C0002DE9F041044600251E469046C80301D546
:1059D000302700E02027880404D505E041463846FA
:1059E000B0476D1C641EF9D52846BDE8F0814A68B1
:1059F000002A06D00A68531C0B6010704868401ECD
:105A0000486070470A68531C0B60107070470000B4
:105A10002DE9F84F04460D4621F0004000917349EE
:105A2000814211DC7249884201DC06D12CB120464A
:105A30002946BDE8F84FFFF76BBB6E48002DCCBF81
:105A40006D496E49BDE8F88F6D49814211DD6D49A0
:105A50008142D8BF4FF0FF366DDD20462946FFF763
:105A6000CBFA042808BFFFF759FB20462946BDE8BA
:105A7000F88F6549654F25F00045814233DD644963
:105A8000814219DD002632464FF0804320462946E8
:105A9000FAF754FC80468A46012220462946FAF746
:105AA000D5FD00223B46FAF7EAFC42465346FAF798
:105AB0005EFD04460D463EE001260022BA463B4606
:105AC00020462946FAF73AFC80460F460022534604
:105AD00020462946FAF7D3FC42463B46FAF747FDF3
