:020000040800F2
:10000000480B002005010008333B000809240008C4
:10001000313B00089D090008353E00080000000043
:10002000000000000000000000000000373B000856
:10003000E309000800000000353B0008393B0008D8
:100040001F0100081F0100081F0100081F01000810
:100050001F0100081F0100081F0100081F01000800
:100060001F0100081F0100081F0100081F010008F0
:100070001F0100081F010008A10900081F01000856
:10008000AD0900081F0100081F0100081F0100083A
:100090001F0100081F0100081F0100081F010008C0
:1000A0001F0100081F0100081F0100081F010008B0
:1000B0001F0100081F0100081F0100081924000883
:1000C0000D2400081F0100081F0100081F0100087F
:1000D0001F010008293E00081F0100081F01000839
:1000E0001F0100081F0100081F010008DFF810D0E1
:1000F00000F042FC00480047354C0008AFF3008098
:10010000480B00200648804706480047FEE7FEE708
:10011000FEE7FEE7FEE7FEE7FEE7FEE7FEE7FEE7B7
:100120009B3B0008ED000008202A04DB203A21FA5E
:1001300002F00021704721FA02F3D040C2F1200200
:100140009140084319467047D2B201E000F8012BF4
:10015000491EFBD270470022F6E710B513460A4647
:1001600004461946FFF7F0FF204610BDF0B480EAC0
:100170000102D40F4200B2EB410F02D20246084600
:1001800011464A0042D0C30DDDB2C1F3C752AD1AC9
:10019000202D35DAC1F3160141F4000204B15242B8
:1001A000C5F1200602FA06F12A411044B3EBD05FF4
:1001B00023D0C4B1012DA0EBC35009DCF0BC4FF03B
:1001C000004202EAC352DBB200F5000000F0DFBAE1
:1001D000400000F1807000EBC350A0F1807040EA55
:1001E000D170490009E0490841EAC071A0EBC35051
:1001F00000F50000400800EBC350F0BC00F0BEBAB0
:100200006142012202EB4101001BF6E7F0BC70479E
:1002100081F00041AAE780F00040A7E730B480EA0F
:10022000010202F0004530F0004221F0004013D0FE
:1002300090B1C30DD40DC2F31601C0F31600E41A39
:1002400041F4000140F400027D34914201D3641C6A
:1002500000E04900002C02DA30BC002070474FF467
:1002600000000023914201D3891A034340084FEA5A
:100270004101F7D151B1914202D14FF0004105E067
:1002800002D24FF0010101E06FF0010103EBC45015
:10029000284430BC00F072BA2DE9FE4F804681EA56
:1002A0000300C00F0C46009021F0004123F00045F0
:1002B000B8EB0200A94105D24046214690461C46B3
:1002C0000B46024623F00040104347D0270DC7F3EA
:1002D0000A00C3F30A510290401A019040286BDAD9
:1002E000C3F3130040F4801B0098924620B1002312
:1002F000D2EB030A63EB0B0B01985946C0F14002A5
:10030000504600F01AFA06460D4650465946019AE4
:1003100000F022FA10EB08006141002487EA115234
:1003200084EAE7731A4340D0009A62B3019A012A23
:100330004FEA075215DC001B61EB02014FF000424F
:1003400002EA0752CDE90042001C41F58011324615
:100350002B4600F059FA03B0BDE8F08F4046214625
:10036000F9E7001B61EB0201001C41F58013001846
:100370005B412018A2F5001747EB030140EAD57056
:10038000B6196D4111E06D084FEA360645EAC075B1
:100390004FEA0752001B61EB0201001C41F580117E
:1003A00049084FEA30000019514132462B4603B04C
:1003B000BDE8F04F00F019BA009801224000002378
:1003C000D0EB020263EBE073009821464FEAE07441
:1003D000B8EB000061EB0401E9E783F000435BE761
:1003E00081F0004158E72DE9FE4F81EA030404F053
:1003F000004421F0004100944FF0000B23F0004333
:1004000050EA01045ED052EA03045BD0C3F30A54FD
:10041000C1F30A552C44A4F2F3340194A0FB025416
:10042000C1F3130141F48011C3F3130343F48013A8
:1004300001FB024400FB034E840A970A44EA8154FC
:1004400047EA8357A4FB076802958D0A05FB0785D9
:100450004FEA932C04FB0C542705029D4FEA0658E3
:1004600047EA1637B5EB08056EEB070C870E920EC0
:1004700047EA811742EA8312A7FB0201B6EB0B01A0
:1004800064EB00042B0D43EA0C335E1844EB1C5064
:10049000DA465146E7FB0201C5F313044FEA0B337A
:1004A00043EA14534FEA0432019C43EA0603A4F1E1
:1004B0000C040294009CCDE900B400F0A5F903B04F
:1004C000BDE8F08F00200146F9E72DE9F04D81EA03
:1004D000030404F0004B21F0004514464FF0000ADD
:1004E00023F0004150EA050220D054EA01021DD059
:1004F000C5F30A570246C5F31303C1F31300C1F352
:100500000A5640F4801543F48013A7EB0608101B2D
:10051000D64608F2FD3873EB050002D308F1010856
:1005200001E092185B41B8F1000F03DA00200146A8
:10053000BDE8F08D00204FF48011064684460EE0A1
:10054000171B73EB050705D3121B63EB050306436B
:100550004CEA010C49084FEA300092185B4150EA1E
:100560000107EDD152EA030012D082EA040083EAC7
:100570000501084305D0101BAB4106D20122002320
:1005800006E000224FF0004302E06FF0010253103A
:100590001AEB06004CEB085110EB0A0041EB0B0183
:1005A000BDE8F04D00F021B970B521F000430343E0
:1005B0000CD0C1F30A550024D5EB040564EB040309
:1005C000D617AD1AB34102DB0020014670BD2018DA
:1005D00041EB025170BDC10F80EAE0700844CA07C8
:1005E0009623002100F0D3B80EB5C10F80EAE07069
:1005F0000844CA07002140F233438DE80E000A4642
:100600000B4600F001F903B000BD0EB540F23341D6
:1006100002910021CDE900110A460B4600F0F4F8E2
:1006200003B000BD3EB5CA17CB0F00245040514067
:10063000C0186141DA0740F233430094CDE9012349
:100640002246234600F0E0F803B030BD30B5041E6A
:1006500071F1000404DB4FF00044404264EB0101FF
:10066000141E73F1000405DB1C464FF00043524298
:1006700063EB04038B4208BF824230BD30B5041ED9
:1006800071F1000404DB4FF00044404264EB0101CF
:10069000141E73F1000405DB1C464FF00043524268
:1006A00063EB0403994208BF904230BD30B50B465E
:1006B000014600202022012409E021FA02F59D4292
:1006C00005D303FA02F5491B04FA02F52844151E66
:1006D000A2F10102F1DC30BD2DE9F05F05460020FA
:1006E00092469B4688460646814640241BE02846A3
:1006F000414647462246FFF717FD53465A46C01A61
:10070000914110D311461846224600F016F82D1AD2
:1007100067EB01084F4622460120002100F00DF84A
:1007200017EB00094E41201EA4F10104DFDC48460E
:1007300031462A464346BDE8F09F202A04DB203A92
:1007400000FA02F1002070479140C2F1200320FA24
:1007500003F3194390407047202A06DBCB17203A59
:1007600041FA02F043EAE07306E041FA02F3D040B6
:10077000C2F1200291400843194670470029A8BFE2
:100780007047401C490008BF20F00100704710B4BA
:10079000B0FA80FC00FA0CF050EA010404BF10BC6F
:1007A000704749B1CCF1200421FA04F411FA0CF19C
:1007B00018BF012121430843A3EB0C01CB1D4FEAD5
:1007C00000614FEA102042BF002010BC704700EBD0
:1007D000C35010440029A4BF10BC7047401C4900FE
:1007E00008BF20F0010010BC704710B5141E73F153
:1007F000000408DA401C41F1000192185B411A43E1
:1008000001D120F0010010BD2DE9F04D92469B462C
:1008100011B1B1FA81F202E0B0FA80F220329046D2
:10082000FFF78BFF04460F4640EA0A0041EA0B013E
:1008300053465A46084313D0114653EA010019D0D3
:10084000C8F140025046FFF76FFC05460E46504681
:1008500059464246FFF771FF084305D0012004E0E6
:1008600020463946BDE8F08D0020054346EAE07693
:100870002C4337430A986305E40AA0EB08000022E2
:10088000FD0A44EA47540A3002D500200146E9E750
:10089000010510196941DDE9084500196941BDE804
:1008A000F04DA2E72DE9F04D00231A461B1A8A41AC
:1008B00003DB00200146BDE8F08DC1F30A52C1F30D
:1008C000130141F480154FF0000BD10702D100183D
:1008D0006D41521E0027044640F2FF11384601EBDD
:1008E000620A3E468046024600204FF48011FFF720
:1008F0001BFCC2197141BB1846EB0100B4EB030CA1
:1009000075EB000C04D3E41A65EB000517460E46A0
:10091000241908F101006D4180463428E3DDF919FE
:1009200046EB0600091BA84103D24FF0FF321346E5
:1009300001E0002213461BEB070046EB0A51BDE81D
:10094000F04DFFF752BFC1F30A52C1F3130140F259
:10095000FF3341F480119A4202DA002001467047C9
:1009600040F233439A42A2F2334202DC5242FFF792
:10097000DBBBFFF7E2BE0000064C074D06E0E06877
:1009800040F0010394E8070098471034AC42F6D3D6
:10099000FFF7B0FBE860000808610008FEE7000010
:1009A000014800F095B8000000020020014800F066
:1009B0008FB800007401002030B590F84050012439
:1009C000AC40C56B6C60046863604368102B0368BF
:1009D00003D099600068C26030BD9A600068C16051
:1009E00030BD704772B6FEE710B590F821100022B6
:1009F000022905D00421816380F82020012010BD48
:100A000001680B6823F00E030B6001680B6823F08C
:100A100001030B6090F84030C46B012101FA03F32D
:100A2000636080F8211080F82020104610BD00007F
:100A300010B590F821100024022903D0042181630D
:100A400001243DE001680A6822F00E020A60016894
:100A50000A6822F001020A601A4A0168914201D133
:100A6000012121E0174A1432914201D110211BE0EB
:100A7000144A2832914201D1891515E0114A3C32BD
:100A8000914201D189140FE00E4A5032914202D1B5
:100A90004FF4803108E00B4A6432914202D14FF4A6
:100AA000801101E04FF08071064A083A516001213F
:100AB00080F82110002180F82010416B01B1884797
:100AC000204610BD0800024090F821007047000049
:100AD0002DE9F05FC16B0C6801680B68D0F840C06D
:100AE000042202FA0CF2494DDFF824A1494E4A4F84
:100AF000DFF828B1DFF828E122422CD05A072AD5A6
:100B00000A68920603D40A6822F004020A600168A7
:100B1000A94201D1042219E0514501D1402215E03A
:100B2000B14202D14FF4806210E0B94202D14FF4D9
:100B300080420BE0594502D14FF4802206E0714516
:100B400002D14FF4800201E04FF080622F49083952
:100B50004A60C16A3BE04FF0020808FA0CF818EA54
:100B6000040F4FF000094FF0010235D05FEA83789F
:100B700032D50B689B0605D40B6823F00A030B6083
:100B800080F821200168A94201D1022219E05145D3
:100B900001D1202215E0B14202D14FF4007210E0E1
:100BA000B94202D14FF400520BE0594502D14FF443
:100BB000003206E0714502D14FF4001201E04FF01F
:100BC0000072124908394A6080F82090816A002931
:100BD0001AD0BDE8F05F0847082505FA0CF5254254
:100BE00012D01B0710D50B6823F00E030B6090F892
:100BF0004010C36B02FA01F15960826380F8212032
:100C000080F82090016BE2E7BDE8F09F0800024009
:100C10001C000240300002404400024058000240E4
:100C20006C00024030B528B308C813491422194497
:100C3000B1FBF2F18900C163104981630221417760
:100C40001A6843F6F0718A43D0E900142143D0E9D1
:100C500002452C43214304692143446921438469AB
:100C6000214311431960002141630122427701773A
:100C7000084630BD012030BDF8FFFDBF0000024036
:100C800070B5044690F82000002501280CD0012002
:100C900084F8200094F821600020012E06D084F80A
:100CA00020000225284670BD022070BD022684F86F
:100CB0002160A0632068066826F0010606602046D1
:100CC000FFF77AFEE06A00282068016802D041F050
:100CD0000E0106E021F0040101602068016841F086
:100CE0000A0101602068016841F001010160D9E753
:100CF00070B5044600F004F90546601C02D00448B3
:100D00000078044400F0FCF8401BA042FAD370BD08
:100D1000000000202DE9F84FDFF8B8910024A9F178
:100D2000040B23460F2709F1040AABF1040EC9E0B6
:100D30000125A5402A40AA427DD1674ED1F804C0C2
:100D4000ACEB0608B44532D014DCBCF1030F3AD04A
:100D500009DCBCF1000F2AD0BCF1010F1CD0BCF1A2
:100D6000020F31D11DE0BCF1110F17D0BCF1120FF1
:100D70002AD119E0B8F5881F19D006DCB8F5803FF4
:100D800015D0B8F5801F1FD111E0B8F5001F0ED0A7
:100D9000B8F5041F18D10AE0CB6815E0CB681B1D1D
:100DA00012E0CB6808330FE0CB680C330CE08B68A3
:100DB0002BB1012B4FF0080303D0456104E004235D
:100DC00002E0056100E00023FF2A01D8064601E0A9
:100DD00000F104064FEA840501D9A5F12005D6F8F3
:100DE000008007FA05FC28EA0C0803FA05F548EA32
:100DF0000508C6F800804D68ED0062D5374DAE6934
:100E000046F00106AE61AD6924F0030605F0010568
:100E10000095334D06EB050CDCF80850A607360F9D
:100E200007FA06F825EA0805DFF8B880404503D13F
:100E30004FF0000817E044E0DFF8AC80404502D1F5
:100E40004FF001080FE0DFF8A480404502D14FF0D9
:100E5000020808E0DFF89880404502D14FF003080F
:100E600001E04FF0040808FA06F848EA0508CCF853
:100E700008804D68D9F80060ED024D4601D5164353
:100E800000E096432E604D68DAF80060AD025546EA
:100E900001D5164300E096432E604D68DBF80060F4
:100EA000AD035D4601D5164300E096432E604D68C4
:100EB000DEF80060ED03754601D5164300E0964369
:100EC0002E60641C0D682A46E5407FF431AFBDE812
:100ED000F88F0000080401400000111000100240CB
:100EE0000000014000080140000C014000100140DA
:100EF000001401400AB1016170470904FBE70000DA
:100F0000014880687047000000000020704770476B
:100F10002DE9F041016804464A694E6890F83E00A8
:100F20000025D743FA050BD4F243D20508D46FF459
:100F3000807201254A6121680A6842F400420A6011
:100F4000B90508D4F143C90505D422686FF40071CE
:100F500045F002055161790525D4F143C90522D434
:100F6000638D94F83D10226B202808D13BB92129CC
:100F700010D029290ED0282901D1212A0AD022688F
:100F80006FF48061516145F00405102806D04028B7
:100F900004D008E0204601F0D3FF04E02068016897
:100FA00041F400710160380508D4F043C00505D450
:100FB00021686FF4006045F008054861002D07D0F6
:100FC000206C284320642046BDE8F04101F034BB8A
:100FD000BDE8F0812DE9F047026800215368C66A38
:100FE00090F83E4090F83D50102C12D0402C10D07C
:100FF000046C002C7DD05469E443A6077AD4DE4308
:10100000B60577D4036C03B19169BDE8F04701F0F0
:1010100073BF976951694FF42A0CC9435FEAC178DD
:101020004FF02A4904D066452AD04E4528D010E01A
:10103000DE43B6050DD4C16A614501D1012103E04B
:10104000C16A494501D10821C162BDE8F04701F0FC
:10105000E7BD0E0716D4DE43B60513D4416CC9B202
:101060001161416B09B1896A29B9816B002907D0E7
:10107000896A002904D00068416841F40061416038
:10108000BDE8F0878E0706D4DE43B60503D4BDE87D
:10109000F04701F019BDFE43526876074FEA02524D
:1010A0001DD4002AECDB0A0608D4DA43520505D425
:1010B000490705D5BDE8F04701F0AABC4907DFD4D0
:1010C000D9438905DCD4212D05D0402CD8D1BDE8E9
:1010D000F04701F0EBBDBDE8F04701F057BC002A36
:1010E000CEDB4A060BD4DA43520508D4490708D5AB
:1010F00001E00DE00EE0BDE8F04701F0CDBB49078F
:10110000BED4D9438905BBD4BDE8F04701F057BB35
:10111000916970E7E10606D4D943890503D4BDE897
:10112000F04701F055BF2821212D27D0292D25D0AA
:10113000650655D4DD436D0552D4640752D590F849
:101140003D30448D002C9BD01269446A2270426A63
:10115000521C4262428D521E4285428D002A8FD11E
:101160002A2B8DD10268536823F4806353602222B6
:10117000026380F83D1000F02BFC81E7250623D4A4
:10118000DD436D0520D4640720D590F83D30448DB3
:10119000002CF2D0446A24781461426A521C4262E4
:1011A000428D521E4285428D002AE6D1292BE4D180
:1011B0000268536823F4806353602122026380F83D
:1011C0003D1000F006FC5BE76107D6D4D9438905E2
:1011D000D3D4418D0029D0D0416A097811610AE049
:1011E0006107CAD4D9438905C7D4418D0029C4D029
:1011F0001169426A1170416A491C4162418D491E60
:1012000041853DE77047000070B5040025D094F893
:101210003D00002520B984F83C50204600F058FBE2
:10122000242084F83D002068016821F0010101605C
:101230002068016841F4004101602068016821F4E0
:101240000041016000F0F4FC4D4A6168914201D810
:101250004C4900E04C49884201D2012070BD4B4905
:101260002368B0FBF1F15E6826F03F060E435E6036
:101270006368934206D94FF4967359434FF47A73D7
:10128000B1FBF3F12368491C1E6A26F03F06314387
:1012900019626168914210D84900401EB0FBF1F21A
:1012A000521CC2F30B02042A01D2042022E0B0FB3C
:1012B000F1F0401CC0F30B001CE0A268F2B301EB9C
:1012C000C10303EB0116431EB3FBF6F35B1C43F4AF
:1012D00080431B0549D092B301EBC10202EB01111F
:1012E000401EB0FBF1F0401CC0F30B0040F4804006
:1012F00040F400402168CA694CF6FF739A431043DA
:10130000C861D4E9071001432068026822F0C002D6
:1013100011430160D4E9030101432068826848F267
:10132000FF339A4311438160D4E9050108432168E2
:10133000CA6822F0FF021043C86001E00EE016E028
:101340002068016841F0010101602564202084F8D3
:101350003D00256384F83E50002070BD01EB41063E
:10136000431EB3FBF6F35B1CB3E70120C2E701EBBE
:101370004101401EB0FBF1F0401CC0F30B00B7E789
:10138000A086010080841E0000093D0040420F003D
:101390007047704770477047044900680968884281
:1013A00002D103490020087070470000CC000020E3
:1013B000100000202DE9FF4F83B00025DDE91079F2
:1013C0009A4693460446DDF848800095FFF798FD5D
:1013D000064694F83D0020287CD119230122884933
:1013E0002046009601F0CEFE0028F5D194F83C008E
:1013F00001286FD0012084F83C0020680168C907EB
:1014000003D1016841F0010101602068016821F405
:1014100000610160222084F83D00402084F83E00F5
:1014200025646762A4F82A90608D20857548E06283
:10143000CDE9008653465A462046049901F08AFCBD
:1014400000287CD1208DDFF8C091202768B10128C9
:1014500014D00228206801681ED041F48061016028
:101460002068416980690090BCE020684169816919
:101470000091016841F400710160B3E020680168E7
:1014800021F48061016072B6206841698169009130
:10149000016841F400710AE041F40061016072B634
:1014A0002068416981690091016821F480610160CF
:1014B00062B697E0032865D801280CD0022843467D
:1014C0004FF000024946204600960BD001F05AFE2C
:1014D000A8BB0CE091E032464146204601F0F8FE00
:1014E00068BB72E001F04EFE48BB72B633E0206884
:1014F000016821F48061016072B620680069616A48
:101500000870606A401C6062208D401E2085608DDE
:10151000401E60853D4846F2A8110068B0FBF1F01E
:10152000C0EBC00000EB80000090401E009007D090
:1015300020684069C04340070DD50098F5E727E0D3
:1015400044F8305F6773A573206940F02000206184
:1015500062B625731CE02068016841F400710160E7
:1015600020680069616A0870606A401C6062218DB1
:10157000491E2185618D491E618562B62168096910
:10158000017026E032464146204601F0A1FE18B126
:10159000012007B0BDE8F08F20680069616A08701B
:1015A000606A401C6062208D401E81B22185608D82
:1015B000401E608520684269D243520712D4032935
:1015C00003D1016821F48061016020680069616ACB
:1015D0000870606A401C6062208D401E2085608D0E
:1015E000401E6085208D00287FF464AF84F83D7034
:1015F00084F83E5084F83C50CBE70220C9E7000055
:10160000020010000000FFFF040001000C00002099
:101610002DE9FF4F83B09A46DDE9119793460446C2
:10162000DDF84080FFF76CFC054694F83D0020286B
:101630007FD11923012240492046009501F0A2FDE7
:10164000002876D194F83C00012872D0012084F85B
:101650003C0020680168C90703D1016841F001011D
:1016600001602068016821F400610160212084F894
:101670003D00402084F83E0000262664C4F8248003
:10168000A4F82A90608D20852C48E062CDE9007591
:1016900053465A462046049901F0DAFB70B930E00F
:1016A0002A463946204601F04BFE58B1206C0428EA
:1016B00004D12068016841F400710160012007B085
:1016C000BDE8F08F606A216800780861606A401C9C
:1016D0006062218D491E89B22185628D521E62850C
:1016E00022685369DB435B070BD469B10078106152
:1016F000606A401C6062208D401E2085608D401E07
:101700006085208D0028CBD12A463946204601F03D
:101710000DFD0028CAD154F83D0B016841F4007159
:101720000160202004F81E09E67766770020C6E7EE
:10173000FFE70220C3E70000020010000000FFFFE7
:101740002DE9FC5F0025984691468A460446DDF85F
:1017500030B00095FFF7D4FB074694F83D002028F1
:1017600028D1574846F2A81120260068B0FBF1F0B6
:1017700000EBC00101EB001000900098401E0090AB
:1017800010D020688069C0438007F6D594F83C00EB
:1017900001280FD0012084F83C0020680168C907A7
:1017A0000BD00EE044F8305F6673A573206940F0FB
:1017B000200020610220BDE8FC9F016841F001018A
:1017C00001602068016821F400610160212084F833
:1017D0003D00402084F83E002564C4F824B00D98F4
:1017E0006085608D20853748E062C4F844A0C4F865
:1017F0004890C4F84C802565208DE8B3606BF0B14B
:1018000031498162616B31480863606BC562606B0E
:1018100045632268238D1032616A606BFFF730FAEE
:10182000B0B184F83D6084F83E5054F8400F40F069
:10183000100000BF44F8040925700120BBE784F8BC
:101840003D6084F83E5054F8400F40F08000F1E7CE
:101850002320CDE9000743464A465146204601F081
:10186000F7FA98B1606BFFF7E3F8606B8562206868
:10187000016821F4806100E019E00160258565853B
:101880002068016821F001010160D6E72068416904
:101890008169009184F83C50416841F48071416055
:1018A0002068416841F400614160002083E784F8CA
:1018B0003D6084F83E5054F8400F40F04000B9E7D6
:1018C0000C0000200000FFFF17250008E12400089D
:1018D000F0B585B000250095019502950395064663
:1018E000344F0268344C12200321344BBA4244D1A5
:1018F000A26942F00802A261A269039102F0080203
:1019000004920A02CDE9002069461846FFF702FA60
:101910002B48416841F0E06141F002014160E0691B
:1019200040F40010E061E069274C00F400100490DE
:10193000244820601020C4E901058020C4E9030583
:101940006561A5612046E561FFF76CF908B1FFF715
:1019500049F8746300220A211F20666200F0A0F893
:101960001F2000F08FF800220A21202000F098F8B4
:10197000202000F087F805B0F0BD144DAA42FAD13E
:10198000A26942F00802A261A269039102F0080272
:1019900004924FF44062CDE9002069461846FFF7F3
:1019A000B9F9E06940F48000E061E06900F480008A
:1019B0000490E0E70054004000100240000C014099
:1019C000000001406C0002407401002000580040FB
:1019D00070477047024881680278114481607047FF
:1019E00000000020074810B5016841F010010160B7
:1019F000032000F075F80F2000F006F800F024F83E
:101A0000002010BD0020024070B50D4D04464FF47B
:101A10007A712878B1FBF0F00A490968B1FBF0F05F
:101A200000F0DCFA48B9102C07D200222146501EE3
:101A300000F036F800206C6070BD012070BD000021
:101A4000000000200C0000200C4808B5816941F01E
:101A500001018161816901F001010091C16941F0D9
:101A60008051C161C06900F0805000900448416815
:101A700021F0E06141F00071416008BD00100240BA
:101A800000000140002809DB00F01F020121914005
:101A90004009800000F1E020C0F80011704700000C
:101AA000F0B40E4B1B680C46C3F30223C3F10705C9
:101AB000042D00D90425191D072901D2002300E0B7
:101AC000DB1E012606FA05F1491E214099409E4081
:101AD000761E16403143F0BC02F0F0B90CED00E088
:101AE000064900F0070208684FF6FF03184040EA75
:101AF0000220034A10430860704700000CED00E02C
:101B00000000FA052DE9F0470F46050061D0434E6D
:101B1000306800F00700B84209D2306820F00700B2
:101B200038433060306800F00700B84251D128686F
:101B30003B4C810712D5400703D5606840F4E06054
:101B400060602878000703D5606840F460506060EA
:101B50006068A96820F0F000084360602878C0073A
:101B600028D06868012810D02168022810D0890781
:101B700000292EDA616821F0030101436160FFF75B
:101B8000BFF9804641F288390DE021688903EFE70B
:101B90008901EDE7FFF7B4F9A0EB0801494502D947
:101BA0000320BDE8F0876068696800F00C00B0EBC6
:101BB000810FEFD1306800F00700B8420BD93068D0
:101BC00020F0070038433060306800F00700B8426A
:101BD00001D00120E5E72878400705D56068E9686D
:101BE00020F4E060084360602878000706D560684C
:101BF000296920F4605040EAC100606000F038F8C4
:101C00006168084AC1F30311515CC8400649086085
:101C100006480068FFF7F8FE0020C2E700200240F7
:101C200000100240C65200080C00002004000020F2
:101C30000448054900684968044AC1F30221515C1F
:101C4000C84070470C00002000100240D652000827
:101C50000448054900684968044AC1F3C221515C3F
:101C6000C84070470C00002000100240D652000807
:101C70000E4A51680E4801F00C03042B11D0082BBA
:101C80000FD10C48C1F38343C903C05C0AD5516826
:101C9000084AC1F34041921E515C054A5043B0FBD3
:101CA000F1F07047044948437047000000100240BB
:101CB00000127A00B652000800093D002DE9F84FE5
:101CC000040070D02078C04DC00749D06868C0F3C8
:101CD0008100012807D06868C0F38100022809D17B
:101CE0006868C00306D52868800339D56068002875
:101CF000E7D035E06068B0F5803F0BD010B1B0F5AB
:101D0000A02F11D0286820F480302860286820F4A3
:101D1000802002E0286840F480302860606890B13C
:101D2000FFF7EEF806460AE0286840F480202860B5
:101D3000F0E700BFFFF7E4F8801B642873D8286839
:101D40008003F7D50CE0FFF7DBF8064605E000BF9F
:101D5000FFF7D6F8801B6428F0D828688003F7D4F2
:101D600020789A4E80074FF001094FF0000839D5CE
:101D7000686810F00C0F07D06868C0F38100022873
:101D800009D16868C00306D42868800714D5206983
:101D9000012808D110E02069B0B1C6F80090FFF723
:101DA000AFF8074605E00AE1FFF7AAF8C01B0228D2
:101DB000C4D828688007F7D52868616920F0F80042
:101DC00040EAC10028600DE0C6F80080FFF798F8EF
:101DD000074604E0FFF794F8C01B022823D82868C0
:101DE0008007F7D4207800072CD57948A169D9B1AC
:101DF000C0F80090FFF784F8074604E0FFF780F88A
:101E0000C01B02280FD8686A8007F7D571484FF4C5
:101E1000FA510068B0FBF1F0009000BF0098411E3D
:101E20000091FAD20EE080E0C0F80080FFF768F879
:101E3000074604E0FFF764F8C01B022875D8686AFB
:101E40008007F7D42078400760D5E8690027C000F4
:101E500008D4E86940F08050E861E869012700F0A3
:101E6000805000905C480168C90513D4016883461E
:101E700041F480710160FFF743F8824606E000BF3D
:101E8000FFF73EF8A0EB0A0064284ED8DBF800000C
:101E9000C005F5D5E06801280AD008B1052813D09F
:101EA000286A20F001002862286A20F0040002E07D
:101EB000286A40F001002862E06841F2883B98B14E
:101EC000FFF71EF882460BE0286A40F00400286203
:101ED000EEE700BFFFF714F8A0EB0A0159455AD806
:101EE000286A8007F6D50CE0FFF70AF8824605E07D
:101EF000FFF706F8A0EB0A0159454CD8286A80077D
:101F0000F6D41FB1E86920F08050E861E06988B339
:101F10006968C1F38101022944D00228C6F86080B3
:101F200004D0FEF7EDFF044638E034E0FEF7E8FFAA
:101F3000074604E0FEF7E4FFC01B02282BD8286800
:101F40008001F7D4206AB0F5803F05D16868A168A8
:101F500020F4003008436860D4E908010843696848
:101F600021F4741108436860C6F86090FEF7C8FF5A
:101F7000044606E025E000BFFEF7C2FF001B022872
:101F800009D828688001F7D51BE000BFFEF7B8FF2D
:101F9000001B022802D90320BDE8F88F28688001C1
:101FA000F4D40EE00128F7D06868226A00F480318A
:101FB000914204D1616A00F47010884201D001207E
:101FC000EAE70020E8E7000000100240000042427B
:101FD000800442420C0000200070004010B5401EFA
:101FE000B0F1807F01D3012010BD4FF0E02460618B
:101FF0000F21601701F062FF0020A061072020611F
:10200000002010BD70477047F8B5016804460868A5
:10201000CA684B6910F00F0F4FF0000559D003F05C
:10202000010602F49077374365D0C10705D0D1058A
:1020300003D5616C41F001016164410705D5D90701
:1020400003D0616C41F002016164810705D5D907B5
:1020500003D0616C41F004016164010707D502F00F
:102060002001314303D0616C41F008016164616C6F
:1020700000293AD0800604D5900602D5204601F00A
:1020800015FE20684069616CC0F38010090700D418
:1020900060B3204601F0D5FD20684069400621D597
:1020A0002068143050E8001F21F0400140E8001281
:1020B000002AF5D1E06BA8B16D494163E06BFEF7F2
:1020C000B7FC002811D0E06B416B01B0BDE8F040D7
:1020D000084783060FD593060DD52046BDE8F84086
:1020E00001F0E4BD2046FFF78EFFF8BD2046FFF764
:1020F0008AFF6564F8BD266B2023012E7CD1C606BD
:102100007AD5D60678D508684868009048694FF0B7
:102110000206400640D5E16B086840680004000CE8
:10212000E8D0A28D8242E5D9E085886920282DD0AB
:1021300020680C3050E8001F21F4807140E8001244
:10214000002AF5D12068143050E8001F21F0010169
:1021500040E80012002AF5D12068143050E8001F32
:1021600021F0400140E80012002AF5D184F8423005
:10217000256320680C3050E8001F21F0100140E872
:102180000012002AF5D1E06BFEF72EFC6663A08DED
:10219000E18D401A81B22AE0A08DE18D401A81B212
:1021A000E08D0028A6D00029A4D022680C3252E885
:1021B000000F20F4907042E80007002FF5D120684E
:1021C000143050E8002F22F0010240E80027002FD1
:1021D000F5D184F84230256320680C3050E8002F98
:1021E00022F0100240E80023002BF5D16663204660
:1021F000FFF708FFF8BDFFE705062BD5150629D523
:1022000094F841002128F5D1A068B0F5805F01D194
:102210002069B0B1206A411C2162216800784860C1
:10222000E08C401E0004000CE084E3D12068C1680B
:1022300021F08001C1602068C16841F04001C160A7
:10224000D8E7206A0088C0F308004860206A801C34
:102250002062E5E74006CDD55006CBD5CA682046BA
:1022600022F04002CA6084F8413000F0CBF8C1E7A8
:102270009D3B000870B5040004D094F8410000258F
:1022800010B106E0012070BD84F84050204600F0F7
:1022900023F8242084F841002068C16821F400510B
:1022A000C160204601F064FD2068016921F490417D
:1022B00001612068416921F02A0141612068C168FB
:1022C00041F40051C1606564202084F8410084F825
:1022D00042006563002070BD70B586B000250646DB
:1022E00000950195029503950068224988423FD1E7
:1022F0002149886940F480408861886900F4804001
:102300000490886940F00400886188691B4C00F0E3
:1023100004000490481500900220019003200390CF
:1023200069462046FEF7F6FC2015CDE90005694612
:1023300020460295FEF7EEFC124C1148206010205A
:10234000C4E901058020C4E903056561A561204653
:10235000E561FEF767FC08B1FEF744FBB4630022B9
:10236000114625206662FFF79BFB2520FFF78AFBBD
:1023700006B070BD00380140001002400008014066
:1023800044000240000200207047000070B504467F
:1023900090F84100202801D0022070BD49B342B31B
:1023A0002162A284E28400206064212384F8413009
:1023B000A56B114BAB62A56B104BEB62A56B104B81
:1023C0002B63A36B5863256813462A1DA06BFEF789
:1023D00057FC21686FF0400008602068143050E816
:1023E000001F41F0800140E80012002AF5D10020D2
:1023F00070BD012070BD0000F73B0008393C0008AB
:10240000AD3B000870477047FEE700000148FEF74B
:102410007FBD0000CC0000200148FEF7DBBD0000BE
:10242000CC00002038B5406A002190F83D202B4BAD
:1024300046F2A8141B68B3FBF4F3C3EBC30303EB2E
:10244000830300933BB15B1E009303681B689B05ED
:1024500005D5009BF6E7036C43F020030364436B50
:1024600003B19962836B03B1996203681C6824F419
:1024700080641C604185436B03B15963836B03B176
:10248000596303681C6824F001041C6090F83D4007
:102490002023602C0BD0282434EA02020FD080F8CD
:1024A0003D3080F83E1000BFFEF7ACFE38BD80F82E
:1024B0003D3080F83E100164FEF728FD38BD02680B
:1024C000136843F0010313600268136843F48063E8
:1024D0001360016380F83D40E6E700000C00002037
:1024E00010B5406A0021426B02B19162826B02B169
:1024F00091620268136823F480631360418520228F
:1025000080F83D2080F83E10016C41F0100101641C
:10251000FEF778FE10BD2DE9F041446A94F83D20A5
:1025200094F83E50E16A2068436823F440734360A6
:10253000636B002003B19862A36B03B198622123FF
:1025400033EA02074FF022060CD036EA020701D127
:10255000202D07D094F83E20002A21D0628D012A38
:1025600020D024E021684D6825F400654D60608529
:102570002820292A02D02A2A07D00CE0236384F8D5
:102580003D002046FFF725FA05E0266384F83D006C
:102590002046FFF71DFA2068416841F44071416010
:1025A000BDE8F0812268136823F480631360226819
:1025B000536823F44073536011F5803F06D0082917
:1025C00004D0B1F12A4F01D0202904D12268136828
:1025D00043F4007313602268536823F480535360FC
:1025E0002268536823F4006353606085226C1AB13B
:1025F0002046FEF707FED3E7202284F83D2094F81A
:102600003E2084F83E00402A09D0082902D0202923
:1026100000D0122020632046FEF7BBFEC0E72063F7
:102620002046FEF7B8FEBBE700684169C9430906CA
:1026300001D400210161704770B5044690F83D0057
:1026400094F83E10102901D0402906D1222804D147
:1026500021680A6822F400620A60282131EA000237
:102660004FF000054FF0200626D021684968090583
:1026700005D4602803D084F83D6084F83E5025637B
:1026800020684168090537D5416821F4006141603F
:10269000606B90F821203C49012A11D04163606BA6
:1026A000FEF7C6F938B32068016821F00101016026
:1026B00084F83D60606B1CE0256384F83D10DFE723
:1026C000A06B4163A06BFEF7B3F9A0B1206841692C
:1026D000C943490605D40069616A0870606A401CF4
:1026E00060622068016821F00101016084F83D60AA
:1026F000A06B416B884710E094F83D10602910D022
:102700004169C943490605D40069616A0870606A75
:10271000401C60622046FEF775FD206CC1071CD18D
:1027200015E084F83D6025644169C943490605D434
:102730000069616A0870606A401C60622068016814
:1027400021F0010101602046FEF7E0FBE5E781078B
:1027500003D4410701D4000704D52068416821F45F
:10276000E061416094F83D00216C49070BD52828B1
:1027700009D10648E062256384F83D6084F83E5044
:102780002046FEF705FE70BD252400080000FFFF6F
:1027900001684A69D24352050FD46FF480624A61DE
:1027A000002140F8301F202242738173026942F0F9
:1027B000040202610173012070470020704710B5C8
:1027C000C26A438D0168042B06D0438D032B08D0C9
:1027D000438D022B1DD012E04A6822F480624A60C9
:1027E0000CE04B6823F480634B60042A06D0022A75
:1027F00004D001680A6822F480620A6001680969ED
:10280000426A1170416A491C4162418D491E4185ED
:1028100010BD012A34D0102A32D0042A34D0022A22
:1028200032D00B6843F400730B6001680969436A96
:102830001970416A491C4162438D5B1E43850368E0
:102840001B690B70416A491C4162418D491E4185DB
:1028500001684B6823F440734B60202180F83D10E1
:1028600090F83E300021402B80F83E1010D0082A0E
:1028700002D0202A00D012210163FEF78AFD10BD8C
:102880000B6823F48063CFE70B6843F48063CBE7E6
:102890000163FEF780FD10BD38B590F83D10222988
:1028A00010D1C36A418D03290DD901680969426AB3
:1028B0001170416A491C4162418D491E4185418D1B
:1028C000032906D038BDC26A022A02D0012906D0E7
:1028D00029B10068416821F48061416038BD2A4A0D
:1028E00046F2A81400211268B2FBF4F202EB820255
:1028F000009202682024009D6D1E009526D0156868
:10290000AD05F8D4156825F4806515600268556832
:1029100025F4E065556002681269456A2A70426ACA
:10292000521C4262428D521E428580F83D4090F812
:102930003E2080F83E10402A21D0082B02D0202BC8
:1029400000D012210163FEF724FD38BD036C43F073
:1029500020030364536823F4E06353600268126940
:10296000436A1A70426A521C4262428D521E42856C
:1029700080F83D4080F83E10FEF744FC38BD01630E
:10298000FEF709FD38BD00000C00002010B5C26A3A
:1029900090F83D1021290BD1418D51B1416A026857
:1029A00009781161416A491C4162418D491E418586
:1029B00010BD20230021082A13D0202A11D012F59F
:1029C000803F0ED00268546824F4E0645460112201
:1029D000026380F83E1080F83D3000BFFEF7DAFC5D
:1029E00010BD0268546824F4E064546002681468FE
:1029F00044F400741460016380F83D3090F83E2088
:102A000080F83E10402AE9D1FEF7C6FC10BD000058
:102A100010B590F83D1090F83E30C26A048DB4B104
:102A2000212903D0402B11D122290FD1418DE1B3AF
:102A300090F83E10402942D0416A0268097811613D
:102A4000416A491C4162418D491E418510BD2129C1
:102A5000E8D120230021082A13D0202A11D012F512
:102A6000803F0ED00268546824F4E0645460112260
:102A7000026380F83E1080F83D3000BFFEF78AFC0C
:102A800010BD0268546824F4E0645460026814685D
:102A900044F400741460016380F83D3090F83E20E7
:102AA00080F83E10402AE9D100E002E0FEF774FC15
:102AB00010BD0068416821F48061416010BDBDE82F
:102AC000104000F0F3B8000078B590F83E50C26AAC
:102AD000046B90F83D6000230168222E73D1066DCF
:102AE0000EB9402D6FD0056D1DB90569B5F5404F84
:102AF0001BD0458D95B3468D484D012E20D0448D79
:102B0000022C4DD00C6844F480640C6001684C6861
:102B1000240579D5AA4273D0012A71D0082A6FD032
:102B2000102A6DD0202A6BD06EE04A698A69009223
:102B30000A6842F480720A60016D491C016578BD23
:102B4000AA4214D10A6822F480620A6001684A68C5
:102B5000120504D50A6822F4806217E0FFE74A698B
:102B60008A6900920A6842F400720A6050E0082AFA
:102B700010D0202A0ED0122C0AD0042A03D0022A08
:102B800001D0102AE6D10A6842F480620A603BE074
:102B9000012ADFD00A6822F480620A600168DEE759
:102BA000042A11D0022A0FD0102A0DD00C6844F448
:102BB00000640C6001684C698C6900940C6824F412
:102BC00080640C6008E025E00C6844F480640C60CC
:102BD00001684C698969009101684C68240517D522
:102BE000AA4207D0012A05D0082A03D0102A01D012
:102BF000202A0DD14A6842F480524A6008E0FFE77B
:102C00004A6842F480524A6001684A6989690091C1
:102C1000036578BD48698869009078BD0000FFFFB2
:102C200090F83E10402910D00169B1F5804F19D0BD
:102C3000016DA9B3016D012910D1416C5FF0F10262
:102C400001F4407142EAD11106E0016D0029416CA6
:102C500005D0C9B241F0010100680161704701F07F
:102C6000FE01F9E790F83D102129416C09D0C9B265
:102C700041F0010102681161416B29B1896A49B9CA
:102C800002E001F0FE01F5E7816B0029E6D0896AD8
:102C90000029E3D00068416841F400614160704759
:102CA000FFE7416CF02201F44071CBE710B590F8DA
:102CB0003D10026D4AB1026D012A14D0026D022A44
:102CC00016D0BDE81040FFF7AFBCC16C0129816C84
:102CD00002D0C1F3072108E00268C9B21161016D99
:102CE000891C016510BD816CC9B20268116123E0C5
:102CF00022291CD0428D0AB1212920D0428D002AE0
:102D0000F0D12129EED101684A6822F4E0624A60DC
:102D100001680A6842F400720A60002101632022FF
:102D200080F83D2080F83E10FEF736FB10BD0168AC
:102D30000A6842F480720A60016D491CD1E7416A59
:102D4000026809781161416A491C4162418D491E3E
:102D5000418510BD2DE9F84F0446006889460B9D5A
:102D600001689846174641F4806101602068016857
:102D700041F48071016000954FF0011B002259461B
:102D800020460A9B00F0FEF94FF4007A40B120681B
:102D90000068C00501D5C4F840A00320BDE8F88F45
:102DA000216809F0FE0008612B46284920460A9A4E
:102DB00000F030FAF0BB20684169806900902A4633
:102DC00020460A9900F0BCFA40B1206C04283AD1A0
:102DD0002068016841F40071016034E0FEB2B8F18E
:102DE000010F09D02168380A08612A4620460A994D
:102DF00000F0A6FA0028E8D1206806612A4620469D
:102E00000A9900F09DFA0028DFD12068016841F49A
:102E10008071016000950022594620460A9B00F00F
:102E2000B1F90028B3D1216809F0FF0040F001009A
:102E3000086100E007E02B46044920460A9A00F0AA
:102E4000E9F90028AAD00120A8E70000020001004B
:102E50002DE9F843044600680D46DDE9089701684E
:102E60009846164641F4807101604B4600224FF0AF
:102E700001112046009700F085F948B120680068EC
:102E8000C00502D54FF4007020640320BDE8F8832C
:102E9000216805F0FE0008613B464A461549204678
:102EA00000F0B8F988B920684169806900903A4615
:102EB0004946204600F044FA48B1206C042804D169
:102EC0002068016841F4007101600120DEE7F5B27D
:102ED000B8F1010F09D02168300A08613A46494625
:102EE000204600F02DFA0028E7D120680561002077
:102EF000CCE700000200010038B50C4690F83D20F8
:102F000000212825954302680B4605D05169916937
:102F1000009180F83C3038BD556825F480655560D7
:102F2000E243540700D50121120601D5828900E051
:102F3000028B80F83C3092B2FDF7E9FF38BD00000B
:102F40002DE9F04190F83D300446C26A0021202668
:102F50001E4F00686FF48065082A01D0202A01D135
:102F6000282B04D0212B17D04561BDE8F081E76202
:102F7000426822F4E062426020684561206802688D
:102F800022F480620260216384F83D6084F83E1080
:102F90002046FEF7FDF9E8E7E7622122226384F884
:102FA0003D6084F83E10416821F4E0614160206892
:102FB00045612068016821F4806101602046FFF7C7
:102FC00033FB2046FEF705FDCFE700000000FFFFC2
:102FD000F8B590F83D6004460068416821F4E0616E
:102FE00041602068002541690091016841F00101BC
:102FF00001602068016821F48061016020684168F7
:10300000090520D5474F222E48D02A2E46D0616B85
:10301000096849686185618D19B1216C41F004012D
:103020002164416821F400614160606BFDF74CFD53
:10303000012808D0606B4763606BFDF7F9FC10B1A5
:10304000606B416B8847608D08B320684169C94354
:10305000490708D40069616A0870606A401C6062B0
:10306000608D401E608520684169C943490608D4C7
:103070000069616A0870606A401C6062608D401E71
:103080006085608D18B1206C40F004002064206CD5
:1030900000B32046BDE8F840FFF7CEBAA16B09683F
:1030A00049686185618D19B1216C41F00401216489
:1030B000416821F400614160A06BFDF705FD012826
:1030C000C1D0A06B4763A06BFDF7B2FC0028BAD05B
:1030D000A06BB6E72A2E06D12563282084F83D0090
:1030E0002046FEF775FC94F83D10202028290DD0CD
:1030F000216B222901D0222E07D1256384F83D00BF
:1031000084F83E502046FEF763FCF8BD0649E162B4
:10311000256384F83D0084F83E502046FEF738F9D8
:10312000F8BD0000252400080000FFFF70B516461A
:103130000D4604461EE02046FFF72AFB08B1012099
:1031400070BD681C16D0FDF7DBFE801BA84200D8BE
:1031500085B920684069C04340070BD5002044F87A
:10316000300F20216173A073216941F0200121619A
:103170002073E4E720684069C0434007DBD40020A7
:1031800070BD00002DE9F047984617460D460446ED
:10319000C1F30746DDF820902AE000BFB8F1FF3FF9
:1031A00026D0FDF7ADFEA0EB0901414502D8B8F1EC
:1031B000000F1DD12068012E16D0806925EA00007D
:1031C0000004000C12D00020B84211D1002044F8B5
:1031D000300F20216173A073216941F0200121612A
:1031E00020730120BDE8F0874069E7E70120EBE7A5
:1031F0002068012E0AD0806925EA00000004000C36
:1032000006D00020B842C9D00020EBE74069F3E7C0
:103210000120F7E72DE9F047984616460D4604468B
:103220004FF000094FF0200AC1F3074723E0206860
:103230004069C043400515D42068016841F400711D
:10324000016021686FF480604861C4F8309084F8B0
:103250003DA084F83E90216C41F00401216484F883
:103260003C9021E0701C06D0FDF74AFEA0EB080060
:10327000B04203D816B1012F1FD021E02068012FE2
:1032800015D0806925EA00000004000C18D000BFAA
:1032900044F8309F84F80DA084F80E90216941F025
:1032A0002001216184F80C900120BDE8F08740697D
:1032B00025EA00000004000CEAD12068406901E022
:1032C0002068806925EA00000004000CAFD1ECE71B
:1032D0002DE9F041002590460E460446202728E0BF
:1032E0004069C043C0060CD454F8301B6FF0100086
:1032F000486144F810596777A577206A20622577DE
:1033000014E0FDF7FDFDA0EB0800B04200D886B93F
:1033100020684069C04340060BD544F8305F6773AE
:10332000A573206940F02000206125730120BDE8CD
:10333000F08120684169C9434906D1D40020F6E7ED
:1033400070B516460D4604461EE02046FFF720FAEB
:1033500008B1012070BD681C16D0FDF7D1FD801B9F
:10336000A84200D885B920684069C04300060BD543
:10337000002044F8300F20216173A073216941F0CF
:10338000200121612073E4E720684069C043000602
:10339000DBD4002070BD2DE9FF5F96B024AD04465C
:1033A00095E88301D4E9082308930692FDF715F800
:1033B0003A464346FDF717F8D4E90623FCF76CFFBD
:1033C00007911290D4E910A352463846414609931A
:1033D000FDF709F8CDE90001D4E90C939B464A4674
:1033E000FCF7FBFFD4E90E23CDE90B32FCF7F5FF28
:1033F000D4E90023FCF750FF3A464346FCF7F3FFBD
:10340000D4E90A23FCF748FF05460E46DDE9000132
:103410004A465B46FCF7E4FF8B460490DDE9000179
:10342000DDE90B32FCF7DCFF0D910090D4E90201DD
:103430003A464346FCF7D7FF5246099BFCF72CFF60
:10344000CDE90E01D4E9042328463146FCF724FFD8
:1034500080468A4602460B4628463146FDF735F837
:1034600081460F46424653460D990098FDF72DF8C8
:1034700080468A46DDE91801079B129AFCF7ADFFEA
:103480000B914A463B461090FCF7ADFF079B129A02
:10349000FCF702FFC4E9060107911290404651462D
:1034A0000B9B109AFCF79FFF089B069AFCF7F4FE13
:1034B000C4E90801049806902A463346484639462E
:1034C000FCF791FF2A463346FCF78AFFC4E90A015C
:1034D0005B4648463946069AFCF785FF5B46049AE8
:1034E000FCF77EFFC4E90C012A46334640465146AC
:1034F000FCF779FF0D9B009AFCF772FFC4E90E01FF
:103500005B4640465146069AFCF76DFFDDE90E2307
:10351000FCF766FFC4E91001079912981AB0BDE8DC
:10352000F09F00002DE9F34F4FF0000085B05FEAF7
:10353000010B06468146054682460446804605D074
:103540004FF4FA70FDF7D4FB00272FE0012007B0FD
:10355000BDE8F08F6422062103A88DE8070001234F
:103560004322D0210598FDF725FF08B10220EEE7A0
:10357000BDF80C0040BA02B2BDF80E0012EB09090A
:1035800040BA01B2BDF8100046EBE27640BA11EB4A
:103590000A0A00B245EBE1754FEAE07210EB080849
:1035A00054410A20FDF7A4FB7F1CBFB258465F457B
:1035B000D0D3FDF72AF807468B4648463146FDF73B
:1035C00031F83A465B46FCF780FF1D4ED946C6E906
:1035D000020150462946FDF725F83A464B46FCF7CE
:1035E00074FFC6E904013D465F4640462146FDF7AB
:1035F00019F82A463B46FCF768FFC6E90601002297
:1036000006F120001146C0E90622C0E90822C0E9FF
:103610000A22C0E90C22C0E90E22C0E9102248307B
:10362000C0E90622C0E90822C0E90A22C0E90C224A
:10363000C0E90E12C0E910223270104687E7000080
:10364000180000202DE9F04385B08146012464254F
:1036500004A88DE8310023467522D0214846FDF7A5
:10366000A9FE9DF81000702803D0012005B0BDE828
:10367000F08303AE8DF80C40009601236B22D0211D
:103680004846CDE90145FDF7C3FF6420FDF730FB57
:1036900002278DF80C70009601231A22D02148468B
:1036A000CDE90145FDF7B4FF8DF80C7000960123BC
:1036B0001922D0214846CDE90145FDF7A9FF4FF079
:1036C00000088DF80C80009601231C22D02148466A
:1036D000CDE90145FDF79CFF8DF80C7000960123A4
:1036E0001D22D0214846CDE90145FDF791FF8DF817
:1036F0000C80009601231B22D0214846CDE90145CC
:10370000FDF786FF0020B1E72DE9F04F89B00C46A8
:1037100003230E2204A98DE80E0001233B22D021B1
:10372000FDF748FE00287CD1BDF8100040BA01B278
:103730002180BDF8120040BA00B260808146BDF819
:10374000140040BA00B2A0800746BDF8160040BA87
:103750000FFA80FBBDF8180040BA06B22684BDF807
:103760001A0040BA00B260848246BDF81C0040BA1C
:1037700000B2A08480460846FCF736FF05466FF08D
:103780000D020191FCF710FFC4E902014846FCF765
:103790002BFF6FF00D02FCF707FFC4E90401384668
:1037A000FCF722FF07466FF00D020091FCF7FCFECC
:1037B000C4E906015846FCF70EFF6F49FCF72EFDE1
:1037C0006E49FCF7D3FC20643046FCF70DFFDFF8B0
:1037D000B0B15E46D6E90223FCF7FFFDDFF8A49105
:1037E00000224B46FCF771FEC4E90A015046FCF783
:1037F000FBFED6E90423FCF7F0FD00224B46FCF764
:1038000064FEC4E90C014046FCF7EEFED6E906234F
:10381000FCF7E3FD00224B46FCF757FEC4E90E011E
:1038200000E07CE0DDE90016DFF85C91DFF85CA1E8
:1038300038463A460B46FCF7D6FD074688462A46E8
:10384000334610461946FCF7CEFD3A464346FCF790
:1038500023FD01F09BFB002205460E461346FCF7B4
:10386000F5FE10D0B4F90200FCF7BEFE2A4633463E
:10387000FCF72BFE01F000F8454A464BFCF7B3FD80
:103880000746884601E00027B846B4F90400FCF773
:10389000ABFE0646B4F900000D464042FCF7A4FE1C
:1038A00032462B4601F0F8F8394A3A4BFCF79BFDBB
:1038B000054658469BF80020DFF8C4B00E460BF1D1
:1038C000680BFAB10022344B2846FCF7BFFE06D243
:1038D000D4E914010022314BFCF7D0FE0DD30022B5
:1038E0002E4B28463146FCF7C9FE1BD2D4E9140101
:1038F0000022294BFCF7AAFE14D2CBE90656C4E9F4
:1039000014561DE01E4A41462032C2E90678CBE932
:103910000656A7644C3484E862000121017009B0A6
:10392000BDE8F08FCDE9029AD4E90C01CDE90001A0
:1039300013482A4633466830FFF72DFDC4E91401C9
:10394000D4E9140121F000410022144BFCF796FE4B
:1039500003D2E16A81F00041E162CDE9029AD4E943
:103960000A01CDE9000106483A4643462030FFF7F8
:1039700012FDC4E91201D2E70000AA43B81E1242A8
:1039800018000020006060404F1BE8B4814E6B3F80
:10399000F8C1631ADCA54C40008056C00080564038
:1039A0000D4808B5416941F00101416140690022BB
:1039B00000F00100009011460E20FEF771F80E2075
:1039C000FEF760F800220A211020FEF769F8BDE832
:1039D00008401020FEF756B8001002402DE9F041D3
:1039E00086B0002000900190029003901F488169EA
:1039F00041F020018161816901F020010491816918
:103A000041F008018161816901F008010491816937
:103A100041F0040181618069154F00F004004FF40A
:103A200080540490002221463846FDF763FADFF8FF
:103A300044804FF41066002231464046FDF75AFAA2
:103A4000009401240225694638460194CDE90245D7
:103A5000FDF760F9CDE9006469464046CDE90245CD
:103A6000FDF758F906B0BDE8F081000000100240F3
:103A7000000C0140000801400D4810B50B490160E1
:103A80000C49416000214FF480428160C0E903127B
:103A900041618161C1610162FDF7B6FB002803D07D
:103AA000BDE81040FCF79EBF10BD00000054004070
:103AB000CC000020801A06000D4810B50B490160AB
:103AC0000C49416000214FF480428160C0E903123B
:103AD00041618161C1610162FDF796FB002803D05D
:103AE000BDE81040FCF77EBF10BD0000005800404C
:103AF00020010020801A06000C4810B50A49016018
:103B00004FF4E1314160002181600C22C160C0E9C5
:103B100004128161C161FEF7ADFB002803D0BDE84E
:103B20001040FCF75FBF10BD00380140B801002015
:103B3000FEE7FEE770477047FDF74CBF30B58FB02A
:103B400028216846FCF707FB14210AA8FCF703FBB1
:103B500001210804CDE900100024029402250491FB
:103B6000CDE907504FF4E01009906846FEF7A6F83B
:103B700008B172B6FEE70F20CDE90A054FF4806068
:103B8000CDE90C4002210AA80E94FDF7BBFF0028E6
:103B900001D072B6FEE70FB030BD704710B5406A75
:103BA0000021C185C184FEF72EFA10BD70B5446AAC
:103BB0002068406994F84110C0F3C0100025212905
:103BC00004D118B1E584204600F062F8206840690D
:103BD00094F84210C0F38010222904D118B1E58571
:103BE000204600F02EF8606C40F010006064204623
:103BF000FEF709FA70BD10B50146406A0968096808
:103C0000890616D40021C1840168143151E8002FBF
:103C100022F0800241E80023002BF5D101680C312D
:103C200051E8002F42F0400241E80023002BF5D17B
:103C300010BDFEF7E7FB10BD10B5406AFEF7E3FBD1
:103C400010BD01680C3151E8002F22F4907241E858
:103C50000023002BF5D10168143151E8002F22F028
:103C6000010241E80023002BF5D1016B012909D1A4
:103C700001680C3151E8002F22F0100241E80023C6
:103C8000002BF5D1202180F84210002101637047FC
:103C900001680C3151E8002F22F0C00241E80023F6
:103CA000002BF5D1202180F84110704708B590F81D
:103CB0004210222901D0022008BD82684FF48053AF
:103CC0009A4201D1016921B1816A9A421BD04AB15D
:103CD0000AE00268816A5268C2F308020A80816AB7
:103CE000891C08E0026972B10268526802F07F0222
:103CF0000A70816A491C8162C18D491E0904090C40
:103D0000C18503D01BE002685268F1E70168CA6808
:103D100022F02002CA600168CA6822F48072CA6078
:103D200001684A6922F001024A61202180F84210AC
:103D300000214163026B012A03D0FEF725FB00201E
:103D400008BD016301680C3151E8002F22F0100218
:103D500041E80023002BF5D101680A68D20602D59C
:103D60000A6849680091818DFEF74CF9E7E7000089
:103D700070B5044600680169E26821F440511143BE
:103D800001612169A0680843616908432168CA6824
:103D900041F20C639A430243CA6020684169A269F8
:103DA00021F44071114341611E492068884202D1CB
:103DB000FDF74EFF01E0FDF73BFF00EBC00101EB1B
:103DC0000012606864218000B2FBF0F3B3FBF1F3F2
:103DD0006FF018067343B2FBF0F5B2FBF0F605EB9B
:103DE0008305322303EB0515B5FBF1F5B6FBF1F6C0
:103DF00005F0F00505EB0615B2FBF0F6B2FBF0F0AE
:103E0000B0FBF1F06FF01802504306EB800003EBBB
:103E10000010B0FBF1F0216800F00F00284488602A
:103E200070BD0000003801400148FEF7EDB8000009
:103E3000B8010020FEE700000FB4084B10B504A93C
:103E400002AA039800F084F9044602A9002000F0B9
:103E50000DFD204610BC5DF814FB00006D48000805
:103E60007CB50C001D461646014601D0601E00E0E0
:103E70000020CDE90010064B6A462946304600F086
:103E800067F9002C02D0009A002111707CBD00005F
:103E900057480008490050EAC12018BF04204A0DC5
:103EA00018BF40F0010040F2FF72B2EB515F08BF53
:103EB00040F00200012808BF052070470907090EDD
:103EC000002804DB00F1E02080F80014704700F0C7
:103ED0000F0000F1E02080F8141D70472DE9F0413B
:103EE0004F1E00EBC7010446D1E9000115461E46EE
:103EF00037F006020DD02A463346FCF774FA7F1ECF
:103F000004EBC703D3E90023FCF7C6F937F0060238
:103F1000F1D1022F25D0042F13D0062F18BFBDE8F2
:103F2000F0812A463346FCF75EFAD4E90A23FCF70F
:103F3000B3F92A463346FCF756FAD4E90823FCF7CE
:103F4000ABF92A463346FCF74EFAD4E90623FCF7D0
:103F5000A3F92A463346FCF746FAD4E90423FCF7D2
:103F60009BF92A463346FCF73EFAD4E90223FCF7D4
:103F700093F92A463346FCF736FAD4E90023BDE824
:103F8000F041FCF789B90122FCF70EBBFCF784B9BC
:103F9000024A00201107FCF707BB000001FDFFFFEC
:103FA00002E008C8121F08C1002AFAD17047704702
:103FB000002001E001C1121F002AFBD17047000060
:103FC0000149086070470000C80000202DE9FF5F2C
:103FD00082B00021DDE90430020DDDF840B003437A
:103FE00018D044F61050A2F2FF3242431514119833
:103FF00001281FD0A5EB0B00401C5FEA000A4FF020
:1040000000064E4FDFF83891B046504615D5CAF13C
:10401000000413E0119801244AA3012801D16FEA9A
:104020000B010298119AC0E90031C0E9024206B0C2
:10403000BDE8F09FCBF10000DFE704460021404AD5
:10404000491842EB0450CDE9001012E0E00707D018
:1040500032463B4640464946FCF7C5F9804689460C
:1040600032463B4610461946FCF7BDF906460F4658
:104070006410002CEAD1DDE90401DDE90023BAF186
:10408000000F06DAFCF7AFF942464B46FCF7ABF9F6
:1040900005E0FCF71AFA42464B46FCF716FA0446CE
:1040A0000E460022284BFCF7E9FA03D84FF0FF3008
:1040B000014607E00022254B20463146FCF7ECF88C
:1040C000FCF741FC102409E0002C0ADB0A22002343
:1040D000FCF702FB039B30321A55641E50EA0102C2
:1040E000F2D1641C039AC4F111031444119A012AF9
:1040F00003D0012208430DD10AE0084304D0002078
:104100004FF0110B119072E7A3EB0B056D1E0DE044
:104110005B4504DD4FF0000205F1010504E003DA20
:104120004FF00002A5F10105002AECD00298119988
:10413000C0E90231C0E9004579E700000000144001
:104140000000F03F300000000000F0430000E03FBE
:104150002DE9FF4F95B09A46884606460025EEE1C8
:10416000252877D100242746F94A0121039400E04D
:10417000044316F8013F203B01FA03F01042F7D147
:1041800030782A2811D06FF02F033078A0F1300258
:10419000092A16D8039A44F0020402EB820203EBC8
:1041A00042021044761C0390EFE758F8042B039268
:1041B000002A03DA504244F40054039044F002040D
:1041C000761C30782E2816D116F8010F44F004041E
:1041D0002A280DD06FF02F023078A0F13003092B80
:1041E00009D807EB870302EB4303C718761CF3E7F4
:1041F00058F8047B761C30786C280FD006DC4C28ED
:1042000017D068280DD06A2814D104E0742810D083
:104210007A280FD10DE044F400140AE044F480142D
:1042200001E044F440147278824202D104F5801413
:10423000761C761C307866280BD013DC582877D093
:1042400009DC002875D04528F6D04628F4D0472848
:104250001AD193E118E0632835D0642879D0652815
:1042600012D18BE1702873D008DC6728F1D069285F
:104270006FD06E280DD06F2806D1ACE073282CD0FB
:10428000752874D0782853D05246179990476D1CE2
:1042900054E1C4F30250022809D003280DD0D8F805
:1042A000001004280DD00D6008F1040846E1D8F88C
:1042B0000010EA17C1E90052F6E7D8F800100D80A7
:1042C000F2E70D70F0E718F8041B8DF800100020DD
:1042D0008DF80100EB46012003E058F804BB4FF0D5
:1042E000FF3061074FF0000102D40DE009F1010138
:1042F0008946B9420FDA8145F8DB1BF8091000291D
:10430000F4D108E009F1010189468142FADB1BF88A
:1043100009100029F6D103985346A0EB090721465E
:104320003846179A00F080FA284400EB090507E0A8
:1043300044E008E10DE01BF8010B52461799904745
:10434000B9F10109F7D2534621463846179AF2E0EF
:1043500039E00A21C4F302524FF0000B0091022A07
:1043600006D058F8040BC117032A09D00AE023E04D
:1043700008F1070020F00702F2E80201904605E08C
:1043800000B2C117042A01D140B2C117002906DAD0
:104390000A460021404261EB02012D2202E0220583
:1043A00004D52B228DF80420012203E0E20701D07E
:1043B0002022F7E7914657E00A2100E010214FF054
:1043C000000B00910BE010214FF0000B44F00404AF
:1043D0000827009103E008204FF0000B0090C4F381
:1043E0000252022A05D058F8040B0021032A08D0F3
:1043F00008E008F1070020F00702F2E80201904609
:1044000003E080B2042A00D1C0B24FF000092207B5
:104410002AD53278702A07D0DDF800C08CF0100C55
:104420005CEA0B0C05D00EE040228DF8042001223E
:1044300008E050EA010306D030238DF804308DF8EF
:10444000052002229146009B83F0080353EA0B03E8
:104450000AD150EA010201D1620705D530228DF858
:1044600004204FF001097F1E3278582A04D039A267
:104470000C920CAA02920BE03BA2F9E75B46009A71
:10448000FCF72AF90C9B9B5C029A521E0292137055
:1044900050EA0102F2D1029804A9081A00F1200B97
:1044A000600702D524F4803400E001275F4502DD77
:1044B000A7EB0B0000E0002000EB0B01009003983D
:1044C0004944401A0390E00306D453462146179A04
:1044D000039800F0A9F90544002706E001A8524618
:1044E000C05D179990476D1C7F1C4F45F6DBE003BC
:1044F0000CD553462146179A039800F095F90544C8
:1045000004E030205246179990476D1C0099481ED0
:1045100000900029F5DC08E00298029952460078E4
:10452000491C0291179990476D1CBBF10001ABF13A
:10453000010BF1DC5BE100F065F90544761C307895
:1045400000287FF40DAE19B02846BDE8F08F0000BA
:104550000928010030313233343536373839616259
:10456000636465660000000030313233343536371D
:10457000383941424344454600000000600700D4FA
:10458000062708F1070020F00700F0E80223804624
:1045900003F0004C5FEA0C0001D097A009E0200571
:1045A00001D596A005E0E00701D095A001E0AFF2AB
:1045B0004C001390307823F0004365280CD006DCC3
:1045C000452809D046281DD047287FD13BE06628E2
:1045D00018D067287AD136E00021112F01DB112095
:1045E00000E0781CCDE9000104A90CA8FFF7EEFC5F
:1045F000DDE90D010C9A4FF0000B07F10109109253
:1046000000914EE04FF000400097CDE9011004A961
:104610000CA8FFF7DBFCDDE90D020C9B0F994FF0B6
:10462000000B91461093009211B9791C00EB01091F
:10463000B7EB090003D4C0F1FF3B07F10109A9EB77
:104640000700019042E0012F00DA01270021112F1D
:1046500001DD112000E03846CDE9000104A90CA8D5
:10466000FFF7B4FCDDE90D010C9A00914FF0000B4F
:10467000B946109221070FD4009A4A4503DA9146B1
:1046800001E0A9F10109B9F1010F05DD109AA9F1C5
:104690000101515C3029F4D0B84202DA10F1040F64
:1046A00003DA0121CDE9011010E0002803DC834486
:1046B000A9EB000102E0411C494500DD8946A0EB61
:1046C0000B00401C01904FF000400290200705D4E1
:1046D0000198484502DB4FF0FF30019000208DF833
:1046E0004B0002980DF14B07B0F1004F25D002208E
:1046F0000C902B200D90029800280CDA404202907A
:104700002D200D9007E00A210298FBF7CFFF3031F2
:10471000029007F8011D0C99481E0C900029F2DC4C
:1047200002980028EFD1791E0D980870307800F0BB
:10473000200040F0450007F8020D11A8C01BC01D65
:1047400002901398007800B1012000EB0901019854
:1047500001EBE071029801440398401A401E039057
:10476000E00306D453462146179A039800F05CF8FC
:1047700005441398007818B15246179990476D1C5C
:10478000E00323D553462146179A039800F04CF8CE
:1047900005441BE0BBF1000F07DB0098584504DD22
:1047A0001098179910F80B0001E017993020524625
:1047B000904701980BF1010B401E05F10105019096
:1047C00004D12E205246179990476D1CB9F1000173
:1047D000A9F10109DEDC05E017F8010B5246179933
:1047E00090476D1C0299481E02900029F4DC534644
:1047F0002146179A03989EE62D0000002B0000002A
:10480000200000002DE9F041044600251E46174611
:10481000880404D405E039462020B0476D1C641E8E
:10482000F9D52846BDE8F0812DE9F0410446002580
:104830001E469046C80301D5302700E02027880493
:1048400004D505E041463846B0476D1C641EF9D5D5
:104850002846BDE8F0814A68002A06D00A68531C41
:104860000B6010704868401E486070470A68531C0F
:104870000B601070704700002DE9F84F04460D469C
:1048800021F0004000917349814211DC7249884255
:1048900001DC06D12CB120462946BDE8F84FFFF7D0
:1048A00072BB6E48002DCCBF6D496E49BDE8F88FD4
:1048B0006D49814211DD6D498142D8BF4FF0FF360D
:1048C0006DDD20462946FFF7E5FA042808BFFFF70B
:1048D0005FFB20462946BDE8F88F6549654F25F006
:1048E0000045814233DD6449814219DD00263246AC
:1048F0004FF0804320462946FBF7CEFC80468A468F
:10490000012220462946FBF74FFE00223B46FBF7DB
:1049100064FD42465346FBF7D8FD04460D463EE093
:1049200001260022BA463B4620462946FBF7B4FC46
:1049300080460F460022534620462946FBF74DFD90
:1049400042463B46FBF7C1FD04460D4627E04B4976
:1049500081421BDDDFF828A10226002253462046B3
:104960002946FBF740FD00223B46FBF795FC8046BD
:104970000F460022534620462946FBF72EFD4246AD
:104980003B46FBF7A2FD04460D4608E003262246FF
:104990002B4600203B49FBF798FD04460D46224676
:1049A0002B4610461946FBF71EFD8B4682460246F3
:1049B0000B46FBF718FD07460246334888460B4670
:1049C00006217844FFF78AFA52465B46FBF70BFD57
:1049D00082462E488B463A46434605217844FFF7E7
:1049E0007DFA3A464346FBF7FEFC02460B46002E94
:1049F000504659460CDAFBF74FFC22462B46FBF794
:104A0000F2FC01B022462B46BDE8F04FFBF7E8BCB4
:104A1000FBF742FC22462B46FBF7E5FC1C4A7A4496
:104A200002EBC603D3E90023FBF7D7FC22462B4653
:104A3000FBF7D3FC174A7A4402EBC603D3E9002301
:104A4000FBF7CEFC009A002AB8BF81F00041BDE818
:104A5000F88F0000000010440000F07F182D44542F
:104A6000FB21F93FFB21F9BF0000DC3F0000203EA5
:104A70000000F33F0000F03F0000E63F00800340ED
:104A80000000F83F0000F0BFEA160000A816000082
:104A9000461600000E1600002DE9F04D9446CCF1AC
:104AA000000423F000464CEA0404594F46EAD4744B
:104AB0009A46884621F00042BC4206D8454240EA68
:104AC000050442EAD474BC4204D9BDE8F04D624604
:104AD000FFF75CBAAAF14055A5F17F6555EA0C04D1
:104AE0000BD0022404EAAA744A4DDFF82CE144EA10
:104AF000D87452EA000B04D00CE0BDE8F04DFFF78B
:104B0000BBBE002C14BF012CBDE8F08D022C30D0B0
:104B1000032C32D056EA0C0B0AD0BE4220D1BA4246
:104B200009D126F0804622F080423346114617E034
:104B300000291ADB25E0DFF8E4B0FB44002C04BFB9
:104B4000DBE90001BDE8F08D012C02BFDBE90001CB
:104B500081F00041BDE8F08D022C0AD0032C0CD06E
:104B6000BA4212D1B8F1000F0BDA2A482C49BDE83D
:104B7000F08D28462B49BDE8F08D28467146BDE8EA
:104B8000F08D24482849BDE8F08D921B12153C2A6F
:104B9000C4BF204F244E10DCBAF1000FBEBF12F18B
:104BA0003C0F00273E4608DB6246FBF78EFC21F0F7
:104BB0000041FFF761FE07460E4694B1012C08BF85
:104BC00086F000460DD0194A194B022C3846314662
:104BD00015D0FBF702FC2A46BDE8F04D114BFBF760
:104BE000FCBB0022134638463146FBF72FFD04BFBD
:104BF0000220FFF7E5F938463146BDE8F08DFBF7B6
:104C0000ECFB2A46BDE8F04D064BFBF7E9BB000084
:104C10000000F07F182D4454FB2109C0A2150000AC
:104C2000FB21F9BFFB210940FB21F93F075C14334D
:104C300026A6A13CA0B0FCF7D5FEFEF77FFFFEF74D
:104C4000CDFEFEF7ADFEFEF717FFFEF755FFFEF7B0
:104C500033FF00F0E5F9002000F0D6F900265821D6
:104C600002A8FBF778FA00252C464048FEF7EAFC3C
:104C700008B13FA009E046A000F06CF94FF496712E
:104C80003A48FEF74FFC18B14BA000F063F964E01E
:104C9000012502A93548FEF737FD641CA4B2002D9A
:104CA00060D00A2C59D3761C002432464AA118A899
:104CB000FFF7C2F8002000F0A7F914210A2000F045
:104CC0001DFA01200090464890E80E0018A800F058
:104CD000D7FA00F041FABDF92820BDF9081041A02B
:104CE00000F038F9BDF92A20BDF90A1046A000F0FD
:104CF00031F9BDF92C20BDF90C104CA000F02AF9B7
:104D000053A000F027F9DDE90C01CDE90001DDE950
:104D1000042350A000F01EF9DDE90E01CDE90001E9
:104D2000DDE906235BA000F015F9DDE91001DDE9FE
:104D30000823CDE9000167A000F00CF944A000F0C1
:104D400009F9DDE9142373A000F004F9DDE9162365
:104D500078A000F0FFF83EA097E70320FBF7C8FF1C
:104D6000002D96D10320FBF7C3FFFBE720010020B5
:104D70004D50552057484F5F414D5F49206F72207D
:104D8000493243206661696C65640D0A00000000C9
:104D90004B656570204D5055207374696C6C3A20DA
:104DA00063616C6962726174696E67206779726FA2
:104DB0002E2E2E0D0A0000004D5055206779726F7F
:104DC0002063616C6962726174696F6E20666169EB
:104DD0006C65640D0A000000583A2025640000004C
:104DE0003C60000878E8BDB4E58AA0E9809FE5BA98
:104DF000A625642078E8BDB4E8A792E9809FE5BACB
:104E0000A62564200D0A000079E8BDB4E58AA0E972
:104E1000809FE5BAA625642079E8BDB4E8A792E9A9
:104E2000809FE5BAA62564200D0A00007AE8BDB48B
:104E3000E58AA0E9809FE5BAA62564207AE8BDB49A
:104E4000E8A792E9809FE5BAA62564200D0A000034
:104E5000200D0A00E8BDACE58C96E5908E78E8BDA3
:104E6000B4E58AA0E9809FE5BAA62566206720E818
:104E7000BDACE58C96E5908E78E8BDB4E8A792E9E4
:104E8000809FE5BAA6256620E5BAA62F73200D0AF5
:104E900000000000E8BDACE58C96E5908E79E8BD99
:104EA000B4E58AA0E9809FE5BAA62566206720E8D8
:104EB000BDACE58C96E5908E79E8BDB4E8A792E9A3
:104EC000809FE5BAA6256620E5BAA62F73200D0AB5
:104ED00000000000E8BDACE58C96E5908E7AE8BD58
:104EE000B4E58AA0E9809FE5BAA62566206720E898
:104EF000BDACE58C96E5908E7AE8BDB4E8A792E962
:104F0000809FE5BAA6256620E5BAA62F73200D0A74
:104F100000000000E5BD93E5898D78E8BDB4E5A704
:104F2000BFE68081E8A792256620E5BAA6200D0A93
:104F300000000000E5BD93E5898D79E8BDB4E5A7E3
:104F4000BFE68081E8A792256620E5BAA6200D0A73
:104F5000000000000FB40B4810B500BF90F84110DE
:104F60002029FBD103ABC9000748029AFEF778FF5E
:104F7000002804DD82B204490248FDF707FA10BC9C
:104F80005DF814FBB8010020440600202DE9F04133
:104F900006460F46FBF786FC041E0D4618BF01208F
:104FA000284320F00040C0F17F6000F1E040C00FD6
:104FB0000ED0301C18BF0120384320F00040C0F153
:104FC0007F6000F1E040C00F04BF0120FEF7F8FF52
:104FD00020462946BDE8F08130B580280ED2402910
:104FE0000CD2012401F00705AC40064BC90800EBC8
:104FF000C110012A195C02D0A143195430BD2143CC
:10500000FBE700004402002028B1FF224FF480613A
:105010000248FBF799B80022F8E70000440200209C
:1050200010B56420FBF764FE002000F06DF820202E
:1050300000F004F9002000F001F9B02000F0FEF8C3
:10504000C82000F0FBF8002000F0F8F8102000F075
:10505000F5F8402000F0F2F8FF2000F045F8A1201C
:1050600000F0ECF8A62000F0E9F8A82000F0E6F83F
:105070003F2000F0E3F8A42000F0E0F8D32000F097
:10508000DDF8002000F0DAF8D52000F0D7F8F020A5
:1050900000F0D4F8D92000F0D1F8222000F0CEF8AA
:1050A000DA2000F0CBF8122000F0C8F8DB2000F086
:1050B000C5F8202000F0C2F88D2000F0BFF81420C1
:1050C00000F0BCF8012000F01FF80020FFF79CFF63
:1050D00000F026F803480021018041800121017180
:1050E00010BD00001200002010B50446812000F021
:1050F000A5F82046BDE8104000F0A0B8014A108095
:105100005180704712000020044910B1AF200122E5
:1051100001E0AE2000224A7100F090B81200002099
:1051200070B50C4D002400BF04F1B000C0B200F017
:1051300085F8002000F082F8102000F07FF805EBE1
:10514000C410802100F08CF8641CE4B2082CEBD36E
:1051500070BD0000440200201CB50B4C207808B143
:1051600001201CBD0120207081020848CDE900010A
:105170000123402278210648FCF7E2FA0028F0D00B
:1051800000202070ECE70000100000204402002006
:10519000CC0000202DE9FF4F93460098A0F1200895
:1051A000B8F15F0F10D213B113F8086000E0CEB26F
:1051B000214802883244802A06D882464088C1F3BA
:1051C00007273844402803D9002004B0BDE8F08FF9
:1051D000002525E008FB075100243BF811901CE056
:1051E00009FA04F0000409D59AF802109AF80000B0
:1051F00029442044C9B2C0B20D9A0BE00D98C0B149
:105200005FF000029AF802109AF800002944204446
:10521000C9B2C0B2FFF7E0FE641CB442E0D36D1C1B
:10522000AF42D7D8BAF800103144AAF8001000985D
:10523000CBE70122E6E700001200002001B584B0B0
:1052400001214FF0FF3204A88DE807000B46002231
:1052500078210248FCF7DCF905B000BDCC00002045
:105260000EB54FF0FF3289B28DE8070001234022CE
:1052700078210248FCF7CCF90EBD0000CC000020DC
:105280002DE9F8410E46174698460446079D0CE066
:1052900043463A4631460095FFF77CFF2178884225
:1052A00002D0C8B2BDE8F881641C20780028EFD194
:1052B000C0B2F7E7010202030405060708090A0B5A
:1052C0000C0D0E0F10100000000000000000010285
:1052D000030406070809000000000102030400009F
:1052E00000000000000000000000000000000000BE
:1052F00000000000000000000000000000000000AE
:1053000000000000000C000C000C000C000C000C55
:10531000000C000C000C000C000C0000000C000C39
:105320000000000000000000001B001B001B001B11
:10533000001B000000000000000000000000000052
:10534000000000000000000000000000801980192B
:1053500080198019C07FC07F80190033C07FC07F53
:105360000033003300330033000000000000000071
:10537000001E003F807580650074003C001E000721
:105380008005806580658075003F001E0004000474
:1053900000000000007000D840D8C0D880D9007349
:1053A0000006000C801BC036C066C046C0068003E5
:1053B0000000000000000000001E003F003300332A
:1053C0000033001E000CC03CC066806380618063B7
:1053D000C03E801C0000000000000000000C000C1B
:1053E000000C000C000C0000000000000000000099
:1053F000000000000000000000000000000080002D
:1054000000010003000600060004000C000C000C64
:10541000000C000C000C0004000600060003000154
:105420008000002000100018000C000C0004000692
:10543000000600060006000600060004000C000C32
:105440000018001000200000000C002D003F001E7E
:105450000033000000000000000000000000000019
:10546000000000000000000000000000000000003C
:10547000000C000C000C000CC0FFC0FF000C000C66
:10548000000C000C00000000000000000000000004
:10549000000000000000000000000000000000000C
:1054A0000000000000000000000C000C00040004DC
:1054B00000080000000000000000000000000000E4
:1054C00000000000001E001E0000000000000000A0
:1054D00000000000000000000000000000000000CC
:1054E00000000000000000000000000000000000BC
:1054F000000C000C0000000000000000000300038E
:1055000000030006000600060006000C000C000C5C
:10551000000C001800180018000000000000000037
:10552000001E003F0033806180618061806D806D6E
:105530008061806180610033003F001E0000000038
:10554000000000000006000E001E003600260006C7
:10555000000600060006000600060006000600061B
:105560000000000000000000001E003F807380610A
:105570008061800100030006000C0018003000600C
:10558000807F807F0000000000000000001C003EC3
:10559000006300630003000E000E00038001800121
:1055A00080618073003F001E0000000000000000CA
:1055B0000006000E000E001E001E0016003600360B
:1055C0000066807F807F0006000600060000000065
:1055D00000000000007F007F006000600060006E3F
:1055E000007F80638001800180618073003F001E26
:1055F0000000000000000000001E003F80338061BA
:105600000060006E007F8073806180618061803304
:10561000003F001E0000000000000000807F807F2F
:1056200080010003000300060006000C000C000CC3
:10563000000800180018001800000000000000001A
:10564000001E003F8063806180610021001E003FDA
:105650008061806180618061003F001E0000000069
:1056600000000000001E003F0073806180618061C7
:105670008073803F801D800180610073003F001EA9
:10568000000000000000000000000000000000001A
:10569000000C000C000000000000000000000000F2
:1056A000000C000C000000000000000000000000E2
:1056B000000000000000000C000C000000000000D2
:1056C00000000000000C000C0004000400080000B2
:1056D00000000000000080008003000E0038006021
:1056E0000038000E80038000000000000000000071
:1056F000000000000000000000000000807F807FAC
:1057000000000000807F807F00000000000000009B
:105710000000000000000000000000000000004049
:105720000070001C000780010007001C0070004092
:10573000000000000000000000000000001F803F8B
:10574000C071C060C000C00180030007000E000CE3
:10575000000C0000000C000C000000000000000025
:10576000001E003F803180718063806F806D806D8E
:10577000806F806700600032003E001C0000000067
:1057800000000000000E000E001B001B001B001B91
:1057900080318031803F803F8031C060C060C06018
:1057A0000000000000000000007C007E0063006339
:1057B00000630063007E007E00638061806180631F
:1057C000007F007E0000000000000000001E003F7F
:1057D00080318061006000600060006000600060F7
:1057E00080618031003F001E0000000000000000CA
:1057F000007C007F006380638061806180618061E4
:105800008061806100630063007E007C0000000016
:1058100000000000807F807F00600060006000600A
:10582000007F007F0060006000600060807F807FFC
:105830000000000000000000807F807F00600060AA
:1058400000600060007F007F00600060006000601A
:10585000006000600000000000000000001E003F2B
:1058600080318061006000600060806380638061DF
:1058700080618031803F001E0000000000000000B9
:10588000806180618061806180618061807F807FD4
:1058900080618061806180618061806100000000C2
:1058A00000000000003F003F000C000C000C000C4A
:1058B000000C000C000C000C000C000C003F003F22
:1058C00000000000000000008001800180018001D4
:1058D000800180018001800180018061806180738E
:1058E000003F001E0000000000000000C06080615A
:1058F000006300660066006C0078007C006600664D
:10590000006380618061C060000000000000000052
:105910000060006000600060006000600060006087
:105920000060006000600060807F807F00000000F9
:1059300000000000C071C071C07BC07AC06AC06A3C
:10594000C06EC064C060C060C060C060C060C06045
:105950000000000000000000807180718079807973
:105960008079806D806D806D8065806780678067DD
:10597000806380630000000000000000001E003F04
:1059800000338061806180618061806180618061BD
:1059900080610033003F001E000000000000000096
:1059A000007E007F80638061806180618063007F12
:1059B000007E006000600060006000600000000089
:1059C00000000000001E003F0033806180618061A4
:1059D000806180618061806580670033803F401E08
:1059E0000000000000000000007E007F80638061F6
:1059F00080618063007F007E0066006300638061D9
:105A00008061C0600000000000000000000E001F68
:105A10008031803100300038001E00078003806133
:105A200080618031003F001E000000000000000087
:105A3000C0FFC0FF000C000C000C000C000C000CA0
:105A4000000C000C000C000C000C000C000000000E
:105A50000000000080618061806180618061806100
:105A6000806180618061806180618073003F001E81
:105A70000000000000000000C060C060C060803115
:105A800080318031001B001B001B001B000E000E2C
:105A9000000E00040000000000000000C0C0C0C0F4
:105AA000C0C0C0C0C0C0C0CC804C804C805E8052A2
:105AB000805280738061806100000000000000005F
:105AC000C0C0806080610033003B001E000C000CF1
:105AD000001E001F003B80718061C0C000000000FC
