:020000040800F2
:10000000B00800200501000827240008F9140008A2
:10001000252400089D01000891240008000000002C
:100020000000000000000000000000002B24000879
:10003000D701000800000000292400082D24000832
:100040001F0100081F0100081F0100081F01000810
:100050001F0100081F0100081F0100081F01000800
:100060001F0100081F0100081F0100081F010008F0
:100070001F0100081F0100081F0100081F010008E0
:10008000A10100081F0100081F0100081F0100084E
:100090001F0100081F0100081F0100081F010008C0
:1000A0001F0100081F0100081F0100081F010008B0
:1000B0001F0100081F0100081F01000809150008A2
:1000C000FD1400081F0100081F0100081F0100089F
:1000D0001F0100081F0100081F0100081F01000880
:1000E0001F0100081F0100081F010008DFF810D0E1
:1000F00000F042F8004800475D260008AFF300809A
:10010000B00800200648804706480047FEE7FEE7A3
:10011000FEE7FEE7FEE7FEE7FEE7FEE7FEE7FEE7B7
:100120008F240008ED000008D2B201E000F8012B96
:10013000491EFBD270470022F6E710B513460A4667
:1001400004461946FFF7F0FF204610BD30B50B46B8
:10015000014600202022012409E021FA02F59D42F7
:1001600005D303FA02F5491B04FA02F52844151ECB
:10017000A2F10102F1DC30BD064C074D06E0E0685B
:1001800040F0010394E8070098471034AC42F6D3DE
:10019000FFF7B0FFAC400008CC400008FEE70000CD
:1001A000014800F06BB800006C00002030B590F8FA
:1001B00040500124AC40C56B6C60046863604368C8
:1001C000102B036803D099600068C26030BD9A604C
:1001D0000068C16030BD704772B6FEE710B590F898
:1001E00021100024022903D00421816301243DE071
:1001F00001680A6822F00E020A6001680A6822F0AB
:1002000001020A601A4A0168914201D1012121E0EC
:10021000174A1432914201D110211BE0144A2832AE
:10022000914201D1891515E0114A3C32914201D128
:1002300089140FE00E4A5032914202D14FF48031BE
:1002400008E00B4A6432914202D14FF4801101E080
:100250004FF08071064A083A5160012180F8211060
:10026000002180F82010416B01B18847204610BD65
:100270000800024090F82100704700002DE9F05F6F
:10028000C16B0C6801680B68D0F840C0042202FA08
:100290000CF2494DDFF824A1494E4A4FDFF828B14E
:1002A000DFF828E122422CD05A072AD50A689206A4
:1002B00003D40A6822F004020A600168A94201D14D
:1002C000042219E0514501D1402215E0B14202D18A
:1002D0004FF4806210E0B94202D14FF480420BE04B
:1002E000594502D14FF4802206E0714502D14FF406
:1002F000800201E04FF080622F4908394A60C16AEC
:100300003BE04FF0020808FA0CF818EA040F4FF02F
:1003100000094FF0010235D05FEA837832D50B68CF
:100320009B0605D40B6823F00A030B6080F821209C
:100330000168A94201D1022219E0514501D12022D0
:1003400015E0B14202D14FF4007210E0B94202D17F
:100350004FF400520BE0594502D14FF4003206E051
:10036000714502D14FF4001201E04FF000721249C2
:1003700008394A6080F82090816A00291AD0BDE8C7
:10038000F05F0847082505FA0CF5254212D01B0737
:1003900010D50B6823F00E030B6090F84010C36B70
:1003A00002FA01F15960826380F8212080F82090E0
:1003B000016BE2E7BDE8F09F080002401C0002402C
:1003C0003000024044000240580002406C000240ED
:1003D00030B528B308C8134914221944B1FBF2F10F
:1003E0008900C16310498163022141771A6843F68D
:1003F000F0718A43D0E900142143D0E902452C432F
:100400002143046921434469214384692143114301
:10041000196000214163012242770177084630BD0F
:10042000012030BDF8FFFDBF0000024070B504465A
:1004300090F82000002501280CD0012084F820002D
:1004400094F821600020012E06D084F820000225B7
:10045000284670BD022070BD022684F82160A0638A
:100460002068066826F0010606602046FFF79EFE1B
:10047000E06A00282068016802D041F00E0106E021
:1004800021F0040101602068016841F00A01016067
:100490002068016841F001010160D9E770B50446A8
:1004A00000F004F90546601C02D0044800780444BA
:1004B00000F0FCF8401BA042FAD370BD0000002001
:1004C0002DE9F84FDFF8B8910024A9F1040B234679
:1004D0000F2709F1040AABF1040EC9E00125A5407C
:1004E0002A40AA427DD1674ED1F804C0ACEB060881
:1004F000B44532D014DCBCF1030F3AD009DCBCF1B6
:10050000000F2AD0BCF1010F1CD0BCF1020F31D179
:100510001DE0BCF1110F17D0BCF1120F2AD119E068
:10052000B8F5881F19D006DCB8F5803F15D0B8F5AE
:10053000801F1FD111E0B8F5001F0ED0B8F5041FC1
:1005400018D10AE0CB6815E0CB681B1D12E0CB6820
:1005500008330FE0CB680C330CE08B682BB1012B18
:100560004FF0080303D0456104E0042302E0056175
:1005700000E00023FF2A01D8064601E000F104064E
:100580004FEA840501D9A5F12005D6F8008007FAC5
:1005900005FC28EA0C0803FA05F548EA0508C6F840
:1005A00000804D68ED0062D5374DAE6946F001061A
:1005B000AE61AD6924F0030605F001050095334DE9
:1005C00006EB050CDCF80850A607360F07FA06F80C
:1005D00025EA0805DFF8B880404503D14FF0000850
:1005E00017E044E0DFF8AC80404502D14FF001084D
:1005F0000FE0DFF8A480404502D14FF0020808E088
:10060000DFF89880404502D14FF0030801E04FF039
:10061000040808FA06F848EA0508CCF808804D688E
:10062000D9F80060ED024D4601D5164300E096432F
:100630002E604D68DAF80060AD02554601D51643CC
:1006400000E096432E604D68DBF80060AD035D4628
:1006500001D5164300E096432E604D68DEF8006039
:10066000ED03754601D5164300E096432E60641CE9
:100670000D682A46E5407FF431AFBDE8F88F0000F1
:100680000804014000001110001002400000014069
:1006900000080140000C014000100140001401401E
:1006A0000AB1016170470904FBE700000148806856
:1006B0007047000000000020704770472DE9F041AE
:1006C000016804464A694E6890F83E000025D74309
:1006D000FA050BD4F243D20508D46FF480720125D9
:1006E0004A6121680A6842F400420A60B90508D4E8
:1006F000F143C90505D422686FF4007145F0020585
:100700005161790525D4F143C90522D4638D94F84C
:100710003D10226B202808D13BB9212910D029296E
:100720000ED0282901D1212A0AD022686FF48061D5
:10073000516145F00405102806D0402804D008E097
:10074000204601F0F7FB04E02068016841F40071E5
:100750000160380508D4F043C00505D421686FF462
:10076000006045F008054861002D07D0206C284343
:1007700020642046BDE8F04100F0D6BFBDE8F0811E
:100780002DE9F047026800215368C66A90F83E40A0
:1007900090F83D50102C12D0402C10D0046C002C3E
:1007A0007DD05469E443A6077AD4DE43B60577D4F6
:1007B000036C03B19169BDE8F04701F097BB9769FD
:1007C00051694FF42A0CC9435FEAC1784FF02A49B6
:1007D00004D066452AD04E4528D010E0DE43B60549
:1007E0000DD4C16A614501D1012103E0C16A4945C7
:1007F00001D10821C162BDE8F04701F089BA0E07B6
:1008000016D4DE43B60513D4416CC9B21161416BF5
:1008100009B1896A29B9816B002907D0896A002941
:1008200004D00068416841F400614160BDE8F08790
:100830008E0706D4DE43B60503D4BDE8F04701F0C9
:10084000BBB9FE43526876074FEA02521DD4002A14
:10085000ECDB0A0608D4DA43520505D4490705D56E
:10086000BDE8F04701F04CB94907DFD4D943890509
:10087000DCD4212D05D0402CD8D1BDE8F04701F0C3
:100880008DBABDE8F04701F0F9B8002ACEDB4A0680
:100890000BD4DA43520508D4490708D501E00DE02E
:1008A0000EE0BDE8F04701F06FB84907BED4D94368
:1008B0008905BBD4BDE8F04700F0F9BF916970E746
:1008C000E10606D4D943890503D4BDE8F04701F019
:1008D00079BB2821212D27D0292D25D0650655D477
:1008E000DD436D0552D4640752D590F83D30448DF8
:1008F000002C9BD01269446A2270426A521C4262E8
:10090000428D521E4285428D002A8FD12A2B8DD1D5
:100910000268536823F4806353602222026380F8E4
:100920003D1000F0DFFA81E7250623D4DD436D0595
:1009300020D4640720D590F83D30448D002CF2D0AF
:10094000446A24781461426A521C4262428D521EEB
:100950004285428D002AE6D1292BE4D102685368F2
:1009600023F4806353602122026380F83D1000F07D
:10097000BAFA5BE76107D6D4D9438905D3D4418D50
:100980000029D0D0416A097811610AE06107CAD410
:10099000D9438905C7D4418D0029C4D01169426A61
:1009A0001170416A491C4162418D491E41853DE7F4
:1009B0007047000070B5040025D094F83D00002574
:1009C00020B984F83C50204600F02AFA242084F80C
:1009D0003D002068016821F0010101602068016884
:1009E00041F4004101602068016821F40041016088
:1009F00000F0A8FB4D4A6168914201D84C4900E0E3
:100A00004C49884201D2012070BD4B492368B0FB9C
:100A1000F1F15E6826F03F060E435E606368934224
:100A200006D94FF4967359434FF47A73B1FBF3F13F
:100A30002368491C1E6A26F03F063143196261682B
:100A4000914210D84900401EB0FBF1F2521CC2F393
:100A50000B02042A01D2042022E0B0FBF1F0401C7A
:100A6000C0F30B001CE0A268F2B301EBC10303EB7F
:100A70000116431EB3FBF6F35B1C43F480431B05D6
:100A800049D092B301EBC10202EB0111401EB0FB51
:100A9000F1F0401CC0F30B0040F4804040F40040F3
:100AA0002168CA694CF6FF739A431043C861D4E9C0
:100AB000071001432068026822F0C0021143016060
:100AC000D4E9030101432068826848F2FF339A4366
:100AD00011438160D4E9050108432168CA6822F006
:100AE000FF021043C86001E00EE016E020680168D4
:100AF00041F0010101602564202084F83D00256358
:100B000084F83E50002070BD01EB4106431EB3FB4C
:100B1000F6F35B1CB3E70120C2E701EB4101401E85
:100B2000B0FBF1F0401CC0F30B00B7E7A08601005A
:100B300080841E0000093D0040420F00704770474E
:100B400070477047044900680968884202D1034928
:100B500000200870704700001800002010000020DE
:100B60002DE9FF4F83B09A46DDE91197934604467D
:100B7000DDF84080FFF79AFD054694F83D002028F7
:100B80007FD11923012240492046009501F0F4FA53
:100B9000002876D194F83C00012872D0012084F816
:100BA0003C0020680168C90703D1016841F00101D8
:100BB00001602068016821F400610160212084F84F
:100BC0003D00402084F83E0000262664C4F82480BE
:100BD000A4F82A90608D20852C48E062CDE900754C
:100BE00053465A462046049901F02CF970B930E07A
:100BF0002A463946204601F065FB58B1206C04288E
:100C000004D12068016841F400710160012007B03F
:100C1000BDE8F08F606A216800780861606A401C56
:100C20006062218D491E89B22185628D521E6285C6
:100C300022685369DB435B070BD469B1007810610C
:100C4000606A401C6062208D401E2085608D401EC1
:100C50006085208D0028CBD12A463946204601F0F8
:100C60005FFA0028CAD154F83D0B016841F40071C5
:100C70000160202004F81E09E67766770020C6E7A9
:100C8000FFE70220C3E70000020010000000FFFFA2
:100C90002DE9FC5F0025984691468A460446DDF81A
:100CA00030B00095FFF702FD074694F83D0020287C
:100CB00028D1574846F2A81120260068B0FBF1F071
:100CC00000EBC00101EB001000900098401E009066
:100CD00010D020688069C0438007F6D594F83C00A6
:100CE00001280FD0012084F83C0020680168C90762
:100CF0000BD00EE044F8305F6673A573206940F0B6
:100D0000200020610220BDE8FC9F016841F0010144
:100D100001602068016821F400610160212084F8ED
:100D20003D00402084F83E002564C4F824B00D98AE
:100D30006085608D20853748E062C4F844A0C4F81F
:100D40004890C4F84C802565208DE8B3606BF0B105
:100D500031498162616B31480863606BC562606BC9
:100D600045632268238D1032616A606BFFF75EFB7A
:100D7000B0B184F83D6084F83E5054F8400F40F024
:100D8000100000BF44F8040925700120BBE784F877
:100D90003D6084F83E5054F8400F40F08000F1E789
:100DA0002320CDE9000743464A465146204601F03C
:100DB00049F898B1606BFFF711FA606B85622068A3
:100DC000016821F4806100E019E0016025856585F6
:100DD0002068016821F001010160D6E720684169BF
:100DE0008169009184F83C50416841F48071416010
:100DF0002068416841F400614160002083E784F885
:100E00003D6084F83E5054F8400F40F04000B9E790
:100E10000C0000200000FFFF07160008D115000895
:100E200070B586B00025064600950195029503959C
:100E300000682649884246D1254CA06940F0080048
:100E4000A061A069694600F0080004904FF440706A
:100E5000009012200190032003901E48FFF730FB02
:100E60001D48416841F0E06141F002014160E069E4
:100E700040F40010E061E069194C00F400100490A7
:100E8000164820601020C4E901058020C4E903054C
:100E90006561A5612046E561FFF79AFA08B1FFF7A1
:100EA0009BF9746300220A211F20666200F082F819
:100EB0001F2000F071F800220A21202000F07AF8AB
:100EC000202000F069F806B070BD0000005400401A
:100ED00000100240000C0140000001406C00024084
:100EE0006C00002070477047024881680278114406
:100EF0008160704700000020074810B5016841F08C
:100F000010010160032000F075F80F2000F006F8D2
:100F100000F024F8002010BD0020024070B50D4DF7
:100F200004464FF47A712878B1FBF0F00A49096859
:100F3000B1FBF0F000F0CCFA48B9102C07D2002237
:100F40002146501E00F036F800206C6070BD012074
:100F500070BD0000000000200C0000200C4808B507
:100F6000816941F001018161816901F00101009114
:100F7000C16941F08051C161C06900F080500090AA
:100F80000448416821F0E06141F00071416008BD12
:100F90000010024000000140002809DB00F01F02A1
:100FA000012191404009800000F1E020C0F80011CB
:100FB00070470000F0B40E4B1B680C46C3F30223CD
:100FC000C3F10705042D00D90425191D072901D2F5
:100FD000002300E0DB1E012606FA05F1491E214030
:100FE00099409E40761E16403143F0BC01F066BA2F
:100FF0000CED00E0064900F0070208684FF6FF0319
:10100000184040EA0220034A10430860704700007D
:101010000CED00E00000FA052DE9F0470F46050051
:1010200061D0434E306800F00700B84209D2306802
:1010300020F0070038433060306800F00700B84205
:1010400051D128683B4C810712D5400703D5606811
:1010500040F4E06060602878000703D5606840F4E1
:10106000605060606068A96820F0F000084360602C
:101070002878C00728D06868012810D02168022885
:1010800010D0890700292EDA616821F0030101439D
:101090006160FFF70BFB804641F288390DE0216863
:1010A0008903EFE78901EDE7FFF700FBA0EB0801FB
:1010B000494502D90320BDE8F0876068696800F0FF
:1010C0000C00B0EB810FEFD1306800F00700B842A0
:1010D0000BD9306820F0070038433060306800F0EA
:1010E0000700B84201D00120E5E72878400705D580
:1010F0006068E96820F4E0600843606028780007D1
:1011000006D56068296920F4605040EAC10060603B
:1011100000F028F86168084AC1F30311515CC84027
:101120000649086006480068FFF7F8FE0020C2E79D
:101130000020024000100240B22B00080C000020EA
:10114000040000200448054900684968044AC1F3C6
:101150000221515CC84070470C0000200010024082
:10116000C22B00080E4A51680E4801F00C03042BF4
:1011700011D0082B0FD10C48C1F38343C903C05CC5
:101180000AD55168084AC1F34041921E515C054A94
:101190005043B0FBF1F070470449484370470000EA
:1011A0000010024000127A00A22B000800093D0046
:1011B0002DE9F84F040070D02078C04DC00749D009
:1011C0006868C0F38100012807D06868C0F3810017
:1011D000022809D16868C00306D52868800339D57C
:1011E00060680028E7D035E06068B0F5803F0BD03C
:1011F00010B1B0F5A02F11D0286820F480302860FD
:10120000286820F4802002E0286840F480302860BC
:10121000606890B1FFF74AFA06460AE0286840F491
:1012200080202860F0E700BFFFF740FA801B6428A9
:1012300073D828688003F7D50CE0FFF737FA064625
:1012400005E000BFFFF732FA801B6428F0D8286859
:101250008003F7D420789A4E80074FF001094FF0B1
:10126000000839D5686810F00C0F07D06868C0F323
:101270008100022809D16868C00306D42868800765
:1012800014D52069012808D110E02069B0B1C6F852
:101290000090FFF70BFA074605E00AE1FFF706FAB0
:1012A000C01B0228C4D828688007F7D52868616960
:1012B00020F0F80040EAC10028600DE0C6F8008088
:1012C000FFF7F4F9074604E0FFF7F0F9C01B022826
:1012D00023D828688007F7D4207800072CD57948D0
:1012E000A169D9B1C0F80090FFF7E0F9074604E022
:1012F000FFF7DCF9C01B02280FD8686A8007F7D512
:1013000071484FF4FA510068B0FBF1F0009000BF53
:101310000098411E0091FAD20EE080E0C0F80080F3
:10132000FFF7C4F9074604E0FFF7C0F9C01B022825
:1013300075D8686A8007F7D42078400760D5E869D7
:101340000027C00008D4E86940F08050E861E869EF
:10135000012700F0805000905C480168C90513D453
:101360000168834641F480710160FFF79FF982466E
:1013700006E000BFFFF79AF9A0EB0A0064284ED8F8
:10138000DBF80000C005F5D5E06801280AD008B1F7
:10139000052813D0286A20F001002862286A20F06E
:1013A000040002E0286A40F001002862E06841F28F
:1013B000883B98B1FFF77AF982460BE0286A40F043
:1013C00004002862EEE700BFFFF770F9A0EB0A0106
:1013D00059455AD8286A8007F6D50CE0FFF766F918
:1013E000824605E0FFF762F9A0EB0A0159454CD8A7
:1013F000286A8007F6D41FB1E86920F08050E861C0
:10140000E06988B36968C1F38101022944D00228E8
:10141000C6F8608004D0FFF749F9044638E034E0AC
:10142000FFF744F9074604E0FFF740F9C01B022824
:101430002BD828688001F7D4206AB0F5803F05D109
:101440006868A16820F4003008436860D4E90801A6
:101450000843696821F4741108436860C6F8609015
:10146000FFF724F9044606E025E000BFFFF71EF968
:10147000001B022809D828688001F7D51BE000BFAF
:10148000FFF714F9001B022802D90320BDE8F88FEA
:1014900028688001F4D40EE00128F7D06868226A39
:1014A00000F48031914204D1616A00F470108842E6
:1014B00001D00120EAE70020E8E700000010024028
:1014C00000004242800442420C00002000700040B4
:1014D00010B5401EB0F1807F01D3012010BD4FF048
:1014E000E02460610F21601700F0E8FF0020A06198
:1014F00007202061002010BDFEE700000148FFF733
:10150000DDB80000180000200148FFF739B90000DD
:101510001800002038B5406A002190F83D202B4B80
:1015200046F2A8141B68B3FBF4F3C3EBC30303EB4D
:10153000830300933BB15B1E009303681B689B050C
:1015400005D5009BF6E7036C43F020030364436B6F
:1015500003B19962836B03B1996203681C6824F438
:1015600080641C604185436B03B15963836B03B195
:10157000596303681C6824F001041C6090F83D4026
:101580002023602C0BD0282434EA02020FD080F8EC
:101590003D3080F83E1000BFFFF70AFA38BD80F8F2
:1015A0003D3080F83E100164FFF786F838BD0268D0
:1015B000136843F0010313600268136843F4806307
:1015C0001360016380F83D40E6E700000C00002056
:1015D00010B5406A0021426B02B19162826B02B188
:1015E00091620268136823F48063136041852022AE
:1015F00080F83D2080F83E10016C41F0100101643C
:10160000FFF7D6F910BD2DE9F041446A94F83D206A
:1016100094F83E50E16A2068436823F440734360C5
:10162000636B002003B19862A36B03B1986221231E
:1016300033EA02074FF022060CD036EA020701D146
:10164000202D07D094F83E20002A21D0628D012A57
:1016500020D024E021684D6825F400654D60608548
:101660002820292A02D02A2A07D00CE0236384F8F4
:101670003D002046FFF737FC05E0266384F83D0077
:101680002046FFF72FFC2068416841F4407141601B
:10169000BDE8F0812268136823F480631360226838
:1016A000536823F44073536011F5803F06D0082936
:1016B00004D0B1F12A4F01D0202904D12268136847
:1016C00043F4007313602268536823F4805353601B
:1016D0002268536823F4006353606085226C1AB15A
:1016E0002046FFF765F9D3E7202284F83D2094F8DF
:1016F0003E2084F83E00402A09D0082902D0202943
:1017000000D0122020632046FFF719FAC0E72063BB
:101710002046FFF716FABBE700684169C94309068E
:1017200001D400210161704770B5044690F83D0076
:1017300094F83E10102901D0402906D1222804D166
:1017400021680A6822F400620A60282131EA000256
:101750004FF000054FF0200626D0216849680905A2
:1017600005D4602803D084F83D6084F83E5025639A
:1017700020684168090537D5416821F4006141605E
:10178000606B90F821203C49012A11D04163606BC5
:10179000FEF724FD38B32068016821F001010160E3
:1017A00084F83D60606B1CE0256384F83D10DFE742
:1017B000A06B4163A06BFEF711FDA0B120684169E9
:1017C000C943490605D40069616A0870606A401C13
:1017D00060622068016821F00101016084F83D60C9
:1017E000A06B416B884710E094F83D10602910D041
:1017F0004169C943490605D40069616A0870606A95
:10180000401C60622046FFF7D3F8206CC1071CD152
:1018100015E084F83D6025644169C943490605D453
:101820000069616A0870606A401C60622068016833
:1018300021F0010101602046FEF73EFFE5E7810748
:1018400003D4410701D4000704D52068416821F47E
:10185000E061416094F83D00216C49070BD52828D0
:1018600009D10648E062256384F83D6084F83E5063
:101870002046FFF763F970BD151500080000FFFF53
:1018800001684A69D24352050FD46FF480624A61FD
:10189000002140F8301F202242738173026942F018
:1018A000040202610173012070470020704710B5E7
:1018B000C26A438D0168042B06D0438D032B08D0E8
:1018C000438D022B1DD012E04A6822F480624A60E8
:1018D0000CE04B6823F480634B60042A06D0022A94
:1018E00004D001680A6822F480620A60016809690C
:1018F000426A1170416A491C4162418D491E41850D
:1019000010BD012A34D0102A32D0042A34D0022A41
:1019100032D00B6843F400730B6001680969436AB5
:101920001970416A491C4162438D5B1E43850368FF
:101930001B690B70416A491C4162418D491E4185FA
:1019400001684B6823F440734B60202180F83D1000
:1019500090F83E300021402B80F83E1010D0082A2D
:1019600002D0202A00D012210163FFF7E8F810BD51
:101970000B6823F48063CFE70B6843F48063CBE705
:101980000163FFF7DEF810BD38B590F83D1022294D
:1019900010D1C36A418D03290DD901680969426AD2
:1019A0001170416A491C4162418D491E4185418D3A
:1019B000032906D038BDC26A022A02D0012906D006
:1019C00029B10068416821F48061416038BD2A4A2C
:1019D00046F2A81400211268B2FBF4F202EB820274
:1019E000009202682024009D6D1E009526D0156887
:1019F000AD05F8D4156825F4806515600268556852
:101A000025F4E065556002681269456A2A70426AE9
:101A1000521C4262428D521E428580F83D4090F831
:101A20003E2080F83E10402A21D0082B02D0202BE7
:101A300000D012210163FFF782F838BD036C43F038
:101A400020030364536823F4E0635360026812695F
:101A5000436A1A70426A521C4262428D521E42858B
:101A600080F83D4080F83E10FEF7A2FF38BD0163CC
:101A7000FFF767F838BD00000C00002010B5C26AFF
:101A800090F83D1021290BD1418D51B1416A026876
:101A900009781161416A491C4162418D491E4185A5
:101AA00010BD20230021082A13D0202A11D012F5BE
:101AB000803F0ED00268546824F4E0645460112220
:101AC000026380F83E1080F83D3000BFFFF738F821
:101AD00010BD0268546824F4E0645460026814681D
:101AE00044F400741460016380F83D3090F83E20A7
:101AF00080F83E10402AE9D1FFF724F810BD00001D
:101B000010B590F83D1090F83E30C26A048DB4B123
:101B1000212903D0402B11D122290FD1418DE1B3CE
:101B200090F83E10402942D0416A0268097811615C
:101B3000416A491C4162418D491E418510BD2129E0
:101B4000E8D120230021082A13D0202A11D012F531
:101B5000803F0ED00268546824F4E064546011227F
:101B6000026380F83E1080F83D3000BFFEF7E8FFCA
:101B700010BD0268546824F4E0645460026814687C
:101B800044F400741460016380F83D3090F83E2006
:101B900080F83E10402AE9D100E002E0FEF7D2FFD3
:101BA00010BD0068416821F48061416010BDBDE84E
:101BB000104000F0F3B8000078B590F83E50C26ACB
:101BC000046B90F83D6000230168222E73D1066DEE
:101BD0000EB9402D6FD0056D1DB90569B5F5404FA3
:101BE0001BD0458D95B3468D484D012E20D0448D98
:101BF000022C4DD00C6844F480640C6001684C6881
:101C0000240579D5AA4273D0012A71D0082A6FD051
:101C1000102A6DD0202A6BD06EE04A698A69009242
:101C20000A6842F480720A60016D491C016578BD42
:101C3000AA4214D10A6822F480620A6001684A68E4
:101C4000120504D50A6822F4806217E0FFE74A69AA
:101C50008A6900920A6842F400720A6050E0082A19
:101C600010D0202A0ED0122C0AD0042A03D0022A27
:101C700001D0102AE6D10A6842F480620A603BE093
:101C8000012ADFD00A6822F480620A600168DEE778
:101C9000042A11D0022A0FD0102A0DD00C6844F467
:101CA00000640C6001684C698C6900940C6824F431
:101CB00080640C6008E025E00C6844F480640C60EB
:101CC00001684C698969009101684C68240517D541
:101CD000AA4207D0012A05D0082A03D0102A01D031
:101CE000202A0DD14A6842F480524A6008E0FFE79A
:101CF0004A6842F480524A6001684A6989690091E1
:101D0000036578BD48698869009078BD0000FFFFD1
:101D100090F83E10402910D00169B1F5804F19D0DC
:101D2000016DA9B3016D012910D1416C5FF0F10281
:101D300001F4407142EAD11106E0016D0029416CC5
:101D400005D0C9B241F0010100680161704701F09E
:101D5000FE01F9E790F83D102129416C09D0C9B284
:101D600041F0010102681161416B29B1896A49B9E9
:101D700002E001F0FE01F5E7816B0029E6D0896AF7
:101D80000029E3D00068416841F400614160704778
:101D9000FFE7416CF02201F44071CBE710B590F8F9
:101DA0003D10026D4AB1026D012A14D0026D022A63
:101DB00016D0BDE81040FFF7AFBCC16C0129816CA3
:101DC00002D0C1F3072108E00268C9B21161016DB8
:101DD000891C016510BD816CC9B20268116123E0E4
:101DE00022291CD0428D0AB1212920D0428D002AFF
:101DF000F0D12129EED101684A6822F4E0624A60FC
:101E000001680A6842F400720A600021016320221E
:101E100080F83D2080F83E10FEF794FE10BD01686A
:101E20000A6842F480720A60016D491CD1E7416A78
:101E3000026809781161416A491C4162418D491E5D
:101E4000418510BD2DE9F843044600680D46DDE9E3
:101E5000089701689846164641F4807101604B4628
:101E600000224FF001112046009700F085F948B19B
:101E700020680068C00502D54FF40070206403207C
:101E8000BDE8F883216805F0FE0008613B464A463C
:101E90001549204600F0B8F988B920684169806981
:101EA00000903A464946204600F00CFA48B1206CB2
:101EB000042804D12068016841F400710160012008
:101EC000DEE7F5B2B8F1010F09D02168300A0861E8
:101ED0003A464946204600F0F5F90028E7D1206847
:101EE00005610020CCE700000200010038B50C4677
:101EF00090F83D2000212825954302680B4605D027
:101F000051699169009180F83C3038BD556825F4DD
:101F100080655560E243540700D50121120601D5C2
:101F2000828900E0028B80F83C3092B2FEF7C5FB5C
:101F300038BD00002DE9F04190F83D300446C26AFA
:101F4000002120261E4F00686FF48065082A01D00A
:101F5000202A01D1282B04D0212B17D04561BDE8C0
:101F6000F081E762426822F4E062426020684561E5
:101F70002068026822F480620260216384F83D6078
:101F800084F83E102046FEF7D9FDE8E7E7622122FB
:101F9000226384F83D6084F83E10416821F4E061DA
:101FA0004160206845612068016821F4806101601A
:101FB0002046FFF7B1FB2046FEF795FFCFE7000074
:101FC0000000FFFFF8B590F83D60044600684168E6
:101FD00021F4E061416020680025416900910168B9
:101FE00041F0010101602068016821F48061016015
:101FF00020684168090520D5474F222E48D02A2E57
:1020000046D0616B096849686185618D19B1216CA1
:1020100041F004012164416821F400614160606B7A
:10202000FEF728F9012808D0606B4763606BFEF764
:10203000D5F810B1606B416B8847608D08B320689C
:102040004169C943490708D40069616A0870606A38
:10205000401C6062608D401E608520684169C943F4
:10206000490608D40069616A0870606A401C6062B1
:10207000608D401E6085608D18B1206C40F00400BA
:102080002064206C00B32046BDE8F840FFF74CBB4D
:10209000A16B096849686185618D19B1216C41F0B6
:1020A00004012164416821F400614160A06BFEF7E6
:1020B000E1F80128C1D0A06B4763A06BFEF78EF852
:1020C0000028BAD0A06BB6E72A2E06D125632820B7
:1020D00084F83D002046FEF705FF94F83D102020CF
:1020E00028290DD0216B222901D0222E07D125636A
:1020F00084F83D0084F83E502046FEF7F3FEF8BD1C
:102100000649E162256384F83D0084F83E5020468C
:10211000FEF714FDF8BD0000151500080000FFFFD4
:1021200070B516460D4604461EE02046FFF7A8FB94
:1021300008B1012070BD681C16D0FEF7B7FA801BED
:10214000A84200D885B920684069C04340070BD534
:10215000002044F8300F20216173A073216941F001
:10216000200121612073E4E720684069C0434007F3
:10217000DBD4002070BD00002DE9F04798461746DB
:102180000D460446C1F30746DDF820902AE000BF63
:10219000B8F1FF3F26D0FEF789FAA0EB09014145CF
:1021A00002D8B8F1000F1DD12068012E16D0806929
:1021B00025EA00000004000C12D00020B84211D122
:1021C000002044F8300F20216173A073216941F091
:1021D0002001216120730120BDE8F0874069E7E715
:1021E0000120EBE72068012E0AD0806925EA000073
:1021F0000004000C06D00020B842C9D00020EBE754
:102200004069F3E70120F7E72DE9F04798461646C5
:102210000D4604464FF000094FF0200AC1F307476E
:1022200023E020684069C043400515D42068016858
:1022300041F40071016021686FF480604861C4F866
:10224000309084F83DA084F83E90216C41F0040168
:10225000216484F83C9021E0701C06D0FEF726FA39
:10226000A0EB0800B04203D816B1012F1FD021E027
:102270002068012F15D0806925EA00000004000CB9
:1022800018D000BF44F8309F84F80DA084F80E9059
:10229000216941F02001216184F80C900120BDE802
:1022A000F087406925EA00000004000CEAD12068AC
:1022B000406901E02068806925EA00000004000C04
:1022C000AFD1ECE770B516460D4604461EE0204639
:1022D000FFF7D6FA08B1012070BD681C16D0FEF7D2
:1022E000E5F9801BA84200D885B920684069C04341
:1022F00000060BD5002044F8300F20216173A07335
:10230000216941F0200121612073E4E720684069E0
:10231000C0430006DBD4002070BD0000094808B5AA
:10232000416941F0010141614069002200F0010072
:1023300000900A211020FEF73DFEBDE80840102065
:10234000FEF72ABE001002402DE9F04186B00020C1
:1023500000900190029003901F48816941F0200194
:102360008161816901F020010491816941F00801D6
:102370008161816901F008010491816941F00401E2
:1023800081618069154F00F004004FF4805404907F
:10239000002221463846FEF783F9DFF844804FF4E7
:1023A0001066002231464046FEF77AF90094012477
:1023B0000225694638460194CDE90245FEF780F8CA
:1023C000CDE9006469464046CDE90245FEF778F85C
:1023D00006B0BDE8F081000000100240000C014092
:1023E000000801400D4810B50B4901600C494160DF
:1023F00000214FF480428160C0E903124161816194
:10240000C1610162FEF7D6FA002803D0BDE8104092
:10241000FDF7E2BE10BD000000540040180000208F
:10242000801A0600FEE7FEE770477047FEF75CBDC6
:1024300030B58FB028216846FDF77DFE14210AA82B
:10244000FDF779FE01210804CDE900100024029473
:1024500002250491CDE907504FF4E0100990684639
:10246000FEF7A6FE08B172B6FEE70F20CDE90A0519
:102470004FF48060CDE90C4002210AA80E94FEF7CB
:10248000CBFD002801D072B6FEE70FB030BD70471B
:10249000FEE700000FB4084B10B504A902AA039888
:1024A00000F02CF8044602A9002000F0D1F82046E4
:1024B00010BC5DF814FB0000512600080907090E46
:1024C000002804DB00F1E02080F80014704700F0E1
:1024D0000F0000F1E02080F8141D704702E008C8EA
:1024E000121F08C1002AFAD170477047002001E08E
:1024F00001C1121F002AFBD1704700002DE9FF4FD8
:1025000089B09B460446002506E025280BD05A4694
:102510000B999047641C6D1C20780028F5D10DB0F4
:102520002846BDE8F08F0027B8460122474900E061
:10253000074314F8013F203B02FA03F00842F7D1A9
:1025400020782E2819D114F8010F47F004072A2803
:102550000ED06FF02F022078A0F1300109290CD89D
:1025600008EB880102EB410100EB0108641CF2E773
:102570000A98641C50F8048B0A9020780028CED06A
:10258000642808D0692806D075281ED05A460B99B1
:1025900090476D1C58E00A994FF00A0901C90A9149
:1025A000002802DA40422D2102E0390504D52B2112
:1025B0008DF82010012103E0F90704D02021F7E76E
:1025C0008A4608AE0DE00021FAE70A994FF00A09A1
:1025D00001C90A91F7E74946FDF7B8FD303106F821
:1025E000011D0028F7D1ADEB060000F120097807A6
:1025F00001D44FF00108C84502DDA8EB090000E056
:1026000000208046002706E008A85A46C05D0B99C6
:1026100090476D1C7F1C5745F6DB04E030205A467E
:102620000B9990476D1CB8F10001A8F10108F5DC89
:1026300005E016F8010B5A460B9990476D1CB9F14D
:102640000001A9F10109F4DC641C65E70928010017
:102650000A68531C0B601070704700008AB0FEF7C8
:102660004BFCFFF7E5FEFFF76FFEFFF757FEFFF7A6
:10267000B9FE00F00BF9002000F0D0F80124002191
:102680003F237F220846009400F0A6F80A210F207D
:1026900000F0AAF91748009490E80E0016A000F088
:1026A00065FA01230C2228211E2000F035F8322380
:1026B0006E221E215020009400F0BCF8124E00251E
:1026C0006D1C2A4611A101A8FFF7E4FE002000F0CE
:1026D000A5F814210A2000F087F9009496E80E006E
:1026E00001A800F043FA00F0ADF91E20FDF7D6FE78
:1026F000E6E700009440000853797374656D20523A
:102700006561647921000000A0400008436F756E88
:10271000743A2025640000002DE9FF4F80465542A1
:10272000022000260F4600EB4504B8F1800F39D295
:10273000402F37D207EB0609A8EB050B09F0FF0184
:102740000BF0FF00039A00F02FF808EB050A09F0E0
:10275000FF010AF0FF00039A00F026F8A7EB060934
:1027600009F0FF010AF0FF00039A00F01DF809F0DC
:10277000FF010BF0FF00039A00F016F82046B44268
:1027800008DC761C00EB4604641CF54202D1A8422A
:1027900000DC0020A84203DD6D1C04EB4504641C32
:1027A000002DC7DDBDE8FF8F30B580280ED240294F
:1027B0000CD2012401F00705AC40064BC90800EB20
:1027C000C110012A195C02D0A143195430BD214324
:1027D000FBE70000B00000202DE9F8419846079C77
:1027E00017460E4605460B46009400F0B3F83A46ED
:1027F000434631461046009400F0ACF843462A4662
:1028000019463846009400F0A5F82A46334641465A
:102810001046009400F09EF8BDE8F88128B1FF2230
:102820004FF480610248FDF77FBC0022F8E700000A
:10283000B00000202DE9F0439042DDF81C9001D853
:10284000044600E01446A04600D8104606469942C9
:1028500001D80C4600E01C4600D819460F460EE091
:10286000454606E04A4621462846FFF79DFF6D1C77
:10287000EDB2B54201D8802DF4D3641CE4B2BC4261
:1028800001D8402CECD3BDE8F083000010B56420E3
:10289000FDF704FE002000F0ADF8202000F044F920
:1028A000002000F041F9B02000F03EF9C82000F00F
:1028B0003BF9002000F038F9102000F035F94020F5
:1028C00000F032F9FF2000F084F8A12000F02CF98C
:1028D000A62000F029F9A82000F026F93F2000F0FA
:1028E00023F9A42000F020F9D32000F01DF90020E6
:1028F00000F01AF9D52000F017F9F02000F014F9D3
:10290000D92000F011F9222000F00EF9DA2000F0B1
:102910000BF9122000F008F9DB2000F005F9202067
:1029200000F002F98D2000F0FFF8142000F0FCF810
:10293000012000F05FF80020FFF770FF00F066F85C
:1029400003480021018041800121017110BD000078
:10295000120000202DE9FC4F07469A4690460E468D
:10296000D41B00D56442BAEB060000D54042814634
:102970004FF0FF30474501D2012100E001460191AF
:102980005146564500D201208346A4EB0905404636
:102990000B9AFFF709FFC9F10000009013E03146E0
:1029A00038460B9AFFF700FF00996800884204DD63
:1029B0000199A5EB09053944CFB2A04203DA06EB31
:1029C0000B002544C6B24745E9D15645E7D1BDE8DD
:1029D000FC8F10B50446812000F0A6F82046BDE823
:1029E000104000F0A1B80000014A108051807047EB
:1029F00012000020044910B1AF20012201E0AE20F6
:102A000000224A7100F090B81200002070B50C4D01
:102A1000002400BF04F1B000C0B200F085F800202F
:102A200000F082F8102000F07FF805EBC410802140
:102A300000F08CF8641CE4B2082CEBD370BD0000ED
:102A4000B00000201CB50B4C207808B101201CBD43
:102A50000120207081020848CDE9000101234022B5
:102A600078210648FEF714F90028F0D000202070E5
:102A7000ECE7000010000020B0000020180000204B
:102A80002DE9FF4F93460098A0F12008B8F15F0FA1
:102A900010D213B113F8086000E0CEB221480288CA
:102AA0003244802A06D882464088C1F3072738443A
:102AB000402803D9002004B0BDE8F08F002525E0B0
:102AC00008FB075100243BF811901CE009FA04F0C0
:102AD000000409D59AF802109AF80000294420440D
:102AE000C9B2C0B20D9A0BE00D98C0B15FF0000200
:102AF0009AF802109AF8000029442044C9B2C0B2E2
:102B0000FFF752FE641CB442E0D36D1CAF42D7D82D
:102B1000BAF800103144AAF800100098CBE701225F
:102B2000E6E700001200002001B584B001214FF05B
:102B3000FF3204A88DE807000B46002278210248E6
:102B4000FEF70EF805B000BD180000200EB54FF0DE
:102B5000FF3289B28DE80700012340227821024824
:102B6000FDF7FEFF0EBD0000180000202DE9F84122
:102B70000E46174698460446079D0CE043463A46E3
:102B800031460095FFF77CFF2178884202D0C8B219
:102B9000BDE8F881641C20780028EFD1C0B2F7E7C7
:102BA000010202030405060708090A0B0C0D0E0FAB
:102BB00010100000000000000000010203040607DE
:102BC00008090000000001020304000000000000EA
:102BD00000000000000000000000000000000010E5
:102BE0000010001000100010001000000010000085
:102BF000000000280028002800000000000000005D
:102C000000000000000000240024007C0024004894
:102C1000007C0048004800000000003800540050CC
:102C20000038001400540054003800100000002048
:102C30000054005800300028005400140008000020
:102C40000000001000280028001000340048004850
:102C50000034000000000010001000100000000010
:102C6000000000000000000000000008001000202C
:102C7000002000200020002000200010000800207C
:102C800000100008000800080008000800080010F4
:102C90000020001000380010002800000000000094
:102CA0000000000000000000000000100010007C88
:102CB00000100010000000000000000000000000F4
:102CC00000000000000000000010001000100000D4
:102CD00000000000000000000038000000000000BC
:102CE00000000000000000000000000000000000E4
:102CF0000010000000000008000800100010001084
:102D000000100020002000000000003800440044B3
:102D1000005400440044004400380000000000104B
:102D200000300050001000100010001000100000D3
:102D30000000003800440044000400080010002097
:102D4000007C00000000003800440004001800046B
:102D500000040044003800000000000800180028AB
:102D600000280048007C0008000800000000007CEB
:102D700000400040007800040004004400380000D7
:102D80000000003800440040007800440044004443
:102D9000003800000000007C000400080010001053
:102DA0000020002000200000000000380044004403
:102DB000003800440044004400380000000000389F
:102DC000004400440044003C00040044003800007B
:102DD00000000000000000100000000000000000E3
:102DE00000100000000000000000000000100000C3
:102DF0000000000000100010001000000000000C97
:102E0000003000400030000C000000000000000016
:102E100000000000007C0000007C000000000000BA
:102E200000000000000000600018000400180060AE
:102E300000000000000000380044000400080010FA
:102E40000010000000100000000000380044004C9A
:102E50000054005C004000400038000000000010FA
:102E60000028002800280028007C004400440000BE
:102E7000000000780044004400780044004400440E
:102E8000007800000000003800440040004000408E
:102E9000004000440038000000000070004800447A
:102EA0000044004400440048007000000000007C22
:102EB00000400040007C004000400040007C0000DA
:102EC0000000007C004000400078004000400040CE
:102ED0000040000000000038004400400040005C5A
:102EE0000044004400380000000000440044004456
:102EF000007C00440044004400440000000000380E
:102F00000010001000100010001000100038000029
:102F10000000000400040004000400040004004455
:102F200000380000000000440048005000600050DD
:102F300000480048004400000000004000400040FD
:102F40000040004000400040007C000000000044C1
:102F5000006C006C00540044004400440044000035
:102F6000000000440064006400540054004C004C15
:102F700000440000000000380044004400440044C5
:102F80000044004400380000000000780044004481
:102F9000004400780040004000400000000000387D
:102FA000004400440044004400440054003800043D
:102FB00000000078004400440044007800480048C5
:102FC00000440000000000380044004000300008C9
:102FD00000040044003800000000007C00100010D5
:102FE000001000100010001000100000000000444D
:102FF0000044004400440044004400440038000001
:10300000000000440044004400280028002800106C
:10301000001000000000004400440054005400541C
:10302000006C002800280000000000440028002850
:103030000010001000280028004400000000004498
:1030400000440028002800100010001000100000AC
:103050000000007C00040008001000100020004068
:10306000007C00000000001800100010001000108C
:1030700000100010001000100018002000200010A8
:1030800000100010001000080008000000000030D0
:1030900000100010001000100010001000100010B0
:1030A000003000100028002800440000000000004C
:1030B0000000000000000000000000000000000010
:1030C000000000000000000000FE002000100000D2
:1030D00000000000000000000000000000000000F0
:1030E000000000380044003C0044004C0034000064
:1030F00000000040004000580064004400440064A8
:1031000000580000000000000000003800440040AB
:1031100000400044003800000000000400040034B7
:10312000004C00440044004C00340000000000004B
:10313000000000380044007C0040004400380000DB
:103140000000000C0010007C0010001000100010A7
:10315000001000000000000000000034004C00449B
:103160000044004C00340004007800400040005847
:1031700000640044004400440044000000000010CB
:10318000000000700010001000100010001000007F
:10319000000000100000007000100010001000106F
:1031A0000010001000E000400040004800500060A7
:1031B00000500048004400000000007000100010A3
:1031C00000100010001000100010000000000000AF
:1031D00000000078005400540054005400540000D3
:1031E0000000000000000058006400440044004457
:1031F00000440000000000000000003800440044CB
:1032000000440044003800000000000000000058A6
:103210000064004400440064005800400040000086
:1032200000000034004C00440044004C0034000412
:10323000000400000000005800640040004000400E
:103240000040000000000000000000380044003092
:103250000008004400380000000000200020007832
:1032600000200020002000200018000000000000C6
:1032700000000044004400440044004C00340000BE
:10328000000000000000004400440028002800283E
:103290000010000000000000000000540054005422
:1032A000006C00280028000000000000000000441E
:1032B000002800100010002800440000000000005A
:1032C00000000044004400280028001000100010F6
:1032D000006000000000007C00080010002000409A
:1032E000007C0000000000180010001000100020FA
:1032F0000020001000100010001800100010001036
:10330000001000100010001000100010001000301D
:10331000001000100010000800080010001000103D
:1033200000300000000000000074004C00000000AD
:10333000000000000000000000000000000000008D
:10334000000000000000000000000000000000007D
:10335000000000000000000000000000000C000C55
:10336000000C000C000C000C000C000C000C000CFD
:10337000000C0000000C000C000000000000000029
:10338000001B001B001B001B001B000000000000B6
:10339000000000000000000000000000000000002D
:1033A000000000008019801980198019C07FC07F3B
:1033B00080190033C07FC07F0033003300330033F7
:1033C0000000000000000000001E003F80758065C6
:1033D0000074003C001E00078005806580658075D4
:1033E000003F001E0004000400000000007000D830
:1033F00040D8C0D880D900730006000C801BC036AE
:10340000C066C046C0068003000000000000000047
:10341000001E003F003300330033001E000CC03C90
:10342000C066806380618063C03E801C0000000035
:1034300000000000000C000C000C000C000C000050
:10344000000000000000000000000000000000007C
:1034500000000000000080000001000300060006DC
:103460000004000C000C000C000C000C000C00040C
:103470000006000600030001800000200010001874
:10348000000C000C00040006000600060006000602
:1034900000060004000C000C0018001000200000C2
:1034A000000C002D003F001E003300000000000053
:1034B000000000000000000000000000000000000C
:1034C0000000000000000000000C000C000C000CCC
:1034D000C0FFC0FF000C000C000C000C000000003E
:1034E00000000000000000000000000000000000DC
:1034F00000000000000000000000000000000000CC
:10350000000C000C00040004000800000000000093
:10351000000000000000000000000000001E001E6F
:10352000000000000000000000000000000000009B
:10353000000000000000000000000000000000008B
:103540000000000000000000000C000C0000000063
:103550000000000000030003000300060006000650
:103560000006000C000C000C000C001800180018DD
:103570000000000000000000001E003F00338061DA
:1035800080618061806D806D8061806180610033C9
:10359000003F001E00000000000000000006000EBA
:1035A000001E003600260006000600060006000683
:1035B00000060006000600060000000000000000F3
:1035C000001E003F8073806180618001000300065F
:1035D000000C001800300060807F807F0000000039
:1035E00000000000001C003E006300630003000EAA
:1035F000000E00038001800180618073003F001E87
:1036000000000000000000000006000E000E001E7A
:10361000001E0016003600360066807F807F0006A0
:10362000000600060000000000000000007F007F90
:10363000006000600060006E007F80638001800198
:1036400080618073003F001E000000000000000049
:10365000001E003F803380610060006E007F807339
:103660008061806180618033003F001E00000000A7
:1036700000000000807F807F8001000300030006BF
:103680000006000C000C000C0008001800180018C0
:103690000000000000000000001E003F8063806109
:1036A00080610021001E003F806180618061806137
:1036B000003F001E0000000000000000001E003F50
:1036C00000738061806180618073803F801D800114
:1036D00080610073003F001E000000000000000039
:1036E0000000000000000000000C000C00000000C2
:1036F0000000000000000000000C000C00000000B2
:103700000000000000000000000000000000000CAD
:10371000000C00000000000000000000000C000C85
:103720000004000400080000000000000000800009
:103730008003000E003800600038000E8003800017
:103740000000000000000000000000000000000079
:1037500000000000807F807F00000000807F807F6D
:103760000000000000000000000000000000000059
:1037700000000000000000400070001C00078001F5
:103780000007001C00700040000000000000000066
:1037900000000000001F803FC071C060C000C00179
:1037A00080030007000E000C000C0000000C000C51
:1037B0000000000000000000001E003F803180710A
:1037C0008063806F806D806D806F806700600032E5
:1037D000003E001C0000000000000000000E000E73
:1037E000001B001B001B001B80318031803F803F8D
:1037F0008031C060C060C0600000000000000000B8
:10380000007C007E0063006300630063007E007E36
:103810000063806180618063007F007E00000000A3
:1038200000000000001E003F8031806100600060E9
:10383000006000600060006080618031003F001E19
:103840000000000000000000007C007F0063806337
:10385000806180618061806180618061006300635C
:10386000007E007C0000000000000000807F807F60
:103870000060006000600060007F007F006000600A
:1038800000600060807F807F00000000000000007A
:10389000807F807F0060006000600060007F007FAC
:1038A00000600060006000600060006000000000D8
:1038B00000000000001E003F803180610060006059
:1038C000006080638063806180618031803F001E82
:1038D0000000000000000000806180618061806164
:1038E00080618061807F807F806180618061806194
:1038F000806180610000000000000000003F003F88
:10390000000C000C000C000C000C000C000C000C57
:10391000000C000C003F003F000000000000000011
:10392000800180018001800180018001800180018F
:103930008001806180618073003F001E00000000F4
:1039400000000000C0608061006300660066006CDB
:103950000078007C00660066006380618061C06062
:1039600000000000000000000060006000600060D7
:103970000060006000600060006000600060006047
:10398000807F807F0000000000000000C071C071D7
:10399000C07BC07AC06AC06AC06EC064C060C060CC
:1039A000C060C060C060C060000000000000000097
:1039B00080718071807980798079806D806D806D73
:1039C0008065806780678067806380630000000097
:1039D00000000000001E003F0033806180618061B4
:1039E000806180618061806180610033003F001EE2
:1039F0000000000000000000007E007F8063806106
:103A0000806180618063007F007E006000600060F4
:103A1000006000600000000000000000001E003F89
:103A20000033806180618061806180618061806538
:103A300080670033803F401E00000000000000004F
:103A4000007E007F8063806180618063007F007EF4
:103A500000660063006380618061C0600000000058
:103A600000000000000E001F80318031003000385F
:103A7000001E00078003806180618031003F001ECE
:103A80000000000000000000C0FFC0FF000C000CA0
:103A9000000C000C000C000C000C000C000C000CC6
:103AA000000C000C0000000000000000806180613C
:103AB00080618061806180618061806180618061FE
:103AC00080618073003F001E0000000000000000C5
:103AD000C060C060C060803180318031001B001B3D
:103AE000001B001B000E000E000E00040000000072
:103AF00000000000C0C0C0C0C0C0C0C0C0C0C0CCBA
:103B0000804C804C805E80528052807380618061E6
:103B10000000000000000000C0C080608061003331
:103B2000003B001E000C000C001E001F003B8071BB
:103B30008061C0C00000000000000000C0C08061C3
:103B4000806100330033001E001E000C000C000CCE
:103B5000000C000C000C000C000000000000000035
:103B6000803F803F8001000300030006000C000C32
:103B70000018001800300060807F807F0000000087
:103B80000000000F000F000C000C000C000C000CDB
:103B9000000C000C000C000C000C000C000C000CC5
:103BA000000C000F000F0000001800180018000C97
:103BB000000C000C000C00060006000600060003C6
:103BC00000030003000000000000001E001E0006AD
:103BD00000060006000600060006000600060006B5
:103BE00000060006000600060006001E001E00007B
:103BF000000C000C001E0012003300338061806155
:103C000000000000000000000000000000000000B4
:103C100000000000000000000000000000000000A4
:103C20000000000000000000000000000000000094
:103C30000000E0FF0000000000380018000C000049
:103C40000000000000000000000000000000000074
:103C50000000000000000000000000000000000064
:103C600000000000001F803F80618001801F803FB6
:103C700080618063807FC038000000000000000089
:103C80000060006000600060006E007F80738061F3
:103C90008061806180618073007F006E00000000A1
:103CA000000000000000000000000000001E003FB7
:103CB000807380610060006080618073003F001E3F
:103CC00000000000000000008001800180018001F0
:103CD000801D803F8073806180618061806180731E
:103CE000803F801D00000000000000000000000078
:103CF00000000000001E003F00738061807F807F15
:103D000000608071003F001E000000000000000005
:103D1000C007C00F000C000C807F807F000C000CDF
:103D2000000C000C000C000C000C000C000000004B
:103D300000000000000000000000801D803F807334
:103D400080618061806180618073803F801D80011F
:103D50008063007F003E0000006000600060006043
:103D6000006F807F8071806180618061806180618F
:103D70008061806100000000000000000006000675
:103D800000000000003E003E00060006000600069F
:103D90000006000600060006000000000000000605
:103DA000000600000000003E003E0006000600067F
:103DB0000006000600060006000600060046007E1B
:103DC000003C0000006000600060006080610063F3
:103DD0000066006C007C0076006300638061C06058
:103DE0000000000000000000003E003E000600064B
:103DF0000006000600060006000600060006000693
:103E000000060006000000000000000000000000A6
:103E10000000000080DDC0FFC0CEC0CCC0CCC0CC54
:103E2000C0CCC0CCC0CCC0CC000000000000000062
:103E30000000000000000000006F807F8071806142
:103E4000806180618061806180618061000000002C
:103E5000000000000000000000000000001E003F05
:103E6000807380618061806180618073003F001E8B
:103E70000000000000000000000000000000006ED4
:103E8000007F807380618061806180618073007FCA
:103E9000006E006000600060006000000000000034
:103EA0000000801D803F807380618061806180613F
:103EB0008073803F801D80018001800180010000AF
:103EC00000000000000000000067803F0039003063
:103ED00000300030003000300030003000000000C2
:103EE000000000000000000000000000001E803FF5
:103EF00080610060007F803F80018061007F001E44
:103F00000000000000000000000000080018001879
:103F1000007F007F00180018001800180018001813
:103F2000801F800F00000000000000000000000063
:103F3000000000008061806180618061806180613B
:103F400080618063807F803D0000000000000000F1
:103F50000000000000000000C0608031803180312E
:103F6000001B001B001B000E000E000600000000DE
:103F700000000000000000000000000080DD80DD87
:103F800080DD0055005500550077007700220022A3
:103F90000000000000000000000000000000000021
:103FA000806100330033001E000C000C001E003343
:103FB00000338061000000000000000000000000ED
:103FC000000080618061803100330033001B001BE2
:103FD000001B000E000E000E001C007C0070000094
:103FE0000000000000000000C07FC07F80010003CF
:103FF0000006000C00180030C07FC07F00000000E9
:104000000000800380070006000600060006000688
:10401000000E001C001C000E000600060006000634
:104020000006800780030006000600060006000662
:104030000006000600060006000600060006000650
:10404000000600060006000600060038003C000CD2
:10405000000C000C000C000C000E00070007000E06
:10406000000C000C000C000C000C003C00380000A0
:104070000000000000000000000000008038807F89
:1040800000470000000000000000000000000000E9
:1040900000000000070A0000CA2B00080000000012
:1040A0000B1200003633000800000000CC4000086E
:1040B0000000002018000000DC240008E440000894
:1040C0001800002098080000EC24000801000000FF
:1040D000100000000000000000127A000000000044
:0440E00000000000DC
:04000005080000ED02
:00000001FF
