:020000040800F2
:10000000081300200501000833270008A118000884
:100010003127000893010008352A0008000000007D
:10002000000000000000000000000000372700086A
:10003000E301000800000000352700083927000808
:100040001F0100081F0100081F0100081F01000810
:100050001F0100081F0100081F0100081F01000800
:100060001F0100081F0100081F0100081F010008F0
:100070001F0100081F01000895010008A1010008E8
:10008000AD0100081F0100081F0100081F01000842
:100090001F0100081F0100081F0100081F010008C0
:1000A0001F0100081F0100081F0100081F010008B0
:1000B0001F0100081F0100081F010008B1180008F7
:1000C000A51800081F0100081F0100081F010008F3
:1000D0001F010008292A00081F0100081F0100084D
:1000E0001F0100081F0100081F010008DFF810D0E1
:1000F00000F02CF8004800473B2B0008AFF30080CD
:10010000081300200648804706480047FEE7FEE740
:10011000FEE7FEE7FEE7FEE7FEE7FEE7FEE7FEE7B7
:100120009B270008ED000008D2B201E000F8012B87
:10013000491EFBD270470022F6E710B513460A4667
:1001400004461946FFF7F0FF204610BD064C074D48
:1001500006E0E06840F0010394E807009847103497
:10016000AC42F6D3FFF7C6FF282D0008482D000843
:10017000FEB50124C10F00234FF47A72002800DA83
:100180004042012500268DE86100204600F02AF853
:10019000FEBDFEE7014800F0BDB800004C010020A4
:1001A000014800F0B7B8000090010020014800F0BD
:1001B000B1B80000C000002030B590F840500124D4
:1001C000AC40C56B6C60046863604368102B0368C7
:1001D00003D099600068C26030BD9A600068C16059
:1001E00030BD7047F0B40E4CDDE90457069E207018
:1001F000FD206070A170100AE07022716371280EFA
:10020000A071280CE071280A20726572A772E6724C
:100210006B2020732146F0BC0D22024801F002BB86
:10022000440C00200401002072B6FEE710B590F8DF
:1002300021100022022905D00421816380F82020AA
:10024000012010BD01680B6823F00E030B600168EC
:100250000B6823F001030B6090F84030C46B012160
:1002600001FA03F3636080F8211080F82020104623
:1002700010BD000010B590F821100024022903D011
:100280000421816301243DE001680A6822F00E0226
:100290000A6001680A6822F001020A601A4A0168CD
:1002A000914201D1012121E0174A1432914201D13A
:1002B00010211BE0144A2832914201D1891515E022
:1002C000114A3C32914201D189140FE00E4A50325A
:1002D000914202D14FF4803108E00B4A64329142DE
:1002E00002D14FF4801101E04FF08071064A083AC4
:1002F0005160012180F82110002180F82010416B0D
:1003000001B18847204610BD0800024090F8210046
:10031000704700002DE9F05FC16B0C6801680B6845
:10032000D0F840C0042202FA0CF2494DDFF824A1B3
:10033000494E4A4FDFF828B1DFF828E122422CD09D
:100340005A072AD50A68920603D40A6822F00402E2
:100350000A600168A94201D1042219E0514501D186
:10036000402215E0B14202D14FF4806210E0B94260
:1003700002D14FF480420BE0594502D14FF4802264
:1003800006E0714502D14FF4800201E04FF0806237
:100390002F4908394A60C16A3BE04FF0020808FA69
:1003A0000CF818EA040F4FF000094FF0010235D0A5
:1003B0005FEA837832D50B689B0605D40B6823F07F
:1003C0000A030B6080F821200168A94201D10222B2
:1003D00019E0514501D1202215E0B14202D14FF47C
:1003E000007210E0B94202D14FF400520BE05945BF
:1003F00002D14FF4003206E0714502D14FF40012F1
:1004000001E04FF00072124908394A6080F82090EC
:10041000816A00291AD0BDE8F05F0847082505FA6F
:100420000CF5254212D01B0710D50B6823F00E03E4
:100430000B6090F84010C36B02FA01F159608263BF
:1004400080F8212080F82090016BE2E7BDE8F09F62
:10045000080002401C0002403000024044000240FC
:10046000580002406C00024030B528B308C8134958
:1004700014221944B1FBF2F18900C1631049816370
:10048000022141771A6843F6F0718A43D0E90014DB
:100490002143D0E902452C432143046921434469A7
:1004A00021438469214311431960002141630122E2
:1004B00042770177084630BD012030BDF8FFFDBF0F
:1004C0000000024070B5044690F820000025012885
:1004D0000CD0012084F8200094F821600020012E27
:1004E00006D084F820000225284670BD022070BD89
:1004F000022684F82160A0632068066826F00106C1
:1005000006602046FFF758FEE06A00282068016870
:1005100002D041F00E0106E021F0040101602068E4
:10052000016841F00A0101602068016841F00101A1
:100530000160D9E770B5044600F010F90546601C6B
:1005400002D004480078044400F008F9401BA0429F
:10055000FAD370BD000000202DE9F84FDFF8B89104
:100560000024A9F1040B23460F2709F1040AABF17B
:10057000040EC9E00125A5402A40AA427DD1674E5C
:10058000D1F804C0ACEB0608B44532D014DCBCF1A1
:10059000030F3AD009DCBCF1000F2AD0BCF1010FE7
:1005A0001CD0BCF1020F31D11DE0BCF1110F17D0EE
:1005B000BCF1120F2AD119E0B8F5881F19D006DC5A
:1005C000B8F5803F15D0B8F5801F1FD111E0B8F500
:1005D000001F0ED0B8F5041F18D10AE0CB6815E053
:1005E000CB681B1D12E0CB6808330FE0CB680C33DF
:1005F0000CE08B682BB1012B4FF0080303D0456151
:1006000004E0042302E0056100E00023FF2A01D892
:10061000064601E000F104064FEA840501D9A5F180
:100620002005D6F8008007FA05FC28EA0C0803FA32
:1006300005F548EA0508C6F800804D68ED0062D56A
:10064000374DAE6946F00106AE61AD6924F0030690
:1006500005F001050095334D06EB050CDCF808505C
:10066000A607360F07FA06F825EA0805DFF8B8806E
:10067000404503D14FF0000817E044E0DFF8AC80BC
:10068000404502D14FF001080FE0DFF8A48040455B
:1006900002D14FF0020808E0DFF89880404502D10F
:1006A0004FF0030801E04FF0040808FA06F848EAA2
:1006B0000508CCF808804D68D9F80060ED024D4679
:1006C00001D5164300E096432E604D68DAF80060CD
:1006D000AD02554601D5164300E096432E604D68A5
:1006E000DBF80060AD035D4601D5164300E096439C
:1006F0002E604D68DEF80060ED03754601D51643A7
:1007000000E096432E60641C0D682A46E5407FF4A5
:1007100031AFBDE8F88F000008040140000011105F
:10072000001002400000014000080140000C0140A0
:1007300000100140001401408068084000D00120F2
:100740007047C26821EA02030A4043EA024101619C
:1007500070470AB1016170470904FBE701488068EE
:100760007047000000000020704770472DE9F041FD
:10077000016804464A694E6890F83E000025D74358
:10078000FA050BD4F243D20508D46FF48072012528
:100790004A6121680A6842F400420A60B90508D437
:1007A000F143C90505D422686FF4007145F00205D4
:1007B0005161790525D4F143C90522D4638D94F89C
:1007C0003D10226B202808D13BB9212910D02929BE
:1007D0000ED0282901D1212A0AD022686FF4806125
:1007E000516145F00405102806D0402804D008E0E7
:1007F000204601F0CFFC04E02068016841F400715C
:100800000160380508D4F043C00505D421686FF4B1
:10081000006045F008054861002D07D0206C284392
:1008200020642046BDE8F04101F0AEB8BDE8F0819B
:100830002DE9F047026800215368C66A90F83E40EF
:1008400090F83D50102C12D0402C10D0046C002C8D
:100850007DD05469E443A6077AD4DE43B60577D445
:10086000036C03B19169BDE8F04701F06FBC976973
:1008700051694FF42A0CC9435FEAC1784FF02A4905
:1008800004D066452AD04E4528D010E0DE43B60598
:100890000DD4C16A614501D1012103E0C16A494516
:1008A00001D10821C162BDE8F04701F061BB0E072C
:1008B00016D4DE43B60513D4416CC9B21161416B45
:1008C00009B1896A29B9816B002907D0896A002991
:1008D00004D00068416841F400614160BDE8F087E0
:1008E0008E0706D4DE43B60503D4BDE8F04701F019
:1008F00093BAFE43526876074FEA02521DD4002A8B
:10090000ECDB0A0608D4DA43520505D4490705D5BD
:10091000BDE8F04701F024BA4907DFD4D94389057F
:10092000DCD4212D05D0402CD8D1BDE8F04701F012
:1009300065BBBDE8F04701F0D1B9002ACEDB4A061D
:100940000BD4DA43520508D4490708D501E00DE07D
:100950000EE0BDE8F04701F047B94907BED4D943DE
:100960008905BBD4BDE8F04701F0D1B8916970E7C3
:10097000E10606D4D943890503D4BDE8F04701F068
:1009800051BC2821212D27D0292D25D0650655D4ED
:10099000DD436D0552D4640752D590F83D30448D47
:1009A000002C9BD01269446A2270426A521C426237
:1009B000428D521E4285428D002A8FD12A2B8DD125
:1009C0000268536823F4806353602222026380F834
:1009D0003D1000F035FA81E7250623D4DD436D058F
:1009E00020D4640720D590F83D30448D002CF2D0FF
:1009F000446A24781461426A521C4262428D521E3B
:100A00004285428D002AE6D1292BE4D10268536841
:100A100023F4806353602122026380F83D1000F0CC
:100A200010FA5BE76107D6D4D9438905D3D4418D49
:100A30000029D0D0416A097811610AE06107CAD45F
:100A4000D9438905C7D4418D0029C4D01169426AB0
:100A50001170416A491C4162418D491E41853DE743
:100A60007047000070B5040025D094F83D000025C3
:100A700020B984F83C50204600F062F9242084F824
:100A80003D002068016821F00101016020680168D3
:100A900041F4004101602068016821F400410160D7
:100AA00000F0FEFA4D4A6168914201D84C4900E0DD
:100AB0004C49884201D2012070BD4B492368B0FBEC
:100AC000F1F15E6826F03F060E435E606368934274
:100AD00006D94FF4967359434FF47A73B1FBF3F18F
:100AE0002368491C1E6A26F03F063143196261687B
:100AF000914210D84900401EB0FBF1F2521CC2F3E3
:100B00000B02042A01D2042022E0B0FBF1F0401CC9
:100B1000C0F30B001CE0A268F2B301EBC10303EBCE
:100B20000116431EB3FBF6F35B1C43F480431B0525
:100B300049D092B301EBC10202EB0111401EB0FBA0
:100B4000F1F0401CC0F30B0040F4804040F4004042
:100B50002168CA694CF6FF739A431043C861D4E90F
:100B6000071001432068026822F0C00211430160AF
:100B7000D4E9030101432068826848F2FF339A43B5
:100B800011438160D4E9050108432168CA6822F055
:100B9000FF021043C86001E00EE016E02068016823
:100BA00041F0010101602564202084F83D002563A7
:100BB00084F83E50002070BD01EB4106431EB3FB9C
:100BC000F6F35B1CB3E70120C2E701EB4101401ED5
:100BD000B0FBF1F0401CC0F30B00B7E7A0860100AA
:100BE00080841E0000093D0040420F00704770479E
:100BF00070477047044900680968884202D1034978
:100C0000002008707047000018000020100000202D
:100C10002DE9FF4F83B09A46DDE9119793460446CC
:100C2000DDF84080FFF79AFD054694F83D00202846
:100C30007FD11923012240492046009501F0CCFBC9
:100C4000002876D194F83C00012872D0012084F865
:100C50003C0020680168C90703D1016841F0010127
:100C600001602068016821F400610160212084F89E
:100C70003D00402084F83E0000262664C4F824800D
:100C8000A4F82A90608D20852C48E062CDE900759B
:100C900053465A462046049901F004FA70B930E0F0
:100CA0002A463946204601F03DFC58B1206C042804
:100CB00004D12068016841F400710160012007B08F
:100CC000BDE8F08F606A216800780861606A401CA6
:100CD0006062218D491E89B22185628D521E628516
:100CE00022685369DB435B070BD469B1007810615C
:100CF000606A401C6062208D401E2085608D401E11
:100D00006085208D0028CBD12A463946204601F047
:100D100037FB0028CAD154F83D0B016841F400713B
:100D20000160202004F81E09E67766770020C6E7F8
:100D3000FFE70220C3E70000020010000000FFFFF1
:100D4000F0B585B0002500950195029503950646FE
:100D5000344F0268344C12200321344BBA4244D140
:100D6000A26942F00802A261A269039102F008029E
:100D700004920A02CDE9002069461846FFF7ECFB11
:100D80002B48416841F0E06141F002014160E069B7
:100D900040F40010E061E069274C00F4001004907A
:100DA000244820601020C4E901058020C4E903051F
:100DB0006561A5612046E561FFF756FB08B1FFF7C5
:100DC00033FA746300220A211F20666200F0A0F843
:100DD0001F2000F08FF800220A21202000F098F850
:100DE000202000F087F805B0F0BD144DAA42FAD1DA
:100DF000A26942F00802A261A269039102F008020E
:100E000004924FF44062CDE9002069461846FFF78E
:100E1000A3FBE06940F48000E061E06900F4800039
:100E20000490E0E70054004000100240000C014034
:100E3000000001406C000240C0000020005800404B
:100E4000704770470248816802781144816070479A
:100E500000000020074810B5016841F01001016052
:100E6000032000F075F80F2000F006F800F024F8D9
:100E7000002010BD0020024070B50D4D04464FF417
:100E80007A712878B1FBF0F00A490968B1FBF0F0FB
:100E900000F0DCFA48B9102C07D200222146501E7F
:100EA00000F036F800206C6070BD012070BD0000BD
:100EB000000000200C0000200C4808B5816941F0BA
:100EC00001018161816901F001010091C16941F075
:100ED0008051C161C06900F08050009004484168B1
:100EE00021F0E06141F00071416008BD0010024056
:100EF00000000140002809DB00F01F0201219140A1
:100F00004009800000F1E020C0F8001170470000A7
:100F1000F0B40E4B1B680C46C3F30223C3F1070564
:100F2000042D00D90425191D072901D2002300E052
:100F3000DB1E012606FA05F1491E214099409E401C
:100F4000761E16403143F0BC01F0D8BD0CED00E038
:100F5000064900F0070208684FF6FF03184040EA10
:100F60000220034A10430860704700000CED00E0C7
:100F70000000FA052DE9F0470F46050061D0434E09
:100F8000306800F00700B84209D2306820F007004E
:100F900038433060306800F00700B84251D128680B
:100FA0003B4C810712D5400703D5606840F4E060F0
:100FB00060602878000703D5606840F46050606086
:100FC0006068A96820F0F000084360602878C007D6
:100FD00028D06868012810D02168022810D089071D
:100FE00000292EDA616821F0030101436160FFF7F7
:100FF000B5FB804641F288390DE021688903EFE7AF
:101000008901EDE7FFF7AAFBA0EB0801494502D9EA
:101010000320BDE8F0876068696800F00C00B0EB61
:10102000810FEFD1306800F00700B8420BD930686B
:1010300020F0070038433060306800F00700B84205
:1010400001D00120E5E72878400705D56068E96808
:1010500020F4E060084360602878000706D56068E7
:10106000296920F4605040EAC100606000F038F85F
:101070006168084AC1F30311515CC8400649086021
:1010800006480068FFF7F8FE0020C2E70020024093
:10109000001002400E2D00080C000020040000206B
:1010A0000448054900684968044AC1F30221515CBB
:1010B000C84070470C000020001002401E2D0008A0
:1010C0000448054900684968044AC1F3C221515CDB
:1010D000C84070470C000020001002401E2D000880
:1010E0000E4A51680E4801F00C03042B11D0082B56
:1010F0000FD10C48C1F38343C903C05C0AD55168C2
:10110000084AC1F34041921E515C054A5043B0FB6E
:10111000F1F0704704494843704700000010024056
:1011200000127A00FE2C000800093D002DE9F84F5E
:10113000040070D02078C04DC00749D06868C0F363
:101140008100012807D06868C0F38100022809D116
:101150006868C00306D52868800339D56068002810
:10116000E7D035E06068B0F5803F0BD010B1B0F546
:10117000A02F11D0286820F480302860286820F43F
:10118000802002E0286840F480302860606890B1D8
:10119000FFF7E4FA06460AE0286840F48020286059
:1011A000F0E700BFFFF7DAFA801B642873D82868DD
:1011B0008003F7D50CE0FFF7D1FA064605E000BF43
:1011C000FFF7CCFA801B6428F0D828688003F7D496
:1011D00020789A4E80074FF001094FF0000839D56A
:1011E000686810F00C0F07D06868C0F3810002280F
:1011F00009D16868C00306D42868800714D520691F
:10120000012808D110E02069B0B1C6F80090FFF7BE
:10121000A5FA074605E00AE1FFF7A0FAC01B02287D
:10122000C4D828688007F7D52868616920F0F800DD
:1012300040EAC10028600DE0C6F80080FFF78EFA92
:10124000074604E0FFF78AFAC01B022823D8286863
:101250008007F7D4207800072CD57948A169D9B147
:10126000C0F80090FFF77AFA074604E0FFF776FA35
:10127000C01B02280FD8686A8007F7D571484FF461
:10128000FA510068B0FBF1F0009000BF0098411ED9
:101290000091FAD20EE080E0C0F80080FFF75EFA1D
:1012A000074604E0FFF75AFAC01B022875D8686A9F
:1012B0008007F7D42078400760D5E8690027C00090
:1012C00008D4E86940F08050E861E869012700F03F
:1012D000805000905C480168C90513D401688346BA
:1012E00041F480710160FFF739FA824606E000BFE1
:1012F000FFF734FAA0EB0A0064284ED8DBF80000B0
:10130000C005F5D5E06801280AD008B1052813D03A
:10131000286A20F001002862286A20F0040002E018
:10132000286A40F001002862E06841F2883B98B1E9
:10133000FFF714FA82460BE0286A40F004002862A6
:10134000EEE700BFFFF70AFAA0EB0A0159455AD8A9
:10135000286A8007F6D50CE0FFF700FA824605E020
:10136000FFF7FCF9A0EB0A0159454CD8286A800721
:10137000F6D41FB1E86920F08050E861E06988B3D5
:101380006968C1F38101022944D00228C6F860804F
:1013900004D0FFF7E3F9044638E034E0FFF7DEF964
:1013A000074604E0FFF7DAF9C01B02282BD82868AB
:1013B0008001F7D4206AB0F5803F05D16868A16844
:1013C00020F4003008436860D4E9080108436968E4
:1013D00021F4741108436860C6F86090FFF7BEF905
:1013E000044606E025E000BFFFF7B8F9001B02281D
:1013F00009D828688001F7D51BE000BFFFF7AEF9D8
:10140000001B022802D90320BDE8F88F286880015C
:10141000F4D40EE00128F7D06868226A00F4803125
:10142000914204D1616A00F47010884201D0012019
:10143000EAE70020E8E70000001002400000424216
:10144000800442420C0000200070004010B5401E95
:10145000B0F1807F01D3012010BD4FF0E024606126
:101460000F21601701F04AFB0020A06107202061D6
:10147000002010BD70477047F8B501680446086841
:10148000CA684B6910F00F0F4FF0000559D003F0F8
:10149000010602F49077374365D0C10705D0D10526
:1014A00003D5616C41F001016164410705D5D9079D
:1014B00003D0616C41F002016164810705D5D90751
:1014C00003D0616C41F004016164010707D502F0AB
:1014D0002001314303D0616C41F008016164616C0B
:1014E00000293AD0800604D5900602D5204601F0A6
:1014F000DDF920684069616CC0F38010090700D4F1
:1015000060B3204601F09DF920684069400621D56E
:101510002068143050E8001F21F0400140E800121C
:10152000002AF5D1E06BA8B16D494163E06BFEF78D
:10153000A1FE002811D0E06B416B01B0BDE8F04086
:10154000084783060FD593060DD52046BDE8F84021
:1015500001F0ACB92046FFF78EFFF8BD2046FFF73B
:101560008AFF6564F8BD266B2023012E7CD1C60658
:101570007AD5D60678D508684868009048694FF053
:101580000206400640D5E16B086840680004000C84
:10159000E8D0A28D8242E5D9E085886920282DD047
:1015A00020680C3050E8001F21F4807140E80012E0
:1015B000002AF5D12068143050E8001F21F0010105
:1015C00040E80012002AF5D12068143050E8001FCE
:1015D00021F0400140E80012002AF5D184F84230A1
:1015E000256320680C3050E8001F21F0100140E80E
:1015F0000012002AF5D1E06BFEF718FE6663A08D9D
:10160000E18D401A81B22AE0A08DE18D401A81B2AD
:10161000E08D0028A6D00029A4D022680C3252E820
:10162000000F20F4907042E80007002FF5D12068E9
:10163000143050E8002F22F0010240E80027002F6C
:10164000F5D184F84230256320680C3050E8002F33
:1016500022F0100240E80023002BF5D166632046FB
:10166000FFF708FFF8BDFFE705062BD5150629D5BE
:1016700094F841002128F5D1A068B0F5805F01D130
:101680002069B0B1206A411C21622168007848605D
:10169000E08C401E0004000CE084E3D12068C168A7
:1016A00021F08001C1602068C16841F04001C16043
:1016B000D8E7206A0088C0F308004860206A801CD0
:1016C0002062E5E74006CDD55006CBD5CA68204656
:1016D00022F04002CA6084F8413000F0DFF8C1E730
:1016E0009D27000870B5040004D094F8410000253F
:1016F00010B106E0012070BD84F84050204600F093
:1017000023F8242084F841002068C16821F40051A6
:10171000C160204601F02CF92068016921F4904154
:1017200001612068416921F02A0141612068C16896
:1017300041F40051C1606564202084F8410084F8C0
:1017400042006563002070BDF0B585B000240646F8
:10175000009401940294039400682C49884253D168
:101760002B48816941F480418161816901F48041A4
:101770000491816941F0040181618069254D00F087
:10178000040004904FF400700090022001900320A8
:10179000039069462846FEF7DFFE2815CDE90004D0
:1017A000694628460294FEF7D7FE1C4D1A4880274A
:1017B00001C5102091C5194845F810496C61AC610C
:1017C000EC61FEF751FE08B1FEF72EFDB5636E62C7
:1017D000124D114844351430C5E90004C5E90247EB
:1017E0002C616C61AC612846EC61FEF73DFE08B1EE
:1017F000FEF71AFDF5630022114625206E62FFF701
:1018000087FB2520FFF776FB05B0F0BD00380140CF
:101810000010024000080140440002404C0100203A
:101820007047000070B5044690F84100202801D0B0
:10183000022070BD49B342B32162A284E284002039
:101840006064212384F84130A56B114BAB62A56B1A
:10185000104BEB62A56B104B2B63A36B5863256891
:1018600013462A1DA06BFEF72DFE21686FF0400085
:1018700008602068143050E8001F41F0800140E803
:101880000012002AF5D1002070BD012070BD0000BB
:10189000F727000839280008AD270008704770476F
:1018A000FEE700000148FEF761BF000018000020BD
:1018B0000148FEF7BDBF00001800002038B5406A9F
:1018C000002190F83D202B4B46F2A8141B68B3FB77
:1018D000F4F3C3EBC30303EB830300933BB15B1E41
:1018E000009303681B689B0505D5009BF6E7036C16
:1018F00043F020030364436B03B19962836B03B12C
:10190000996203681C6824F480641C604185436B01
:1019100003B15963836B03B1596303681C6824F0F6
:1019200001041C6090F83D402023602C0BD028243B
:1019300034EA02020FD080F83D3080F83E1000BF3C
:10194000FFF78EF838BD80F83D3080F83E10016416
:10195000FEF70AFF38BD0268136843F00103136005
:101960000268136843F480631360016380F83D40AC
:10197000E6E700000C00002000684169C943090641
:1019800001D400210161704770B5044690F83D0014
:1019900094F83E10102901D0402906D1222804D104
:1019A00021680A6822F400620A60282131EA0002F4
:1019B0004FF000054FF0200626D021684968090540
:1019C00005D4602803D084F83D6084F83E50256338
:1019D00020684168090537D5416821F400614160FC
:1019E000606B90F821203C49012A11D04163606B63
:1019F000FEF740FC38B32068016821F00101016066
:101A000084F83D60606B1CE0256384F83D10DFE7DF
:101A1000A06B4163A06BFEF72DFCA0B1206841696B
:101A2000C943490605D40069616A0870606A401CB0
:101A300060622068016821F00101016084F83D6066
:101A4000A06B416B884710E094F83D10602910D0DE
:101A50004169C943490605D40069616A0870606A32
:101A6000401C60622046FEF7FBFF206CC1071CD1C2
:101A700015E084F83D6025644169C943490605D4F1
:101A80000069616A0870606A401C606220680168D1
:101A900021F0010101602046FEF766FEE5E78107BF
:101AA00003D4410701D4000704D52068416821F41C
:101AB000E061416094F83D00216C49070BD528286E
:101AC00009D10648E062256384F83D6084F83E5001
:101AD0002046FFF78BF870BDBD1800080000FFFF1F
:101AE00001684A69D24352050FD46FF480624A619B
:101AF000002140F8301F202242738173026942F0B6
:101B0000040202610173012070470020704710B584
:101B1000C26A438D0168042B06D0438D032B08D085
:101B2000438D022B1DD012E04A6822F480624A6085
:101B30000CE04B6823F480634B60042A06D0022A31
:101B400004D001680A6822F480620A6001680969A9
:101B5000426A1170416A491C4162418D491E4185AA
:101B600010BD012A34D0102A32D0042A34D0022ADF
:101B700032D00B6843F400730B6001680969436A53
:101B80001970416A491C4162438D5B1E438503689D
:101B90001B690B70416A491C4162418D491E418598
:101BA00001684B6823F440734B60202180F83D109E
:101BB00090F83E300021402B80F83E1010D0082ACB
:101BC00002D0202A00D012210163FFF710F810BDC7
:101BD0000B6823F48063CFE70B6843F48063CBE7A3
:101BE0000163FFF706F810BD38B590F83D102229C3
:101BF00010D1C36A418D03290DD901680969426A70
:101C00001170416A491C4162418D491E4185418DD7
:101C1000032906D038BDC26A022A02D0012906D0A3
:101C200029B10068416821F48061416038BD2A4AC9
:101C300046F2A81400211268B2FBF4F202EB820211
:101C4000009202682024009D6D1E009526D0156824
:101C5000AD05F8D4156825F48065156002685568EF
:101C600025F4E065556002681269456A2A70426A87
:101C7000521C4262428D521E428580F83D4090F8CF
:101C80003E2080F83E10402A21D0082B02D0202B85
:101C900000D012210163FEF7AAFF38BD036C43F0A8
:101CA00020030364536823F4E063536002681269FD
:101CB000436A1A70426A521C4262428D521E428529
:101CC00080F83D4080F83E10FEF7CAFE38BD016343
:101CD000FEF78FFF38BD00000C00002010B5C26A6F
:101CE00090F83D1021290BD1418D51B1416A026814
:101CF00009781161416A491C4162418D491E418543
:101D000010BD20230021082A13D0202A11D012F55B
:101D1000803F0ED00268546824F4E06454601122BD
:101D2000026380F83E1080F83D3000BFFEF760FF90
:101D300010BD0268546824F4E064546002681468BA
:101D400044F400741460016380F83D3090F83E2044
:101D500080F83E10402AE9D1FEF74CFF10BD00008C
:101D600010B590F83D1090F83E30C26A048DB4B1C1
:101D7000212903D0402B11D122290FD1418DE1B36C
:101D800090F83E10402942D0416A026809781161FA
:101D9000416A491C4162418D491E418510BD21297E
:101DA000E8D120230021082A13D0202A11D012F5CF
:101DB000803F0ED00268546824F4E064546011221D
:101DC000026380F83E1080F83D3000BFFEF710FF40
:101DD00010BD0268546824F4E0645460026814681A
:101DE00044F400741460016380F83D3090F83E20A4
:101DF00080F83E10402AE9D100E002E0FEF7FAFE4A
:101E000010BD0068416821F48061416010BDBDE8EB
:101E1000104000F0F3B8000078B590F83E50C26A68
:101E2000046B90F83D6000230168222E73D1066D8B
:101E30000EB9402D6FD0056D1DB90569B5F5404F40
:101E40001BD0458D95B3468D484D012E20D0448D35
:101E5000022C4DD00C6844F480640C6001684C681E
:101E6000240579D5AA4273D0012A71D0082A6FD0EF
:101E7000102A6DD0202A6BD06EE04A698A690092E0
:101E80000A6842F480720A60016D491C016578BDE0
:101E9000AA4214D10A6822F480620A6001684A6882
:101EA000120504D50A6822F4806217E0FFE74A6948
:101EB0008A6900920A6842F400720A6050E0082AB7
:101EC00010D0202A0ED0122C0AD0042A03D0022AC5
:101ED00001D0102AE6D10A6842F480620A603BE031
:101EE000012ADFD00A6822F480620A600168DEE716
:101EF000042A11D0022A0FD0102A0DD00C6844F405
:101F000000640C6001684C698C6900940C6824F4CE
:101F100080640C6008E025E00C6844F480640C6088
:101F200001684C698969009101684C68240517D5DE
:101F3000AA4207D0012A05D0082A03D0102A01D0CE
:101F4000202A0DD14A6842F480524A6008E0FFE737
:101F50004A6842F480524A6001684A69896900917E
:101F6000036578BD48698869009078BD0000FFFF6F
:101F700090F83E10402910D00169B1F5804F19D07A
:101F8000016DA9B3016D012910D1416C5FF0F1021F
:101F900001F4407142EAD11106E0016D0029416C63
:101FA00005D0C9B241F0010100680161704701F03C
:101FB000FE01F9E790F83D102129416C09D0C9B222
:101FC00041F0010102681161416B29B1896A49B987
:101FD00002E001F0FE01F5E7816B0029E6D0896A95
:101FE0000029E3D00068416841F400614160704716
:101FF000FFE7416CF02201F44071CBE710B590F897
:102000003D10026D4AB1026D012A14D0026D022A00
:1020100016D0BDE81040FFF7AFBCC16C0129816C40
:1020200002D0C1F3072108E00268C9B21161016D55
:10203000891C016510BD816CC9B20268116123E081
:1020400022291CD0428D0AB1212920D0428D002A9C
:10205000F0D12129EED101684A6822F4E0624A6099
:1020600001680A6842F400720A60002101632022BC
:1020700080F83D2080F83E10FEF7BCFD10BD0168E1
:102080000A6842F480720A60016D491CD1E7416A16
:10209000026809781161416A491C4162418D491EFB
:1020A000418510BD2DE9F843044600680D46DDE981
:1020B000089701689846164641F4807101604B46C6
:1020C00000224FF001112046009700F085F948B139
:1020D00020680068C00502D54FF40070206403201A
:1020E000BDE8F883216805F0FE0008613B464A46DA
:1020F0001549204600F0B8F988B92068416980691F
:1021000000903A464946204600F00CFA48B1206C4F
:10211000042804D12068016841F4007101600120A5
:10212000DEE7F5B2B8F1010F09D02168300A086185
:102130003A464946204600F0F5F90028E7D12068E4
:1021400005610020CCE700000200010038B50C4614
:1021500090F83D2000212825954302680B4605D0C4
:1021600051699169009180F83C3038BD556825F47B
:1021700080655560E243540700D50121120601D560
:10218000828900E0028B80F83C3092B2FEF7EDFAD3
:1021900038BD00002DE9F04190F83D300446C26A98
:1021A000002120261E4F00686FF48065082A01D0A8
:1021B000202A01D1282B04D0212B17D04561BDE85E
:1021C000F081E762426822F4E06242602068456183
:1021D0002068026822F480620260216384F83D6016
:1021E00084F83E102046FEF701FDE8E7E762212271
:1021F000226384F83D6084F83E10416821F4E06178
:102200004160206845612068016821F480610160B7
:102210002046FFF7B1FB2046FEF713FECFE7000094
:102220000000FFFFF8B590F83D6004460068416883
:1022300021F4E06141602068002541690091016856
:1022400041F0010101602068016821F480610160B2
:1022500020684168090520D5474F222E48D02A2EF4
:1022600046D0616B096849686185618D19B1216C3F
:1022700041F004012164416821F400614160606B18
:10228000FEF744F8012808D0606B4763606BFDF7E8
:10229000F1FF10B1606B416B8847608D08B3206817
:1022A0004169C943490708D40069616A0870606AD6
:1022B000401C6062608D401E608520684169C94392
:1022C000490608D40069616A0870606A401C60624F
:1022D000608D401E6085608D18B1206C40F0040058
:1022E0002064206C00B32046BDE8F840FFF74CBBEB
:1022F000A16B096849686185618D19B1216C41F054
:1023000004012164416821F400614160A06BFDF784
:10231000FDFF0128C1D0A06B4763A06BFDF7AAFFAA
:102320000028BAD0A06BB6E72A2E06D12563282054
:1023300084F83D002046FEF783FD94F83D102020F0
:1023400028290DD0216B222901D0222E07D1256307
:1023500084F83D0084F83E502046FEF771FDF8BD3C
:102360000649E162256384F83D0084F83E5020462A
:10237000FEF73CFCF8BD0000BD1800080000FFFFA0
:1023800070B516460D4604461EE02046FFF7A8FB32
:1023900008B1012070BD681C16D0FEF7DFF9801B64
:1023A000A84200D885B920684069C04340070BD5D2
:1023B000002044F8300F20216173A073216941F09F
:1023C000200121612073E4E720684069C043400791
:1023D000DBD4002070BD00002DE9F0479846174679
:1023E0000D460446C1F30746DDF820902AE000BF01
:1023F000B8F1FF3F26D0FEF7B1F9A0EB0901414546
:1024000002D8B8F1000F1DD12068012E16D08069C6
:1024100025EA00000004000C12D00020B84211D1BF
:10242000002044F8300F20216173A073216941F02E
:102430002001216120730120BDE8F0874069E7E7B2
:102440000120EBE72068012E0AD0806925EA000010
:102450000004000C06D00020B842C9D00020EBE7F1
:102460004069F3E70120F7E72DE9F0479846164663
:102470000D4604464FF000094FF0200AC1F307470C
:1024800023E020684069C043400515D420680168F6
:1024900041F40071016021686FF480604861C4F804
:1024A000309084F83DA084F83E90216C41F0040106
:1024B000216484F83C9021E0701C06D0FEF74EF9B0
:1024C000A0EB0800B04203D816B1012F1FD021E0C5
:1024D0002068012F15D0806925EA00000004000C57
:1024E00018D000BF44F8309F84F80DA084F80E90F7
:1024F000216941F02001216184F80C900120BDE8A0
:10250000F087406925EA00000004000CEAD1206849
:10251000406901E02068806925EA00000004000CA1
:10252000AFD1ECE770B516460D4604461EE02046D6
:10253000FFF7D6FA08B1012070BD681C16D0FEF76F
:102540000DF9801BA84200D885B920684069C043B6
:1025500000060BD5002044F8300F20216173A073D2
:10256000216941F0200121612073E4E7206840697E
:10257000C0430006DBD4002070BD0000114808B540
:10258000416941F0010141614069002200F0010010
:10259000009011460E20FEF7BBFC0E20FEF7AAFCB1
:1025A000002211460F20FEF7B3FC0F20FEF7A2FC1D
:1025B00000220A211020FEF7ABFCBDE808401020E5
:1025C000FEF798BC001002402DE9F04385B00025CD
:1025D00026480095019502950395816941F02001F7
:1025E0008161816901F020010491816941F0080154
:1025F0008161816901F008010491816941F0040160
:1026000081618069DFF8688000F004004FF4805435
:102610000490002221464046FEF79BF8DFF85490D4
:102620004FF41067002239464846FEF792F80094AE
:1026300001240226CDE90246694640460194FDF791
:102640008BFF4FF46040CDE9000569460294404697
:10265000FDF782FFCDE90074CDE9024669464846A0
:10266000FDF77AFF05B0BDE8F083000000100240DE
:10267000000C0140000801400D4810B50B490160F5
:102680000C49416000214FF480428160C0E903128F
:1026900041618161C1610162FEF7E4F9002803D064
:1026A000BDE81040FDF7C0BD10BD00000054004063
:1026B00018000020801A06000D4810B50B49016073
:1026C0000C49416000214FF480428160C0E903124F
:1026D00041618161C1610162FEF7C4F9002803D044
:1026E000BDE81040FDF7A0BD10BD0000005800403F
:1026F0006C000020801A06000C4810B50A490160E1
:102700004FF4E1314160002181600C22C160C0E9D9
:1027100004128161C161FEF7E5FF002803D0BDE826
:102720001040FDF781BD10BD0038014004010020BC
:10273000FEE7FEE770477047FEF784BB30B58FB009
:1027400028216846FDF7F7FC14210AA8FDF7F3FCE1
:1027500001210804CDE9001000240294022504910F
:10276000CDE907504FF4E01009906846FEF7DEFC13
:1027700008B172B6FEE70F20CDE90A054FF480607C
:10278000CDE90C4002210AA80E94FEF7F3FB0028C5
:1027900001D072B6FEE70FB030BD704710B5406A89
:1027A0000021C185C184FEF766FE10BD70B5446A84
:1027B0002068406994F84110C0F3C0100025212919
:1027C00004D118B1E584204600F062F82068406921
:1027D00094F84210C0F38010222904D118B1E58585
:1027E000204600F02EF8606C40F010006064204637
:1027F000FEF741FE70BD10B50146406A09680968E0
:10280000890616D40021C1840168143151E8002FD3
:1028100022F0800241E80023002BF5D101680C3141
:1028200051E8002F42F0400241E80023002BF5D18F
:1028300010BDFFF733F810BD10B5406AFFF72FF851
:1028400010BD01680C3151E8002F22F4907241E86C
:102850000023002BF5D10168143151E8002F22F03C
:10286000010241E80023002BF5D1016B012909D1B8
:1028700001680C3151E8002F22F0100241E80023DA
:10288000002BF5D1202180F8421000210163704710
:1028900001680C3151E8002F22F0C00241E800230A
:1028A000002BF5D1202180F84110704708B590F831
:1028B0004210222901D0022008BD82684FF48053C3
:1028C0009A4201D1016921B1816A9A421BD04AB171
:1028D0000AE00268816A5268C2F308020A80816ACB
:1028E000891C08E0026972B10268526802F07F0236
:1028F0000A70816A491C8162C18D491E0904090C54
:10290000C18503D01BE002685268F1E70168CA681C
:1029100022F02002CA600168CA6822F48072CA608C
:1029200001684A6922F001024A61202180F84210C0
:1029300000214163026B012A03D0FEF771FF0020E2
:1029400008BD016301680C3151E8002F22F010022C
:1029500041E80023002BF5D101680A68D20602D5B0
:102960000A6849680091818DFEF784FDE7E7000061
:1029700070B5044600680169E26821F440511143D2
:1029800001612169A0680843616908432168CA6838
:1029900041F20C639A430243CA6020684169A2690C
:1029A00021F44071114341611E492068884202D1DF
:1029B000FEF786FB01E0FEF773FB00EBC00101EBC5
:1029C0000012606864218000B2FBF0F3B3FBF1F306
:1029D0006FF018067343B2FBF0F5B2FBF0F605EBAF
:1029E0008305322303EB0515B5FBF1F5B6FBF1F6D4
:1029F00005F0F00505EB0615B2FBF0F6B2FBF0F0C2
:102A0000B0FBF1F06FF01802504306EB800003EBCF
:102A10000010B0FBF1F0216800F00F00284488603E
:102A200070BD0000003801400148FEF725BD0000E0
:102A300004010020FEE700002DE9F0412C4D4FF489
:102A4000005421462846FDF777FEA8B91420FDF76B
:102A500071FD21462846FDF76FFE68B961102846D2
:102A6000FDF76FFE4FF4FA60FDF782FB2146284622
:102A7000FDF762FE0028F9D04FF4804739462C4616
:102A80002846FDF759FE1B4EA8B91420FDF752FD4C
:102A90003D4639462046FDF74FFE60B9B115304638
:102AA000FDF74FFE1448FDF763FB29462046FDF76E
:102AB00043FE0028F9D04FF4004529462046FDF793
:102AC0003BFE002812D11420FDF734FD2946204694
:102AD000FDF732FE002809D129113046FDF731FEFD
:102AE00029462046FDF728FE0028F9D0BDE8F081F0
:102AF000000C01400008014030F8FFFF0907090EF3
:102B0000002804DB00F1E02080F80014704700F09A
:102B10000F0000F1E02080F8141D704702E008C8A3
:102B2000121F08C1002AFAD170477047002001E047
:102B300001C1121F002AFBD17047FEF78BF9FFF786
:102B4000FDFDFFF741FDFFF719FDFFF795FDFFF7CD
:102B5000D3FDFFF7B1FD00F019F8002000F00AF8EE
:102B60004FF4FA70FDF7E6FC0320FDF7E3FCFFF7F6
:102B700063FFF9E728B1FF224FF480610248FDF7B7
:102B8000D3BA0022F8E70000D401002010B5642079
:102B9000FDF7D0FC002000F067F8202000F08CF852
:102BA000002000F089F8B02000F086F8C82000F07E
:102BB00083F8002000F080F8102000F07DF840201D
:102BC00000F07AF8FF2000F045F8A12000F074F83A
:102BD000A62000F071F8A82000F06EF83F2000F069
:102BE0006BF8A42000F068F8D32000F065F800200E
:102BF00000F062F8D52000F05FF8F02000F05CF8FB
:102C0000D92000F059F8222000F056F8DA2000F020
:102C100053F8122000F050F8DB2000F04DF820208F
:102C200000F04AF88D2000F047F8142000F044F836
:102C3000012000F019F80020FFF79CFF00F020F8B9
:102C400003480021018041800121017110BD000075
:102C50001200002010B50446812000F02DF8204617
:102C6000BDE8104000F028B8044910B1AF2001229F
:102C700001E0AE2000224A7100F01EB812000020D0
:102C800070B50C4D002400BF04F1B000C0B200F0DC
:102C900013F8002000F010F8102000F00DF805EBFC
:102CA000C410802100F01AF8641CE4B2082CEBD3A5
:102CB00070BD0000D401002001B584B001214FF0A7
:102CC000FF3204A88DE807000B4600227821024855
:102CD000FDF79EFF05B000BD180000200EB54FF0B7
:102CE000FF3289B28DE80700012340227821024893
:102CF000FDF78EFF0EBD0000180000200102020348
:102D00000405060708090A0B0C0D0E0F1010000031
:102D1000000000000000010203040607080900008B
:102D20000000010203040000482D000800000020FC
:102D3000180000001C2B0008602D0008180000205F
:102D4000F01200002C2B0008010000001000000011
:102D50000000000000127A000000000000000000E7
:04000005080000ED02
:00000001FF
