:020000040800F2
:10000000101F002005010008F151000861340008AC
:10001000ED5100088D0C0008115A00080000000086
:10002000000000000000000000000000DD52000899
:100030002D0D000800000000B3520008DF52000838
:100040001F0100081F0100081F0100081F01000810
:100050001F0100081F0100081F0100081F01000800
:100060001F0100081F0100081F0100081F010008F0
:100070001F0100081F010008D10C0008E10C000856
:10008000F10C00081F0100081F0100081F010008F3
:100090001F0100081F0100081F0100081F010008C0
:1000A0001F010008515300081F0100081F0100082C
:1000B00061530008715300081F01000875340008DF
:1000C000653400081F0100081F0100081F01000817
:1000D0001F010008F1590008015A00081F0100081B
:1000E0001F0100081F0100081F010008DFF810D0E1
:1000F00000F048FC0048004705690008AFF30080A5
:10010000101F00200648804706480047FEE7FEE72C
:10011000FEE7FEE7FEE7FEE7FEE7FEE7FEE7FEE7B7
:100120004D530008ED000008202A04DB203A21FA94
:1001300002F00021704721FA02F3D040C2F1200200
:10014000914008431946704710B5431A934209D2AB
:100150008318881803E010F8011D03F8011D521ED2
:10016000F9D210BD40EA01039B0703D009E008C99A
:10017000121F08C0042AFAD203E011F8013B00F86C
:10018000013B521EF9D210BDD2B201E000F8012BA2
:10019000491EFBD270470022F6E710B513460A4607
:1001A00004461946FFF7F0FF204610BDF0B480EA80
:1001B0000102D40F4200B2EB410F02D202460846C0
:1001C00011464A0042D0C30DDDB2C1F3C752AD1A89
:1001D000202D35DAC1F3160141F4000204B1524278
:1001E000C5F1200602FA06F12A411044B3EBD05FB4
:1001F00023D0C4B1012DA0EBC35009DCF0BC4FF0FB
:10020000004202EAC352DBB200F5000000F017BB67
:10021000400000F1807000EBC350A0F1807040EA14
:10022000D170490009E0490841EAC071A0EBC35010
:1002300000F50000400800EBC350F0BC00F0F6BA37
:100240006142012202EB4101001BF6E7F0BC70475E
:1002500081F00041AAE780F00040A7E780EA0102B0
:1002600010B502F00043400022D04A001FD0010E1A
:1002700001EB1261C0F35600C2F3560240F40000D5
:1002800042F40002A0FB022000047F39140400D0D5
:10029000401C50EA124001D44000491EC2B20C0674
:1002A00004EBD010401C4008802A02D003E000205C
:1002B00010BD20F00100002900DA0020184310BD15
:1002C00030B480EA010202F0004530F0004221F033
:1002D000004013D090B1C30DD40DC2F31601C0F38A
:1002E0001600E41A41F4000140F400027D3491420A
:1002F00001D3641C00E04900002C02DA30BC00206D
:1003000070474FF400000023914201D3891A034340
:1003100040084FEA4101F7D151B1914202D14FF06B
:10032000004105E002D24FF0010101E06FF0010150
:1003300003EBC450284430BC00F078BA2DE9FE4FDE
:10034000804681EA0300C00F0C46009021F0004176
:1003500023F00045B8EB0200A94105D240462146F2
:1003600090461C460B46024623F00040104347D0FF
:10037000270DC7F30A00C3F30A510290401A0190F7
:1003800040286BDAC3F3130040F4801B00989246B8
:1003900020B10023D2EB030A63EB0B0B0198594603
:1003A000C0F14002504600F020FA06460D46504685
:1003B0005946019A00F028FA10EB08006141002428
:1003C00087EA115284EAE7731A4340D0009A62B375
:1003D000019A012A4FEA075215DC001B61EB02016A
:1003E0004FF0004202EA0752CDE90042001C41F5FD
:1003F000801132462B4600F05FFA03B0BDE8F08F63
:1004000040462146F9E7001B61EB0201001C41F563
:10041000801300185B412018A2F5001747EB030179
:1004200040EAD570B6196D4111E06D084FEA360605
:1004300045EAC0754FEA0752001B61EB0201001C40
:1004400041F5801149084FEA300000195141324608
:100450002B4603B0BDE8F04F00F01FBA0098012210
:1004600040000023D0EB020263EBE07300982146CA
:100470004FEAE074B8EB000061EB0401E9E783F0B8
:1004800000435BE781F0004158E72DE9FE4F81EA28
:10049000030404F0004421F0004100944FF0000BED
:1004A00023F0004350EA01045ED052EA03045BD01B
:1004B000C3F30A54C1F30A552C44A4F2F334019453
:1004C000A0FB0254C1F3130141F48011C3F31303E1
:1004D00043F4801301FB024400FB034E840A970A95
:1004E00044EA815447EA8357A4FB076802958D0AC2
:1004F00005FB07854FEA932C04FB0C542705029D4E
:100500004FEA065847EA1637B5EB08056EEB070CBD
:10051000870E920E47EA811742EA8312A7FB020177
:10052000B6EB0B0164EB00042B0D43EA0C335E18B1
:1005300044EB1C50DA465146E7FB0201C5F31304B5
:100540004FEA0B3343EA14534FEA0432019C43EA67
:100550000603A4F10C040294009CCDE900B400F061
:10056000ABF903B0BDE8F08F00200146F9E72DE9B3
:10057000F04D81EA030404F0004B21F000451446DD
:100580004FF0000A23F0004150EA050220D054EA5F
:1005900001021DD0C5F30A570246C5F31303C1F388
:1005A0001300C1F30A5640F4801543F48013A7EBFF
:1005B0000608101BD64608F2FD3873EB050002D37F
:1005C00008F1010801E092185B41B8F1000F03DA6D
:1005D00000200146BDE8F08D00204FF48011064652
:1005E00084460EE0171B73EB050705D3121B63EB64
:1005F000050306434CEA010C49084FEA3000921803
:100600005B4150EA0107EDD152EA030012D082EAC1
:10061000040083EA0501084305D0101BAB4106D254
:100620000122002306E000224FF0004302E06FF0B9
:10063000010253101AEB06004CEB085110EB0A00B4
:1006400041EB0B01BDE8F04D00F027B9C10F80EA86
:10065000E0700844CA079623002100F0F0B8962302
:100660000022114600F0EBB80EB540F23341029182
:100670000021CDE900110A460B4600F01DF903B038
:1006800000BD3EB5CA17CB0F002450405140C018E2
:100690006141DA0740F233430094CDE90123224659
:1006A000234600F009F903B030BD00F0004220F00D
:1006B0000040C10DC0F3160040F400007F2901DAAC
:1006C00000207047962903DCC1F19601C84001E083
:1006D00096398840002AF4D04042704700F000422A
:1006E00030F000400AD0C10D01F56071C0F3160072
:1006F00042EA0151C20840071143704700200146F9
:100700007047000030B5041E71F1000404DB4FF0A7
:100710000044404264EB0101141E73F1000405DB48
:100720001C464FF00043524263EB0403994208BF5A
:10073000904230BD002801DBC0F10040002901DB00
:10074000C1F1004181427047002801DBC0F1004047
:10075000002901DBC1F100418842704730B50B46EA
:10076000014600202022012409E021FA02F59D42E1
:1007700005D303FA02F5491B04FA02F52844151EB5
:10078000A2F10102F1DC30BD2DE9F05F0546002049
:1007900092469B4688460646814640241BE02846F2
:1007A000414647462246FFF7BFFC53465A46C01A09
:1007B000914110D311461846224600F016F82D1A22
:1007C00067EB01084F4622460120002100F00DF89A
:1007D00017EB00094E41201EA4F10104DFDC48465E
:1007E00031462A464346BDE8F09F202A04DB203AE2
:1007F00000FA02F1002070479140C2F1200320FA74
:1008000003F3194390407047202A06DBCB17203AA8
:1008100041FA02F043EAE07306E041FA02F3D04005
:10082000C2F1200291400843194670470029A8BF31
:100830007047401C490008BF20F00100704710B409
:10084000B0FA80FC00FA0CF050EA010404BF10BCBE
:10085000704749B1CCF1200421FA04F411FA0CF1EB
:1008600018BF012121430843A3EB0C01CB1D4FEA24
:1008700000614FEA102042BF002010BC704700EB1F
:10088000C35010440029A4BF10BC7047401C49004D
:1008900008BF20F0010010BC704710B5141E73F1A2
:1008A000000408DA401C41F1000192185B411A4330
:1008B00001D120F0010010BD2DE9F04D92469B467C
:1008C00011B1B1FA81F202E0B0FA80F22032904622
:1008D000FFF78BFF04460F4640EA0A0041EA0B018E
:1008E00053465A46084313D0114653EA010019D023
:1008F000C8F140025046FFF717FC05460E46504629
:1009000059464246FFF771FF084305D0012004E035
:1009100020463946BDE8F08D0020054346EAE076E2
:100920002C4337430A986305E40AA0EB0800002231
:10093000FD0A44EA47540A3002D500200146E9E79F
:10094000010510196941DDE9084500196941BDE853
:10095000F04DA2E7C1F30A52C1F3130140F2FF3395
:1009600041F480119A4202DA00200146704740F2B9
:1009700033439A42A2F2334202DC5242FFF7D4BB25
:10098000FFF733BF064C074D06E0E06840F0010377
:1009900094E8070098471034AC42F6D3FFF7AAFB5F
:1009A00018B9000838B9000870B58C1810F8015B48
:1009B00015F0070301D110F8013B2A1106D110F8F8
:1009C000012B03E010F8016B01F8016B5B1EF9D1FC
:1009D0002B0705D40023521E0DD401F8013BFAE782
:1009E00010F8013BCB1A921C03E013F8015B01F8ED
:1009F000015B521EF9D5A142D8D3002070BD10B5BD
:100A000004462146012000F093F910BD08B50020EE
:100A10000123FF224FF4FA710090184600F0A2F96A
:100A200008BD2DE9F04106460C46154629463046DC
:100A3000FFF7BCFB07462146FFF77CFE05D229469F
:100A40003046FFF7B3FBBDE8F08129463046FFF79B
:100A5000FFFB07462146FFF777FE04D229463046C2
:100A6000FFF7F6FBEFE72046EDE770B506460D46CB
:100A7000144629463046FFF75DFE01D2284670BD78
:100A800021463046FFF760FE01D22046F7E73046A8
:100A9000F5E7000010B50446074800F017F80020FD
:100AA000064908700649086006490860064908605A
:100AB000214600F02BF810BD80000020A800002087
:100AC0004C00002050000020540000200021C16094
:100AD00001614161C1610162704770B50446002146
:100AE0002046FFF731FE08D84FF07C512046FFF733
:100AF0005DFB0546FFF7D9FD70BD4FF07C512046E8
:100B0000FFF7A6FB0546FFF7D0FDF5E72DE9F0411D
:100B100004460D461A480068261A002E00DA76426E
:100B20001848007818B1012E01DABDE8F0811548A7
:100B3000007828B114480068281A052800D2F4E784
:100B400000BFEFF31080074672B6104890F84100DE
:100B5000202809D12046FFF752FF094804600A48BF
:100B6000056001200749087000BF00BF00BFBFF348
:100B70005F8F00BF00BF00BF07B962B600BFD4E7F8
:100B8000B8000020C0000020BC0000201C04002091
:100B90002DE9FC5F05460C463248007868B93248BA
:100BA0000560324804603248046001202D49087015
:100BB000002030490860BDE8FC9F2B4801682846AA
:100BC000FFF746FB064626F000482B494046FFF754
:100BD000BBFD3BD825480068271A87B33846FFF786
:100BE0003EFD82462549FFF739FB8046DFF890B08D
:100BF00041465846FFF7DAFA824651464046FFF72B
:100C00005FFB814641463046FFF75AFB01901D4A83
:100C10001D490198FFF729FF0190164801680198C6
:100C2000FFF716FB49460090FFF718FB8246114874
:100C300001685046FFF7BAFA0E49086000BF0A483B
:100C400005600A4804600A48046007E00848006834
:100C5000201AFA2802D300200649086005480068D7
:100C6000A9E70000A8000020AC000020B000002090
:100C7000B40000204C000020CDCC4C3D6F12833AD4
:100C8000AF4C593D00007A4400007AC400BFFEE733
:100C9000002008490872084908720849086048603D
:100CA00088600749086007490870074908600749D4
:100CB00008707047D0060020DC060020E8060020FF
:100CC00034000020380000203C00002040000020BC
:100CD00010B5024800F0F2F810BD0000AC0400208E
:100CE00010B5024800F0EAF810BD0000F004002042
:100CF00010B5024800F0E2F810BD000034050020F5
:100D000030B590F840500124AC40C56B6C6004686D
:100D100063604468102C04D10468A2600468E16038
:100D200003E00468A1600468E26030BD7047000021
:100D300070B505460C4609480570FC200749487007
:100D4000200E8870200CC870200A08714C716B202E
:100D500088710722024802F03BFB70BDA4160020F8
:100D60001C0400202DE9F04105460C4616461F469E
:100D7000DDF818800A480570F120094948702012F2
:100D80008870CC7008460671477180F806806B2029
:100D9000C8710822034802F01BFBBDE8F081000087
:100DA000941600201C04002072B600BFFEE7014626
:100DB000002291F82100022808D00420886300BF97
:100DC000002081F8200000BF0120704708680068FB
:100DD00020F00E000B6818600868006820F0010021
:100DE0000B68186091F8403001209840CB6B586038
:100DF000012081F8210000BF002081F8200000BF01
:100E00001046E2E770B50446002594F82100022858
:100E100003D00420A063012548E02068006820F08A
:100E20000E00216808602068006820F00100216839
:100E300008601F492068884201D1012026E01C4932
:100E400014312068884201D110201FE01849283150
:100E50002068884201D1801518E015493C3120688E
:100E6000884201D1801411E0114950312068884234
:100E700002D14FF4803009E00D4964312068884286
:100E800002D14FF4801001E04FF08070084908391A
:100E90004860012084F8210000BF002084F8200071
:100EA00000BF606B10B12046616B8847284670BD5B
:100EB00008000240014691F82100704770B50446D1
:100EC000E06B05682068066894F8401004208840AC
:100ED0002840002846D006F00400002842D02068B0
:100EE000006800F0200028B92068006820F00400A5
:100EF0002168086057492068884201D1042027E012
:100F0000544914312068884201D1402020E05149E1
:100F100028312068884201D1001519E04D493C3143
:100F20002068884202D14FF4804011E04949503195
:100F30002068884202D14FF4802009E0454964319D
:100F40002068884202D14FF4800001E04FF08060B9
:100F5000404908394860E06A00287AD02046E16AB2
:100F6000884776E094F84010022088402840A0B3DB
:100F700006F0020088B32068006800F0200040B945
:100F80002068006820F00A0021680860012084F8C9
:100F9000210030492068884201D1022028E02D49F3
:100FA00014312068884201D1202021E029492831CC
:100FB0002068884201D140151AE026493C3120685A
:100FC000884202D14FF4005012E02249503120688B
:100FD000884203D14FF400300AE017E01D49643124
:100FE0002068884202D14FF4001001E04FF00070F9
:100FF00018490839486000BF002084F8200000BF6D
:10100000A06A30B32046A16A884722E094F84010D5
:10101000082088402840E0B106F00800C8B12068E8
:10102000006820F00E002168086094F8401001204C
:101030008840E16B48600120A06384F8210000BF74
:10104000002084F8200000BF206B10B12046216BE7
:10105000884770BD080002400146002209B90120FE
:101060007047164B0868C01A1423B0FBF3F08000D9
:10107000086412480838C863022081F82100086813
:10108000026843F6F0708243D1E901031843CB684C
:1010900018430B6918434B6918438B691843CB6994
:1010A000184302430868026000208863012081F829
:1010B0002100002081F8200000BFD1E70800024095
:1010C0002DE9F04104460D4616461F464FF0000834
:1010D00000BF94F82000012802D10220BDE8F08171
:1010E000012084F8200000BF94F8210001282CD1B1
:1010F000022084F821000020A0632068006820F00E
:101100000100216808603B46324629462046FFF729
:10111000F7FDE06A30B12068006840F00E002168F9
:1011200008600BE02068006820F004002168086077
:101130002068006840F00A002168086020680068A4
:1011400040F001002168086006E000BF002084F83C
:10115000200000BF4FF002084046BFE770B50446CC
:1011600000F0B8F906462546681C10B1044800781E
:10117000054400BF00F0AEF9801BA842FAD370BD51
:10118000080000202DE9F8470346002294466EE14E
:101190004FF0010808FA02F4D1F8008008EA0400D0
:1011A000A0427DD1DFF8DCA2D1F80480A8EB0A09C7
:1011B000D0453AD014DCB8F1030F50D009DCB8F1B7
:1011C000000F31D0B8F1010F1CD0B8F1020F49D196
:1011D00020E0B8F1110F18D0B8F1120F42D11EE083
:1011E000B9F5881F25D006DCB9F5803F20D0B9F5C8
:1011F000801F37D11AE0B9F5001F18D0B9F5041FC8
:1012000030D117E0D1F80CC02DE0D1F80C8008F1F6
:10121000040C28E0D1F80C8008F1080C23E0D1F888
:101220000C8008F10C0C1EE000BF00BF00BF00BF27
:1012300000BF00BFD1F80880B8F1000F02D14FF015
:10124000040C0BE0D1F80880B8F1010F03D14FF086
:10125000080C1C6102E04FF0080C5C6103E04FF0E9
:10126000000C00E000BF00BFFF2801D8984601E055
:1012700003F104084646FF2802D84FEA820803E03B
:10128000A2F108084FEA88084746D6F800804FF0D8
:101290000F0909FA07F928EA09080CFA07F900E02A
:1012A00088E048EA0908C6F80080D1F8048008F010
:1012B0008058B8F1805F7DD100BFDFF8CC81D8F8CD
:1012C000188048F00108DFF8C091C9F81880C846B6
:1012D000D8F8188008F00108CDF8008000BF00BFE2
:1012E0004FEAB9384FEA920958F829504FEA827804
:1012F0004FEA18794FF00F0808FA09F825EA0805AF
:10130000DFF88881434502D14FF0000816E0DFF88E
:101310008081434502D14FF001080FE0DFF874816E
:10132000434502D14FF0020808E0DFF86C814345E5
:1013300002D14FF0030801E04FF004084FEA827930
:101340004FEA197908FA09F848EA0505DFF84C81EF
:101350004FEA920948F82950D1F8048008F480181F
:10136000B8F5801F0AD1DFF83881D8F8008048EA44
:101370000008DFF82C91C9F8008009E0DFF820812F
:10138000D8F8008028EA0008DFF81491C9F8008036
:10139000D1F8048008F40018B8F5001F10D1DFF868
:1013A000008108F10408D8F8008048EA0008DFF856
:1013B000F09000E05AE009F10409C9F800800DE05E
:1013C000DFF8DC8008F10408D8F8008028EA00087B
:1013D000DFF8CC9009F10409C9F80080D1F8048045
:1013E00008F40038B8F5003F0ED1DFF8B480A8F15A
:1013F0000408D8F8008048EA0008DFF8A490A9F1B2
:101400000409C9F800800DE0DFF89480A8F1040811
:10141000D8F8008028EA0008DFF88490A9F10409D0
:10142000C9F80080D1F8048008F48038B8F5803F0E
:101430000ED1DFF86C80A8F10808D8F8008048EADF
:101440000008DFF85C90A9F10809C9F800800DE0F8
:10145000DFF84C80A8F10808D8F8008028EA0008D6
:10146000DFF83C90A9F10809C9F80080521CD1F8B6
:10147000008028FA02F8B8F1000F7FF489AEBDE8C9
:10148000F887000000001110001002400008014021
:10149000000C014000100140001401400800014010
:1014A00008040140024693680B400BB1012000E0A4
:1014B0000020704710B5C26821EA020302EA010465
:1014C00043EA0443036110BD0AB1016101E00B046A
:1014D0000361704701480068704700000000002069
:1014E000704770472DE9F84F044620684769206827
:1014F000D0F80480002594F83E90C7F3002070B126
:10150000C8F3002058B145F001056FF480702168E0
:1015100048612068006840F4004021680860C7F313
:10152000402040B1C8F3002028B145F002056FF417
:10153000007021684861C7F3802070B3C8F30020B1
:1015400058B3CA46B4F82AB094F83D60206B0090B6
:10155000BAF1200F0FD1BBF1000F0CD1212E06D014
:10156000292E04D0282E06D10098212803D1204608
:1015700002F0A6FE11E06FF480602168486145F03A
:101580000405B9F1100F02D0B9F1400F05D1206860
:10159000006840F4007021680860C7F3C02040B1C3
:1015A000C8F3002028B145F008056FF400602168F9
:1015B00048612DB1206C28432064204601F0F6FFDD
:1015C000BDE8F88F2DE9F04705464FF0000928687F
:1015D0004668D5F82CA095F83E7095F83D80102F00
:1015E00001D0402F75D12868D0F818902868446938
:1015F00004F0010060B9BAF52A0F02D0BAF12A4FFF
:1016000001D1012000E00020012801D1BDE8F087D0
:1016100004F0010048B1C6F3402030B1284601F083
:1016200031FF284602F0E2FBB7E0C4F3C00030B15E
:10163000C6F3402018B1284602F083FAADE0C4F3A7
:10164000400030B1C6F3402018B1284602F08EFAAF
:10165000A3E0C9F3800040B32868406800F400604C
:10166000B0F5006FE0D0C4F3C01048B1C6F38020DD
:1016700030B1C4F3800018B9284602F0F6F98CE0C6
:10168000C4F380000028CFD0C6F340200028CBD080
:10169000B8F1210F03D1284602F097F97DE0402FE1
:1016A0007BD1284602F0F1FB77E02868406800F41F
:1016B0000060B0F5006F70D0C4F3801050B1C6F375
:1016C000802038B1C4F3800020B9284602F0FBF82E
:1016D00063E00BE0C4F3800000285ED0C6F3402036
:1016E00000285AD0284602F056F856E0286C10B16F
:1016F0002868446904E02868D0F81890286844698C
:10170000C4F3400060B1C6F3402048B1286C10B16A
:101710002868D0F818904946284602F099FD3CE028
:10172000C4F3001030B1C6F3402018B1284602F0CF
:101730001BFE32E0B8F1210F02D0B8F1290F16D10B
:10174000C4F3C01048B1C6F3802030B1C4F38000A8
:1017500018B9284602F059FD1FE0C4F38000E0B13B
:10176000C6F34020C8B1284602F042FD15E0C4F39C
:10177000801048B1C6F3802030B1C4F3800018B99E
:10178000284602F012FD08E0C4F3800028B1C6F339
:10179000402010B1284602F0FBFC00BF36E70000F5
:1017A0000349884202D10021024A117070470000AB
:1017B0009C010020D200002070B504460CB9012025
:1017C00070BD94F83D0028B9002084F83C00204604
:1017D00000F0D0FB242084F83D002068006820F051
:1017E0000100216808602068006840F4004021681A
:1017F00008602068006820F400402168086000F05C
:10180000DDFD05465C496068884206D85B48854234
:1018100001D2012007E0002005E05948854201D2AD
:10182000012000E00020012800D1C9E75548B5FBA0
:10183000F0F62068406820F03F003043216848609F
:101840004D496068884201D8701C07E04FF49670DB
:1018500070434FF47A71B0FBF1F0401C2168096AC3
:1018600021F03F01084321680862434960688842CB
:1018700014D8681E61684900B0FBF1F0401CC0F349
:101880000B00042801D204203DE0681E6168490075
:10189000B0FBF1F0401CC0F30B0034E0A06838B995
:1018A000681E616801EB4101B0FBF1F0401C0AE0E9
:1018B000681E616801EBC10202EB0111B0FBF1F09F
:1018C000401C40F48040C0F30B0008B901201AE02E
:1018D000A06848B9681E616801EB4101B0FBF1F0F6
:1018E000401CC0F30B000CE0681E616801EBC102F4
:1018F00002EB0111B0FBF1F0401CC0F30B0040F40F
:10190000804040F400402168C9694CF6FF72914361
:1019100008432168C861D4E90701084321680968C0
:1019200021F0C001084321680860D4E9031008438E
:101930002168896848F2FF32914308432168886032
:10194000D4E9050108432168C96821F0FF01084373
:101950002168C8602068006840F0010021680860C4
:1019600000202064202084F83D000020206384F8BB
:101970003E0000BF24E70000A086010080841E0016
:1019800000093D0040420F007047704770477047A4
:101990000349884202D10021024A117070470000B9
:1019A0009C010020D20000202DE9FE4F04460F4686
:1019B00090469946DDE90CAB0E9E00200290FFF7A1
:1019C00089FD054694F83D00202872D11923012293
:1019D000CE492046009502F0C0FD10B10220BDE8BE
:1019E000FE8F00BF94F83C00012801D10220F6E7E9
:1019F000012084F83C0000BF2068006800F001006E
:101A000028B92068006840F001002168086020685B
:101A1000006820F4006021680860222084F83D00FE
:101A2000402084F83E0000202064C4F824A0A4F8DC
:101A30002AB0608D2085B648E0624B464246394662
:101A40002046CDE9006502F083FA08B10120C6E71F
:101A5000208D88B900BF0020019020684069019066
:101A600020688069019000BF00BF2068006840F4D2
:101A70000070216808604BE0208D01281AD1206891
:101A8000006820F480602168086072B600BF002002
:101A9000019020684069019020688069019000BF32
:101AA00000BF2068006840F400702168086062B6DA
:101AB0002EE029E1208D022819D12068006840F429
:101AC00000602168086072B600BF002001902068A5
:101AD0004069019020688069019000BF00BF2068C4
:101AE000006820F480602168086062B610E0206819
:101AF000006840F480602168086000BF0020019009
:101B000020684069019020688069019000BF00BF93
:101B1000EBE0208D03287DD8208D012815D12A46A1
:101B20003146204602F0F5FD08B1012057E7206854
:101B30000069616A0870606A401C6062208D401E06
:101B40002085608D401E6085CFE0208D02282CD13D
:101B5000334600226F492046009502F0FEFC08B192
:101B600001203CE772B62068006840F400702168EC
:101B7000086020680069616A0870606A401C6062E1
:101B8000208D401E2085608D401E608562B62068D5
:101B90000069616A0870606A401C6062208D401EA6
:101BA0002085608D401E60859FE0334600225949A4
:101BB0002046009502F0D1FC08B101200FE7206813
:101BC000006820F480602168086072B620680069AF
:101BD000616A0870606A401C6062208D401E20852A
:101BE000608D401E60854C4800681921B0FBF1F003
:101BF0004FF47A71B0FBF1F0C0EBC00000EB800055
:101C0000029000BF0298401E02900298A8B90020DE
:101C1000206300E039E0202084F83D00002084F8B3
:101C20003E00206C40F02000206462B600BF00201F
:101C300084F83C0000BF0120D1E620684069C0F371
:101C400080000028DED02068006840F40070216821
:101C5000086020680069616A0870606A401C606200
:101C6000208D401E2085608D401E608562B62068F4
:101C70000069616A0870606A401C6062208D401EC5
:101C80002085608D401E60852FE02A463146204623
:101C900002F03FFD08B10120A1E620680069616AF9
:101CA0000870606A401C6062208D401E2085608D37
:101CB000401E608520684069C0F38000A8B1208D77
:101CC000032805D12068006820F48060216808603E
:101CD00020680069616A0870606A401C6062208D3B
:101CE000401E2085608D401E6085208D00287FF479
:101CF00010AF202084F83D00002084F83E0000BF93
:101D000084F83C0000BF6AE6022068E6020010008A
:101D10000000FFFF040001000C0000202DE9FC5F23
:101D200004460F4690469946DDE90CAB0E9EFFF740
:101D3000D1FB054694F83D0020287DD119230122CE
:101D40004D492046009502F008FC10B10220BDE884
:101D5000FC9F00BF94F83C00012801D10220F6E767
:101D6000012084F83C0000BF2068006800F00100FA
:101D700028B92068006840F00100216808602068E8
:101D8000006820F4006021680860212084F83D008C
:101D9000402084F83E0000202064C4F824A0A4F869
:101DA0002AB0608D20853548E0624B464246394670
:101DB0002046CDE9006502F07BF908B10120C6E7B5
:101DC00031E02A463146204602F010FD50B1206C29
:101DD000042805D12068006840F40070216808607C
:101DE0000120B4E7606A007821680861606A401CDD
:101DF0006062208D401E2085608D401E60852068B9
:101E00004069C0F3800070B1208D60B1606A0078D5
:101E100021680861606A401C6062208D401E208538
:101E2000608D401E6085208D0028CAD12A4631462B
:101E3000204602F05FFB00E01CE050B1206C04285B
:101E400005D12068006840F4007021680860012016
:101E50007DE72068006840F4007021680860202059
:101E600084F83D00002084F83E0000BF84F83C0068
:101E700000BF6CE702206AE7020010000000FFFFCD
:101E8000F8B50446DDE906560020009094F83D00C0
:101E9000202869D1354800681927B0FBF7F04FF4C6
:101EA0007A77B0FBF7F000EBC00707EB001000906B
:101EB00000BF0098401E0090009868B90020206381
:101EC000202084F83D00002084F83E00206C40F083
:101ED000200020640220F8BD20688069C0F3400023
:101EE0000028E6D100BF94F83C00012801D102206F
:101EF000F1E7012084F83C0000BF2068006800F092
:101F0000010028B92068006840F0010027683860A7
:101F10002068006820F4006027683860212084F879
:101F20003D00402084F83E00002020646562668504
:101F3000608D20850E48E0626164A264E364002045
:101F400020652068006840F480702768386000BF12
:101F5000002084F83C0000BF2068406840F4E06046
:101F6000276878600020B6E70220B4E70C00002064
:101F70000000FFFF10B586B00446002002900390D9
:101F80000490059038492068884240D100BF374806
:101F9000806940F00800354988610846806900F092
:101FA0000800019000BF00BF4FF440700290122063
:101FB00003900320059002A92D48FFF7E3F800BF26
:101FC0002C49486840F0E06040F00200486000BFE3
:101FD00000BF2648C06940F400102449C861084683
:101FE000C06900F40010019000BF00BF002211463C
:101FF0001F2000F0C5F81F2000F0B2F800221146A3
:10200000202000F0BDF8202000F0AAF82AE01A49AC
:102010002068884226D100BF1448806940F008003B
:10202000124988610846806900F00800019000BFED
:1020300000BF4FF4406002901220039003200590EF
:1020400002A90B48FFF79EF800BF0848C06940F49A
:1020500080000649C8610846C06900F4800001900C
:1020600000BF00BF06B010BD005400400010024089
:10207000000C0140000001400058004070477047CC
:10208000034800680349097808440149086070471B
:10209000000000200800002010B50848006840F04B
:1020A000100006490860032000F0A8F80F2000F097
:1020B00007F800F02BF8002010BD000000200240BF
:1020C00070B504460E4800784FF47A71B1FBF0F019
:1020D0000C490968B1FBF0F5284600F0F9FB08B19E
:1020E000012070BD102C07D200222146501E00F0A6
:1020F00047F80548046001E00120F2E70020F0E71E
:10210000080000200C0000200400002008B500BFDB
:102110001148806940F001000F49886108468069D4
:1021200000F00100009000BF00BF00BF0846C0697A
:1021300040F08050C8610846C06900F080500090AF
:1021400000BF00BF00BF0549486820F0E06040F0D4
:102150000070486000BF08BD001002400000014050
:1021600001460846002809DB00F01F0301229A40BF
:1021700043099B0003F1E023C3F8002100BF70472F
:102180002DE9F05F80460D461646002703F038FF24
:10219000074639462A46334601F00700C0F1070AD0
:1021A000BAF1040F02D94FF0040A01E0C0F1070AA6
:1021B000D14600F1040ABAF1070F02D24FF0000A2B
:1021C00001E0A0F1030AD4464FF0010A0AFA09FA25
:1021D000AAF1010A0AEA020A0AFA0CFA4FF0010B04
:1021E0000BFA0CFBABF1010B0BEA030B4AEA0B04F5
:1021F0002146404603F00CFFBDE8F09F00BF00F011
:102200000702064B19684FF6FF031940044B0B43B6
:1022100043EA0221014B196000BF70470CED00E05A
:102220000000FA0570B504460D460CB9012070BDDA
:102230005A48006800F00700A8420ED257480068CC
:1022400020F007002843554908600846006800F060
:102250000700A84201D00120E9E7207800F0020041
:1022600002281DD1207800F00400042805D14C4834
:10227000406840F4E0604A494860207800F0080077
:10228000082805D14648406840F4605044494860F9
:102290004348406820F0F000A16808434049486086
:1022A000207800F0010078B36068012806D13C482E
:1022B000006800F4003090B90120B8E76068022897
:1022C00006D13748006800F0007040B90120AEE741
:1022D0003348006800F0020008B90120A7E7304841
:1022E000406820F00300616808432D494860FFF70B
:1022F000F1F8064609E0FFF7EDF8801B41F288315E
:10230000884202D9032092E707E02548406800F0A0
:102310000C006168B0EB810FEDD12048006800F03F
:102320000700A8420ED91D48006820F00700284386
:102330001A4908600846006800F00700A84201D06A
:10234000012074E7207800F00400042807D1144825
:10235000406820F4E060E168084311494860207853
:1023600000F00800082808D10D48406820F46050AB
:10237000216940EAC1000A49486000F03FF8084975
:102380004968C1F30311074A515CC8400649086017
:1023900006480068FFF794FE002048E7002002404E
:1023A00000100240606D00080C00002004000020B6
:1023B00001480068704700000C00002000B5FFF7DE
:1023C000F7FF04494968C1F30221034A515CC84040
:1023D00000BD000000100240706D000800B5FFF75E
:1023E000E7FF04494968C1F3C221034A515CC84070
:1023F00000BD000000100240706D000870B50021A3
:102400000022002400230020134D696801F00C0510
:10241000F5B1042D02D0082D19D101E00F4819E0C3
:102420000F4DC1F38346AB5D01F4803555B10A4DC4
:102430006D68C5F340450B4E725D084D5D43B5FBBD
:10244000F2F402E0084D03FB05F4204602E000BF71
:10245000024800BF00BF70BD0010024000127A00A9
:102460004E6D00085E6D000800093D00F8B5044699
:102470000CB90120F8BD207800F00100002878D0C8
:10248000F848406800F00C0004280CD0F54840687B
:1024900000F00C00082811D1F248406800F48030A8
:1024A000B0F5803F0AD1EF48006800F40030002802
:1024B0005FD0606800285CD10120DBE700BF606866
:1024C000B0F5803F06D1E748006840F48030E54928
:1024D000086028E0606858B9E248006820F480305D
:1024E000E04908600846006820F4802008601AE08F
:1024F0006068B0F5A02F0BD1DA48006840F4802066
:10250000D84908600846006840F4803008600AE056
:10251000D448006820F48030D2490860084600683A
:1025200020F48020086000BF606888B1FEF7D2FF09
:10253000054606E0FEF7CEFF401B642801D90320C4
:1025400098E7C848006800F400300028F2D010E096
:10255000FEF7C0FF054606E0FEF7BCFF401B6428FF
:1025600001D9032086E7BF48006800F40030002846
:10257000F2D1207800F00200022857D1B948406813
:1025800000F00C0050B1B748406800F00C0008287B
:1025900018D1B448406800F4803098B9B148006858
:1025A00000F0020020B12069012801D0012061E77C
:1025B000AC48006820F0F800616940EAC100A94910
:1025C000086033E02069E8B10120A7490860FEF700
:1025D00081FF054606E0FEF77DFF401B022801D97A
:1025E000032047E79F48006800F002000028F2D06F
:1025F0009C48006820F0F800616940EAC1009949F0
:10260000086013E0002098490860FEF763FF054664
:1026100006E0FEF75FFF401B022801D9032029E7EF
:102620009048006800F002000028F2D1207800F005
:10263000080008282DD1A069B8B101208B49086095
:10264000FEF748FF054606E0FEF744FF401B022860
:1026500001D903200EE78348406A00F002000028F9
:10266000F2D0012002F026FE13E000207F4908602E
:10267000FEF730FF054606E0FEF72CFF401B022860
:1026800001D90320F6E67748406A00F002000028EE
:10269000F2D1207800F00400042873D1002771489B
:1026A000C06900F0805070B900BF6E48C06940F04A
:1026B00080506C49C8610846C06900F080500090A5
:1026C00000BF00BF01276A48006800F48070B0B9FD
:1026D0006748006840F4807065490860FEF7FAFEBC
:1026E000054606E0FEF7F6FE401B642801D90320EC
:1026F000C0E65F48006800F480700028F2D000BF98
:10270000E068012806D15748006A40F001005549A9
:10271000086227E0E06858B95248006A20F00100DA
:10272000504908620846006A20F00400086219E077
:10273000E06805280BD14B48006A40F00400494985
:1027400008620846006A40F0010008620AE0454855
:10275000006A20F00100434908620846006A20F040
:102760000400086200BFE068A0B1FEF7B3FE0546B2
:1027700009E0FEF7AFFE401B41F28831884202D9E2
:10278000032077E622E03748006A00F002000028C4
:10279000EFD012E0FEF79EFE054608E0FEF79AFE37
:1027A000401B41F28831884201D9032062E62D485E
:1027B000006A00F002000028F0D1012F05D129485D
:1027C000C06920F080502749C86100BFE069C8B3E4
:1027D0002448406800F00C00082860D0E069022816
:1027E00048D1002020490866FEF774FE054606E041
:1027F000FEF770FE401B022801D903203AE6194873
:10280000006800F000700028F2D1206AB0F5803F27
:1028100007D11448406820F40030A16808431149EA
:102820004860D4E9080108430E49496821F474114D
:1028300008430C49486001200B490866FEF74AFE30
:10284000054607E03DE0FEF745FE401B022801D9A2
:1028500003200FE60348006800F000700028F2D063
:102860002FE000000010024000004242800442427B
:1028700000700040002014490866FEF72BFE054654
:1028800006E0FEF727FE401B022801D90320F1E5F0
:102890000E48006800F000700028F2D111E0E069F5
:1028A000012800D1E6E50948466806F48031206A2F
:1028B000814204D106F47011606A814201D0012086
:1028C000D8E50020D6E5000000004242001002409A
:1028D00070B504462546681EB0F1807F01D3012003
:1028E0000FE0681E4FF0E02148610F214FF0FF30EC
:1028F00003F08EFB00204FF0E02188610720086183
:10290000002070BD7047704730B502460B4600BFCF
:1029100092F83C00012801D1022030BD012082F84C
:102920003C0000BF022082F83D0010684468106837
:10293000816824F070041868044310684460104DE6
:102940001068A8420BD01068B0F1804F07D00D4D31
:102950001068A84203D00C4D1068A84205D121F0A0
:1029600080015868014310688160012082F83D00B1
:1029700000BF002082F83C0000BF00BFCDE7000090
:10298000002C0140000400400008004010B504463F
:102990000CB9012010BD94F83D0028B9002084F83E
:1029A0003C00204600F026F8022084F83D00211D5E
:1029B000206802F0E5FC012084F8460000BF84F89E
:1029C0003E0001213F200155402001554120015585
:1029D00000BF00BF012084F842004320015544207D
:1029E00001554520015500BF012084F83D0000201D
:1029F000D0E7000038B5044628492068884216D13F
:102A000000BF2748806940F4006025498861084676
:102A1000806900F40060009000BF00BF0022012127
:102A20001920FFF7ADFB1920FFF79AFB34E020686F
:102A3000B0F1804F16D100BF1948C06940F00100C5
:102A40001749C8610846C06900F00100009000BF46
:102A500000BF002201211C20FFF792FB1C20FFF782
:102A60007FFB19E00F492068884215D100BF0C4850
:102A7000C06940F002000A49C8610846C06900F018
:102A80000200009000BF00BF002201211D20FFF7BF
:102A900077FB1D20FFF764FB38BD0000002C0140D0
:102AA0000010024000040040014691F83D0001285A
:102AB00001D001207047022081F83D000868C068FD
:102AC00040F001000B68D860124B086898420BD0A8
:102AD0000868B0F1804F07D00F4B0868984203D0C8
:102AE0000E4B086898420CD10868806800F0070215
:102AF000062A0CD00868006840F001000B681860D6
:102B000005E00868006840F001000B6818600020CC
:102B1000D0E70000002C0140000400400008004005
:102B20002DE9F04104460D46002700BF94F83C0013
:102B3000012802D10220BDE8F081012084F83C0088
:102B400000BF022084F83D002068866826F07706E2
:102B500026F47F46206886602868502833D00CDC35
:102B6000202850D004DC00284BD0102851D149E057
:102B7000302849D040284CD139E060282DD0702829
:102B800007D0B0F5805F03D0B0F5005F41D10DE014
:102B900041E0D5E902136A68206802F033FC20683E
:102BA000866846F077062068866034E0D5E902132F
:102BB0006A68206802F026FC2068806840F4804043
:102BC0002168886027E0EA686968206802F02EFCC6
:102BD0005021206802F021FC1DE0EA686968206845
:102BE00002F037FC6021206802F017FC13E0EA686D
:102BF0006968206802F01AFC4021206802F00DFC90
:102C000009E000BF00BF00BF2968206802F005FC92
:102C100001E0012700BF00BF012084F83D0000BF94
:102C2000002084F83C0000BF384684E7704770B548
:102C300004462068C5682068066906F0020002287C
:102C400019D105F00200022815D1401F2168086142
:102C5000012020772068806900F0030018B1204629
:102C6000FFF7E4FF05E0204600F097F8204600F06B
:102C700095F80020207706F00400042819D105F00B
:102C80000400042815D1C043216808610220207780
:102C90002068806900F4407018B12046FFF7C6FF35
:102CA00005E0204600F079F8204600F077F8002093
:102CB000207706F00800082819D105F00800082838
:102CC00015D1C04321680861042020772068C069BD
:102CD00000F0030018B12046FFF7A8FF05E02046EA
:102CE00000F05BF8204600F059F80020207706F04D
:102CF0001000102819D105F01000102815D1C0437C
:102D000021680861082020772068C06900F44070BD
:102D100018B12046FFF78AFF05E0204600F03DF895
:102D2000204600F03BF80020207706F0010048B173
:102D300005F0010030B16FF0010021680861204604
:102D400000F02EF806F08000802809D105F0800000
:102D5000802805D1C043216808612046FFF7D2FDD5
:102D600006F04000402809D105F04000402805D178
:102D7000C04321680861204600F024F806F02000D6
:102D8000202809D105F02000202805D1C043216862
:102D900008612046FFF7B7FD70BD7047704700001F
:102DA00010B504462068B0F1804F01D102F0EAFF6F
:102DB00003492068884201D102F084FF10BD000061
:102DC000000400407047F8B504460D46164694F8D6
:102DD000420020282DD105B10EB90120F8BD0120F7
:102DE00020630020606332462946204602F06CFDD5
:102DF0000746206B012819D100BF002000902068F1
:102E00000068009020684068009000BF00BF00BFCD
:102E100000BF21680C3151E8001F41F0100021680B
:102E20000C3141E80002002AF3D100E001273846C6
:102E3000D4E70220D2E7000070B505460C464FF4F7
:102E400080710E48FEF736FB0D480068854200D0C1
:102E500070BDB4F5807F01D94FF4807409480078C3
:102E600018B1204601F0C2FD05E02146064801F0F8
:102E7000AFFD01F033FE00BFEAE7000000080140AB
:102E8000880100208E0100204819002010B504465A
:102E900005480068844200D010BD00200349088026
:102EA00001F01CFE00BFF7E7880100209001002020
:102EB0002DE9F84F0446206805682068C668206838
:102EC00047694FF00009CA4605F00F09B9F1000F34
:102ED0000AD105F0200038B106F0200020B12046CC
:102EE00002F0F5FBBDE8F88FB9F1000F7BD007F0D9
:102EF000010018B906F49070002874D005F00100A4
:102F000030B106F4807018B1606C40F0010060646C
:102F100005F0040030B107F0010018B1606C40F01A
:102F20000200606405F0020030B107F0010018B142
:102F3000606C40F00400606405F0080048B106F0E1
:102F4000200010B907F0010018B1606C40F00800D3
:102F50006064606C002845D005F0200028B106F0C0
:102F6000200010B1204602F0B2FB20684069C0F397
:102F7000801A606C00F0080010B9BAF1000F2CD074
:102F8000204602F04BFB2068406900F0400000B38F
:102F900000BF00BF2168143151E8001F21F040003C
:102FA0002168143141E80002002AF3D100BFE06B30
:102FB00050B17748E16B4863E06BFDF723FF88B1C0
:102FC000E06B416B88470DE02046FFF75FFF09E0AB
:102FD00009E02046FFF75AFF04E02046FFF756FFBE
:102FE000002060647EE7206B012877D105F0100097
:102FF000002873D006F010000028FAD000BF00208F
:10300000009020680068009020684068009000BF31
:1030100000BF2068406900F0400000285FD0E06BEE
:10302000006840681FFA80F8B8F1000F55D0A08DF5
:10303000404552DDA4F82E80E06B8069202843D003
:1030400000BF00BF21680C3151E8001F21F48070DF
:1030500021680C3141E80002002AF3D100BF00BF13
:1030600000BF2168143151E8001F21F001002168E0
:10307000143141E80002002AF3D100BF00BF00BFB5
:103080002168143151E8001F21F0400021681431FB
:1030900041E80002002AF3D100BF202084F842005A
:1030A0000020206300BF00BF21680C3151E8001FE1
:1030B00021F0100021680C3141E80002002AF3D110
:1030C00000BFE06BFDF773FE02206063A08DE28D10
:1030D000801A81B22046FFF7AFFE03E742E0A08DE1
:1030E000E18D401A1FFA80F8E08DD0B3B8F1000FDF
:1030F00037D000BF00BF21680C3151E8001F21F418
:10310000907021680C3141E80002002AF3D100BF21
:1031100000BF00BF2168143151E8001F21F00100F9
:103120002168143141E80002002AF3D100BF2020B9
:1031300084F842000020206300BF00BF21680C31EA
:1031400051E8001F21F0100021680C3141E8000215
:10315000002AF3D100BF0220606341462046FFF7FA
:103160006BFEBFE605F0800030B106F0800018B1BC
:10317000204602F00DFCB5E605F0400030B106F047
:10318000400018B1204602F07FFAABE600BFA9E686
:103190007B54000810B504460CB9012010BDA0698D
:1031A00000B100E000BF94F8410028B9002084F885
:1031B0004000204600F02AF8242084F841002068CE
:1031C000C06820F400502168C860204602F0FEFA72
:1031D0002068006920F490402168086120684069F7
:1031E00020F02A00216848612068C06840F400503F
:1031F0002168C86000206064202084F8410084F8C1
:1032000042000020606300BFC8E7000010B586B030
:1032100004460020029003900490059063492068C2
:1032200088426AD100BF6248806940F480406049AA
:1032300088610846806900F48040019000BF00BFAB
:1032400000BF0846806940F0040088610846806934
:1032500000F00400019000BF00BF4815029002205A
:1032600003900320059002A95248FDF78BFF4FF40D
:103270008060029000200390049002A94D48FDF761
:1032800081FF4D484D4908601020486000214B489F
:1032900081608021C1600021016141618161C16162
:1032A000FDF7DAFE08B1FDF77FFD00BF4348A063DC
:1032B000446200BF40481430414908600020486023
:1032C00000213F4881608021C1600021016141618E
:1032D0008161C161FDF7C0FE08B1FDF765FD00BF6A
:1032E0003748E063446200BF002211462520FEF704
:1032F00047FF2520FEF734FF55E032492068884219
:1033000051D100BF2A48C06940F400302849C86143
:103310000846C06900F40030019000BF00BF00BF44
:103320000846806940F0040088610846806900F022
:103330000400019000BF00BF04200290022003900F
:103340000320059002A91B48FDF71CFF08200290EE
:1033500000200390049002A91648FDF713FF1648B9
:103360002830194908600020486000211648816013
:103370008021C16000210161416120218161090238
:10338000C161FDF769FE08B1FDF70EFD00BF0E48F3
:10339000E063446200BF002211462620FEF7F0FEE3
:1033A0002620FEF7DDFE06B010BD0000003801400B
:1033B000001002400008014044000240AC0400201C
:1033C000F00400200044004034050020704770479E
:1033D000F7B50446154694F84100202836D10198E7
:1033E00000B10DB90120FEBD01982062A584E584DD
:1033F00000206064212084F841001548A16B886298
:103400001448A16BC8621448A16B08630020A16B2B
:10341000486301AE23681A1D31682B46A06BFDF787
:103420004FFE6FF040002168086000BF00BF2168B8
:10343000143151E8001F41F080002168143141E847
:103440000002002AF3D100BF0020CCE70220CAE727
:10345000B75500080F5600088F5400087047704792
:1034600000BFFEE710B50248FEF73CF810BD0000B3
:103470009C01002010B50248FEF7A4F810BD000022
:103480009C010020C16AB1F52A0F02D10121C1625D
:1034900005E0C16AB1F12A4F01D10821C16270472C
:1034A000F8B50546002000906C6A94F83D603948F4
:1034B00000681921B0FBF1F04FF47A71B0FBF1F024
:1034C000C0EBC00000EB8000009000BF009820B966
:1034D000206C40F02000206409E00098401E00901D
:1034E0002068006800F40070B0F5007FEED000BFE7
:1034F000606B10B10020616B8862A06B10B100207E
:10350000A16B88622068006820F4806021680860F0
:1035100000206085606B10B10020616B4863A06B78
:1035200010B10020A16B48632068006820F0010002
:103530002168086094F83D0060280AD1202084F8B2
:103540003D00002084F83E0020642046FDF7C8FFBF
:103550001EE006F02800282811D12068006840F0FD
:103560000100216808602068006840F480602168DC
:10357000086000202063282084F83D0005E020201A
:1035800084F83D00002084F83E002046FEF708F94C
:10359000F8BD00000C00002001684969C1F3C011AA
:1035A00011B1002102681161704700002DE9F0415E
:1035B000044694F83D6094F83E70102F01D0402FDF
:1035C00007D1222E05D12068006820F40060216810
:1035D000086006F02800282805D100202063282054
:1035E00084F83D0010E02068406800F40060B0F509
:1035F000006F07D0602E05D0202084F83D00002009
:1036000084F83E00002020632068406800F40060D9
:10361000B0F5006F40D12068406820F40060216858
:103620004860606B90F82100012814D04848616B15
:103630004863606BFDF7E6FB00285BD020680068FC
:1036400020F0010021680860202084F83D00606BB4
:10365000416B88474EE03E48A16B4863A06BFDF785
:10366000D1FB002846D020684069C0F3801030B1FB
:1036700020680069616A0870606A401C60622068A6
:10368000006820F0010021680860202084F83D00D7
:10369000A06B416B88472DE094F83D0060281AD15B
:1036A000202084F83D000020206420684069C0F399
:1036B000801030B120680069616A0870606A401C3F
:1036C00060622068006820F00100216808602046E0
:1036D000FDF706FF0EE020684069C0F3801030B1AE
:1036E00020680069616A0870606A401C6062204658
:1036F000FEF756F8256C05F0010058B905F00200F8
:10370000022807D005F00400042803D005F00800C3
:10371000082805D12068406820F4E06021684860EE
:1037200094F83D60206C00F0040004280ED1282E8F
:103730000CD10848E06200202063202084F83D007E
:10374000002084F83E002046FEF71EF9BDE8F08117
:10375000A13400080000FFFF014608684069C0F37B
:103760008020B0B16FF480600A6850610020086367
:10377000202081F83D00002081F83E00086C40F0D8
:103780000400086400BF002081F83C0000BF012055
:1037900070470020FCE770B50446E56A608D042898
:1037A00010D12068406820F480602168486020685B
:1037B0000069616A0870606A401C6062608D401E2A
:1037C00060857FE0608D03281AD12068406820F46E
:1037D000806021684860042D07D0022D05D0206844
:1037E000006820F480602168086020680069616AD0
:1037F0000870606A401C6062608D401E608561E0F8
:10380000608D022854D1012D01D0102D06D12068E1
:10381000006820F480602168086010E0042D01D069
:10382000022D06D12068006840F48060216808609D
:1038300005E02068006840F4007021680860206896
:103840000069616A0870606A401C6062608D401E99
:10385000608520680069616A0870606A401C606267
:10386000608D401E60852068406820F440702168AB
:103870004860202084F83D0094F83E00402807D19D
:10388000002084F83E0020632046FEF780F819E00F
:10389000002084F83E00082D01D0202D02D1002008
:1038A000206301E0122020632046FEF76EF809E055
:1038B00020680069616A0870606A401C6062608DFF
:1038C000401E608570BD70B5044694F83D00222806
:1038D0007AD1E66A658D032D13D920680069616A83
:1038E0000870606A401C6062608D401E6085608D5B
:1038F000032868D12068406820F48060216848600F
:1039000061E0E06A022858D0012D01D0002D54D189
:10391000204600F043FFA0BB2068006820F48060D0
:10392000216808602068406820F4E06021684860F1
:1039300020680069616A0870606A401C6062608D7E
:10394000401E6085202084F83D0094F83E00402809
:1039500007D1002084F83E0020632046FEF717F8C8
:1039600031E0002084F83E00082E01D0202E02D144
:103970000020206301E0122020632046FEF705F8B6
:1039800021E0FFE72068406820F4E060216848609B
:1039900020680069616A0870606A401C6062608D1E
:1039A000401E6085202084F83D00002084F83E0001
:1039B0002046FDF7F5FE06E006E02068406820F4AA
:1039C00080602168486000BF70BD70B50446E56A3C
:1039D00094F83D00212847D1608D50B1606A00788D
:1039E00021680861606A401C6062608D401E6085CD
:1039F0003AE0082D16D0202D14D015F5803F11D0B7
:103A00002068406820F4E06021684860112020634D
:103A1000002084F83E00202084F83D002046FDF779
:103A2000B5FF21E02068406820F4E060216848602C
:103A30002068006840F4007021680860002020635E
:103A4000202084F83D0094F83E00402806D1002054
:103A500084F83E002046FDF79BFF05E0002084F837
:103A60003E002046FDF792FF70BD2DE9F04104466F
:103A700094F83D5094F83E70E66A208DB0BB212D3D
:103A80003CD1082E16D0202E14D016F5803F11D030
:103A90002068406820F4E0602168486011202063BD
:103AA000002084F83E00202084F83D002046FDF7E9
:103AB0006DFF44E02068406820F4E06021684860C1
:103AC0002068006840F400702168086000202063CE
:103AD000202084F83D0094F83E00402807D10020C3
:103AE00084F83E002046FDF753FF28E006E0002062
:103AF00084F83E002046FDF749FF20E0212D03D049
:103B0000402F1CD1222D1AD1608D30B92068406819
:103B100020F480602168486011E094F83E0040285D
:103B200003D1204600F0B1F909E0606A007821680D
:103B30000861606A401C6062608D401E6085BDE85F
:103B4000F081416CC9B202681161416B11B1416BE6
:103B5000896A21B9816B41B1816B896A29B1016898
:103B6000496841F4006102685160704738B590F8C7
:103B70003E20C16A036B90F83D40222C73D1046D46
:103B800064B9402A0AD100BF002400940468646923
:103B900000940468A469009400BF26E1046DC4B9D0
:103BA0000469B4F5404F14D100BF002400940468A8
:103BB000646900940468A469009400BF00BF0468AD
:103BC000246844F4807405682C60046D641C0465EA
:103BD0000BE1448D8CB900BF002400940468646933
:103BE00000940468A469009400BF00BF04682468BE
:103BF00044F4007405682C60E9E0448D012C72D116
:103C000011F5803F30D10468246824F4806405688D
:103C10002C600468646804F40064B4F5006F10D18B
:103C20000468246824F4806405682C6000BF0024C4
:103C300000940468646900940468A469009400BF57
:103C4000C5E000BF0024009404686469009404681F
:103C5000A469009400BF00BF0468246844F40074A1
:103C600005682C60B3E0B5E0082923D0202921D0D5
:103C7000122B01D101291DD104290AD0022908D013
:103C8000102906D00468246824F4806405682C6038
:103C900005E00468246844F4806405682C6000BF73
:103CA000002400940468646900940468A469009482
:103CB00000BF8CE00468246824F4806405682C60EC
:103CC00000BF002400940468646900940468A46937
:103CD000009400BF00BF0468246844F400740568C1
:103CE0002C6074E0FFE7448D022C47D104291BD0DF
:103CF000022919D0102917D00468246844F40064FC
:103D000005682C6000BF0024009404686469009476
:103D10000468A469009400BF00BF0468246824F408
:103D2000806405682C6010E00468246844F48064B2
:103D300005682C6000BF0024009404686469009446
:103D40000468A469009400BF00BF0468646804F4B8
:103D50000064B4F5006F3AD111F5803F07D0012916
:103D600005D0082903D0102901D020292FD10468BB
:103D7000646844F4805405686C6028E00468246832
:103D800044F4806405682C600468646804F400648A
:103D9000B4F5006F10D111F5803F07D0012905D08F
:103DA000082903D0102901D0202905D104686468AE
:103DB00044F4805405686C6000BF002400940468DB
:103DC000646900940468A469009400BF00BF0024E3
:103DD00004650AE000BF002400940468646900944C
:103DE0000468A469009400BF00BF38BD90F83E107D
:103DF00040290ED1016D29B9416C01F0FE01026824
:103E0000116141E0416CC9B241F0010102681161E8
:103E10003AE00169B1F5804F20D190F83D10212999
:103E200005D1416C01F0FE010268116105E0416CB1
:103E3000C9B241F0010102681161416B11B1416BDE
:103E4000896A21B9816BF9B1816B896AE1B1016835
:103E5000496841F400610268516015E0016D41B9A3
:103E6000416C01F44071F02242EAE11102681161F3
:103E70000AE0016D012907D1416C01F44071F12282
:103E800042EAE11102681161704770B5044694F886
:103E90003D50206D98B9E06C012807D1A06CC0B2EC
:103EA00021680861206D801C206550E0A06CC0F383
:103EB000072021680861206D401C206547E0206DC7
:103EC000012807D1A06CC0B221680861206D401C98
:103ED00020653CE0206D022836D1222D09D12068D2
:103EE000006840F4807021680860206D401C2065E7
:103EF0002DE0608D60B1212D0AD1606A00782168C3
:103F00000861606A401C6062608D401E60851EE032
:103F1000608DE0B9212D1AD12068406820F4E0605E
:103F2000216848602068006840F4007021680860DB
:103F300000202063202084F83D00002084F83E000B
:103F40002046FDF725FD02E02046FFF725FB70BD6A
:103F50002DE9F84304460F4615469946DDE90886E3
:103F60002068006840F4806021680860206800686C
:103F700040F4807021680860434600224FF0011130
:103F80002046009600F0E9FA60B12068006800F46D
:103F90008070B0F5807F02D14FF400702064032060
:103FA000BDE8F88307F0FE00216808613346424609
:103FB0003E49204600F030FB08B10120F0E700BF89
:103FC000002000902068406900902068806900907F
:103FD00000BF00BF32464146204600F007FC50B10A
:103FE000206C042805D12068006840F40070216826
:103FF00008600120D4E7B9F1010F03D1E8B22168CC
:10400000086117E0C5F30720216808613246414680
:10401000204600F0EBFB50B1206C042805D120684D
:10402000006840F40070216808600120B8E7E8B239
:104030002168086132464146204600F0D7FB50B166
:10404000206C042805D12068006840F400702168C5
:1040500008600120A4E72068006840F480702168AF
:104060000860434600224FF001112046009600F000
:1040700074FA58B12068006800F48070B0F5807F51
:1040800002D14FF400702064032089E7F8B240F0B9
:10409000010021680861334642460449204600F089
:1040A000BBFA08B101207BE7002079E7020001009C
:1040B0002DE9F8430446884615469946DDE9086728
:1040C0002068006840F48070216808603346002250
:1040D0004FF001112046009700F03FFA60B12068D0
:1040E000006800F48070B0F5807F02D14FF400705A
:1040F00020640320BDE8F88308F0FE002168086111
:104100003B4632462149204600F086FA08B101209C
:10411000F0E700BF00200090206840690090206810
:104120008069009000BF00BF3A463146204600F04B
:104130005DFB50B1206C042805D12068006840F474
:104140000070216808600120D4E7B9F1010F03D1A4
:10415000E8B22168086117E0C5F30720216808610B
:104160003A463146204600F041FB50B1206C04280D
:1041700005D12068006840F40070216808600120C3
:10418000B8E7E8B2216808610020B3E70200010047
:10419000418D49B101680969426A1170416A491C3F
:1041A0004162418D491E4185704770B5044694F8BF
:1041B0003D50608DD8B120680069616A0870606AFE
:1041C000401C6062608D401E6085608D78B92A2D2C
:1041D0000DD12068406820F480602168486022206A
:1041E0002063282084F83D002046FDF747FF70BD7E
:1041F000418D49B1416A097802681161416A491CDF
:104200004162418D491E4185704770B5044694F85E
:104210003D50608DD8B1606A007821680861606A9D
:10422000401C6062608D401E6085608D78B9292DCC
:104230000DD12068406820F480602168486021200A
:104240002063282084F83D002046FDF718FF70BD4C
:10425000F8B504460D46002794F83D0000F028000C
:1042600028281CD12068406820F4806021684860BC
:10427000C5F3800000B90127C5F3C01010B9A089AB
:1042800086B201E0208B86B200BF002084F83C009B
:1042900000BF324639462046FDF723F90FE000BF44
:1042A000002000902068406900902068806900909C
:1042B00000BF00BF00BF002084F83C0000BFF8BD75
:1042C00070B5044694F83D50E66A082E01D0202EC1
:1042D0001FD1282D1DD12348E0622068406820F4BA
:1042E000E060216848606FF4806021684861206860
:1042F000006820F48060216808600020206320208E
:1043000084F83D00002084F83E002046FDF73CFB89
:1043100026E0212D20D11348E062212020632020B7
:1043200084F83D00002084F83E002068406820F4B6
:10433000E060216848606FF480602168486120680F
:10434000006820F48060216808602046FFF724F9A7
:104350002046FDF794FE03E06FF480602168486119
:1043600070BD00000000FFFF38B5044694F83D50D2
:104370002068406820F4E0602168486000BF0020A9
:1043800000902068406900902068006840F00100BB
:104390002168086000BF00BF2068006820F48060CA
:1043A000216808602068406800F40060B0F5006F84
:1043B00042D1222D01D02A2D1FD1A06B0068406868
:1043C0006085608D18B1206C40F004002064206886
:1043D000406820F4006021684860A06BFCF76AFD2B
:1043E000012829D04148A16B4863A06BFCF70AFD66
:1043F00010B3A06B416B88471EE0606B006840689B
:104400006085608D18B1206C40F004002064206845
:10441000406820F4006021684860606BFCF74AFD4A
:10442000012809D03148616B4863606BFCF7EAFCF6
:1044300010B1606B416B8847608D18B3206840698C
:10444000C0F3800048B120680069616A0870606A42
:10445000401C6062608D401E608520684069C0F32A
:10446000801048B120680069616A0870606A401C69
:104470006062608D401E6085608D18B1206C40F0D8
:1044800004002064206C18B12046FFF78FF82BE061
:104490002A2D07D100202063282084F83D002046E3
:1044A000FDF7ECFD94F83D0028280DD11048E0629E
:1044B00000202063202084F83D00002084F83E0086
:1044C0002046FDF761FA0FE0206B222801D0222D53
:1044D0000AD100202063202084F83D00002084F8C9
:1044E0003E002046FDF7CAFD38BD0000A13400089B
:1044F0000000FFFF70B504460D46164625E0204635
:10450000FFF72AF908B1012070BD681CE8B1FCF77B
:10451000E1FF801BA84200D8BDB920684069C0F304
:10452000800090B900202063202084F83D00002006
:1045300084F83E00206C40F02000206400BF002082
:1045400084F83C0000BF0120DEE720684069C0F32A
:1045500080000028D3D00020D6E72DE9F0410446A2
:104560000D4617461E46DDF8188038E0701CA8B3CB
:10457000FCF7B0FFA0EB0800B04200D876BBC5F353
:10458000074001280AD120684069A9B20840A9B2B1
:10459000884201D101200BE0002009E020688069F9
:1045A000A9B20840A9B2884201D1012000E0002050
:1045B000B84214D100202063202084F83D00002060
:1045C00084F83E00206C40F02000206400BF0020F2
:1045D00084F83C0000BF0120BDE8F081FFE7C5F38F
:1045E000074001280AD120684069A9B20840A9B251
:1045F000884201D101200BE0002009E02068806999
:10460000A9B20840A9B2884201D1012000E00020EF
:10461000B842ABD00020DFE72DE9F04104460D465B
:1046200016461F4658E020684069C0F38020E8B174
:104630002068006840F40070216808606FF48060B2
:104640002168486100202063202084F83D0000207C
:1046500084F83E00206C40F00400206400BF00207D
:1046600084F83C0000BF0120BDE8F081701C90B3CD
:10467000FCF730FFC01BB04200D866BBC5F3074053
:1046800001280AD120684069A9B20840A9B288422D
:1046900001D101200BE0002009E020688069A9B267
:1046A0000840A9B2884201D1012000E0002090B961
:1046B00000202063202084F83D00002084F83E0084
:1046C000206C40F02000206400BF002084F83C00F3
:1046D00000BF0120C8E7FFE7C5F3074001280AD162
:1046E00020684069A9B20840A9B2884201D10120DE
:1046F0000BE0002009E020688069A9B20840A9B257
:10470000884201D1012000E0002000288BD0002049
:10471000AAE770B504460D46164637E020684069A2
:10472000C0F30010A0B16FF01000216848610020B4
:104730002063202084F83D00002084F83E00206C97
:10474000206400BF002084F83C0000BF012070BD41
:10475000FCF7C0FE801BA84200D8BDB920684069A4
:10476000C0F3801090B900202063202084F83D0021
:10477000002084F83E00206C40F02000206400BF40
:10478000002084F83C0000BF0120E0E72068406979
:10479000C0F380100028C1D00020D8E708B501463A
:1047A00000200090104800681922B0FBF2F04FF48E
:1047B0007A72B0FBF2F000EB8000009000BF00982E
:1047C000401E0090009828B9086C40F02000086452
:1047D000012008BD0868006800F40070B0F5007F93
:1047E000EDD00020F5E700000C00002070B5044675
:1047F0000D46164625E02046FEF7AEFF08B1012023
:1048000070BD681CE8B1FCF765FE801BA84200D8AB
:10481000BDB920684069C0F3C01090B90020206382
:10482000202084F83D00002084F83E00206C40F0F9
:104830002000206400BF002084F83C0000BF01205D
:10484000DEE720684069C0F3C0100028D3D0002004
:10485000D6E700002DE9F84F80464FF0000A002708
:10486000002411E0C4EB04100A301FFA80F911494A
:1048700001EB090000F00AF905462EB216B1B24468
:10488000781CC7B2601C84B20C2CEBD317B9002083
:10489000BDE8F88F3846FBF7E2FE83465046FBF74B
:1048A000D5FE59460090FBF70BFDC8F8000001202B
:1048B000EEE70000481A00200022042105E0084825
:1048C000405C1044C2B2481C81B2C229F7D30448EC
:1048D00090F8C200904201D1012070470020FCE70F
:1048E000481A002010B51A480088052804D3194832
:1048F000007908B1002010BD15480088062805D3AE
:1049000014484079022801D00020F4E710480088BC
:10491000072804D30F48807908B10020EBE70C4842
:104920000088082804D30B48C07908B10020E2E7CA
:10493000074800880A2808D10648083000F0A6F881
:104940000446B82C01D00020D5E70120D3E70000B1
:1049500090010020481A002010B504461A4800882B
:1049600004280FD2AA2C09D11848174909884454A1
:1049700015480088401C1449088002E000201249B4
:10498000088010BD11481049098844540E48008819
:10499000401C0D490880084600880A2805D8FFF702
:1049A000A1FF10B900F078F8EBE707480088C328AA
:1049B00008D100F04BF818B100200349088001E04D
:1049C00000F06AF800BFDCE790010020481A0020E0
:1049D00070B505460E46002404E0285DFFF7BCFFD5
:1049E000601C84B2B442F8DB70BD000070B50446B0
:1049F0002546B5F5807F00D1002512480088844205
:104A00000ADD104A1288A21A91B20F4A0D4B1B8878
:104A1000D018FFF7DDFF12E00A48008884420EDA62
:104A2000084A1288C2F5807291B2074A054B1B886A
:104A3000D018FFF7CDFF21460348FFF7C9FF014813
:104A4000058070BD8C0100204819002008B5FFF7D3
:104A500033FF08B9002008BD6846FFF7FBFE08B920
:104A60000020F8E707490098086000BF00BF00BFBA
:104A7000BFF35F8F00BF00BF00BF01200249087075
:104A800000BFE8E794010020980100200146087863
:104A90004A7840EA02207047002001E0411C88B2B9
:104AA00004280BD20B490988884207DA094909888A
:104AB000091A491E084A515CAA29EFD00549088005
:104AC00004E0411E88B2AA21034A11540028F8D1FB
:104AD0007047000090010020481A002010B51148CE
:104AE000006818B10F480068C06B08B9012010BDFC
:104AF0004FF480720C490B480068FEF764F90446D5
:104B000074B900200949088006480068C06B006835
:104B1000006820F0040003490968C96B096808604F
:104B20002046E4E788010020481900208C0100207D
:104B3000014609B90020704700BFEFF3108002461C
:104B400072B60948037813B108480068086000BFCE
:104B500000BF00BFBFF35F8F00BF00BF00BF02B93F
:104B600062B61846E7E70000980100209401002093
:104B700070B5044634B3E06B20B36068B0F5613FB4
:104B800020D1A068F0B92069E0B9E068D0B9207DF3
:104B900000F00400B0B1E06B406898B9E06B806849
:104BA00080B9E06BC06880280CD1E06B006948B91F
:104BB000E06B406930B9E06B806928B1E06B8069D7
:104BC000202801D0012070BD94F84200202801D097
:104BD0000220F8E700BFEFF31080054672B61348D5
:104BE0000460E06B8069202801D1012000E00020F2
:104BF0000F49087000200F4908800F4908800F49AD
:104C000008600F49087000BF00BF00BFBFF35F8F8F
:104C100000BF00BF00BF05B962B6FFF75FFF0646E1
:104C200016B10020014908603046CCE78801002019
:104C30008E0100208C0100209001002094010020B2
:104C4000980100202DE9F34F87B08A4600200446E2
:104C5000054600210E460F4688468946BAF1000FE8
:104C600003D1012009B0BDE8F08F4FF4FA70FCF7D2
:104C700075FA4FF0000B35E06420062104AA0123E9
:104C8000CDE9002102904322D0210798FCF78CFE49
:104C900008B10220E6E79DF811009DF8101040EAE7
:104CA000012000B2041945EBE0759DF813009DF852
:104CB000121040EA012000B2861947EBE0779DF818
:104CC00015009DF8141040EA012000B210EB08080E
:104CD00049EBE0794FF00A00FCF740FA0BF10100D4
:104CE0001FFA80FBD345C7DB5046FBF7BDFCCDE97F
:104CF000020120462946FBF7C4FCCDE90001DDE9AD
:104D00000223FBF734FC264A03C25046FBF7ACFCF7
:104D1000CDE9020130463946FBF7B3FCCDE900018D
:104D2000DDE90223FBF723FC1E4A03C25046FBF7D2
:104D30009BFCCDE9020140464946FBF7A2FCCDE9C8
:104D40000001DDE90223FBF712FC174A03C2002130
:104D5000164A9161D161116251629162D162002261
:104D600012490A634A638A63CA630846026442645A
:104D700000210F4A9161D16100201062506291625E
:104D8000D16211635163002209498A63CA630846EC
:104D90000264426400200749087000BF62E7000017
:104DA000D8000020E0000020E8000020F8000020EB
:104DB00040010020F000002010B586B004466420B9
:104DC000012105AA0B46CDE9002102907522D021D0
:104DD0002046FCF7E9FD9DF81400702859D1012008
:104DE00004906420012104AA0B46CDE90021029021
:104DF0006B22D0212046FCF791FF6420FCF7AEF92E
:104E0000022004906420012104AA0B46CDE9002170
:104E100002901A22D0212046FCF780FF0220049045
:104E20006420012104AA0B46CDE900210290192239
:104E3000D0212046FCF772FF00200490642001215D
:104E400004AA0B46CDE9002102901C22D021204665
:104E5000FCF764FF022004906420012104AA0B46A1
:104E6000CDE9002102901D22D0212046FCF756FFFB
:104E7000002004906420012104AA0B46CDE9002102
:104E800002901B22D0212046FCF748FF002006B0EC
:104E900010BD0120FBE7000008B500BF12484069C3
:104EA00040F00100104948610846406900F00100E7
:104EB000009000BF00BF002211460E20FDF760F9F0
:104EC0000E20FDF74DF9002211460F20FDF758F98D
:104ED0000F20FDF745F9002211461020FDF750F98B
:104EE0001020FDF73DF908BD0010024000B585B067
:104EF0000020019002900390049000BF2B4880692D
:104F000040F02000294988610846806900F02000AF
:104F1000009000BF00BF00BF0846806940F0040059
:104F200088610846806900F00400009000BF00BF5F
:104F300000BF0846806940F0080088610846806923
:104F400000F00800009000BF00BF0022891418483C
:104F5000FCF7BAFA00224FF410611648FCF7B4FAD5
:104F60004FF48050019001200290039002200490A1
:104F700001A90F48FCF706F94FF4604001900020AA
:104F800002900120039001A90948FCF7FBF84FF4B7
:104F9000106001900120029003900220049001A96A
:104FA0000448FCF7EFF805B000BD00000010024017
:104FB000000C01400008014010B50B480B49086087
:104FC0000B484860002109488160C1604FF480416E
:104FD0000161002141618161C1610162FCF7ECFB6B
:104FE00008B1FBF7E1FE10BD005400409C01002019
:104FF000801A060010B50B480B4908600B48486042
:10500000002109488160C1604FF4804101610021A5
:1050100041618161C1610162FCF7CEFB08B1FBF720
:10502000C3FE10BD00580040F0010020801A0600A9
:1050300000B587B000200390049005900690019081
:10504000029015481549086040F65F10486000213D
:10505000124881606321C160002101614161816169
:10506000FDF794FC08B1FBF79FFE4FF480500390CE
:1050700003A90A48FDF754FD08B1FBF795FE00208F
:105080000190029001A90548FDF73EFC08B1FBF72D
:105090008BFE07B000BD0000002C01404402002040
:1050A00000B587B000200390049005900690019011
:1050B00002904FF080401449086041F61F4048605C
:1050C0000021114881606321C1600021016181617B
:1050D000FDF75CFC08B1FBF767FE4FF480500390CE
:1050E00003A90948FDF71CFD08B1FBF75DFE002090
:1050F0000190029001A90448FDF706FC08B1FBF7F6
:1051000053FE07B000BD00008C02002000B587B040
:10511000002003900490059006900190029015489D
:105120001549086041F61F4048600021124881601F
:1051300040F2E731C160002101618161FDF726FC89
:1051400008B1FBF731FE4FF48050039003A90A48E1
:10515000FDF7E6FC08B1FBF727FE00200190029066
:1051600001A90548FDF7D0FB08B1FBF71DFE07B00C
:1051700000BD000000040040D402002010B50B4820
:105180000B4908604FF4E130486000210848816015
:10519000C16001610C21416100218161C161FDF7A4
:1051A000F9FF08B1FBF700FE10BD00000038014018
:1051B0001C04002010B50B480B4908604FF4613007
:1051C0004860002108488160C16001610C21416193
:1051D00000218161C161FDF7DDFF08B1FBF7E4FD4E
:1051E00010BD0000004400406404002000BFFEE742
:1051F00000BFFEE72DE9F05F04460D4616461F4648
:1052000031462846FBF724F8E0603946E068FBF7B2
:1052100025F880466169FAF7C9FF6061D4E90501A4
:10522000FBF792FA01D2A0696061A06980F00048A2
:1052300040466169FBF788FA03D2A06980F000401C
:105240006061D4E90301FBF703F880463946FBF7B8
:1052500037F8E061E0682061A168E069FAF7FEFFD5
:10526000814661686069FAF7F9FF82462168E06863
:10527000FAF7F4FF83465146FAF798FF804649460D
:10528000FAF794FF2062D4E90801FBF75DFA01D236
:10529000606A2062606A80F000484046216AFBF73D
:1052A00053FA03D2606A80F000402062206ABDE8B1
:1052B000F09F704708B508490968C9084FF47A7229
:1052C000B1FBF2F14143009100BF00BF00994A1EBB
:1052D00000920029F9D108BD0C000020704710B5DC
:1052E000FCF7CEFE10BD00B58FB0282105A8FAF757
:1052F00052FF14216846FAF74EFF01200590000482
:105300000690002007900120099002200C90C10314
:105310000D914FF4E0110E9105A8FDF7A7F808B123
:10532000FBF742FD0F200090022001900020029028
:105330004FF4806003900020049002216846FCF73F
:1053400071FF08B1FBF730FD0FB000BD70470000E2
:1053500010B50248FDF76BFC10BD000044020020B0
:1053600010B50248FDF763FC10BD00008C02002060
:1053700010B50248FDF75BFC10BD0000D402002010
:1053800010B502681C4B984208D0B0F1804F05D090
:105390001A4B984202D01A4B984203D122F0700265
:1053A0004B681A43144B984208D0B0F1804F05D097
:1053B000124B984202D0124B984203D122F4407211
:1053C000CB681A4322F080034C6943EA040202606E
:1053D0008B68C3620B688362074B984201D10B69EB
:1053E000036301234361036903F001031BB10369F4
:1053F00023F00103036110BD002C014000040040B4
:105400000008004030B50C46816821F47F4142EA33
:10541000032525432943816030BD0A46816821F078
:10542000700142F0070319438160704730B50B46A5
:105430001446026A056A25F001050562816921F0BA
:10544000F00141EA041122F00A021A43816102626A
:1054500030BD30B50B461446026A056A25F01005CA
:105460000562816921F4704141EA043122F0A00211
:1054700042EA03128161026230BD70B505466C6A72
:105480000020E085E0842046FDF700FD70BD70B58A
:1054900006460025746A20684069C0F3C01594F878
:1054A0004100212805D125B10020E084204600F0EC
:1054B000FBF820684069C0F3801594F84200222868
:1054C00005D125B10020E085204600F0A7F8606CEA
:1054D00040F0100060642046FDF7D8FC70BD70B548
:1054E00005466C6A2868006800F02000002842D158
:1054F000E08500BF00BF21680C3151E8001F21F496
:10550000807021680C3141E80002002AF3D100BF0D
:1055100000BF00BF2168143151E8001F21F00100D5
:105520002168143141E80002002AF3D100BF00BF16
:1055300000BF2168143151E8001F21F040002168AC
:10554000143141E80002002AF3D100BF202084F882
:105550004200206B01280ED100BF00BF21680C3132
:1055600051E8001F21F0100021680C3141E80002D1
:10557000002AF3D100BF00206063206B012804D112
:10558000A18D2046FDF758FC02E02046FDF71EFFE6
:1055900070BD70B505466C6A01206063206B012800
:1055A00005D1A08D41082046FDF746FC02E02046CB
:1055B000FDF70DFF70BD70B505466C6A2868006880
:1055C00000F02000F8B90020E08400BF00BF21688F
:1055D000143151E8001F21F080002168143141E8A6
:1055E0000002002AF3D100BF00BF00BF21680C31C8
:1055F00051E8001F41F0400021680C3141E80002F1
:10560000002AF3D102E02046FDF728FF70BD70B5F7
:105610000446656A2846FDF722FF70BD00BF00BF43
:1056200002680C3252E8002F22F4907102680C32AA
:1056300042E80013002BF3D100BF00BF00BF026897
:10564000143252E8002F22F001010268143242E8BD
:105650000013002BF3D100BF016B01290ED100BF55
:1056600000BF02680C3252E8002F22F010010268DD
:105670000C3242E80013002BF3D100BF202180F848
:10568000421000210163704710B504462068C068CD
:1056900020F040002168C860202084F841002046A6
:1056A000FDF7DCFE002010BD00BF00BF02680C3219
:1056B00052E8002F22F0C00102680C3242E80013C9
:1056C000002BF3D100BF202180F841107047F8B5BE
:1056D000044694F84200222875D1A068B0F5805F96
:1056E0000CD1206950B90025A66A20684068C0F333
:1056F00008003080A06A801CA06215E0A56A002620
:10570000A068B0F5805F03D0A06828B9206918B9F7
:1057100020684068287004E02068406800F07F003E
:105720002870A06A401CA062E08D401E80B2E08517
:10573000002846D12068C06820F020002168C86099
:105740002068C06820F480702168C86020684069C3
:1057500020F0010021684861202084F842000020E8
:105760006063206B012826D10020206300BF00BFAA
:1057700021680C3151E8001F21F0100021680C3124
:1057800041E80002002AF3D100BF2068006800F061
:10579000100010280AD100BF002000902068006887
:1057A000009020684068009000BF00BFA18D204697
:1057B000FDF742FB02E02046FDF708FE0020F8BDA1
:1057C00001E00020FBE70220F9E7000070B5044685
:1057D0002168096921F44051E2681143226811618E
:1057E0002269A1681143626941EA02052168C9681A
:1057F00041F20C62914329432268D16021684969D2
:1058000021F44071A2691143226851612D4A216837
:10581000914202D1FCF7E2FD01E0FCF7CFFD00EB85
:10582000C00101EB001162689200B1FBF2F100EBE4
:10583000C00202EB001263689B00B2FBF3F2642328
:10584000B2FBF3F202EBC20303EB0212A1EB820103
:10585000322202EB01116422B1FBF2F101F0F001FE
:1058600000EBC00202EB001263689B00B2FBF3F294
:105870006423B2FBF3F201EB021200EBC00101EB77
:10588000001163689B00B1FBF3F100EBC00303EB75
:1058900000136668B600B3FBF6F36426B3FBF6F3B9
:1058A00003EBC30606EB0313A1EB8301322303EBE7
:1058B00001116423B1FBF3F101F00F0111442268DF
:1058C000916070BD0038014077B581B0044615463F
:1058D0000298A062A58500206064222084F842001E
:1058E0002848E16B88622848E16BC8622748E16B71
:1058F00008630020E16B486302AE32682368191D1B
:105900002B46E06BFBF7DCFB00BF0020009020681B
:105910000068009020684068009000BF00BF2069C8
:1059200070B100BF00BF21680C3151E8001F41F485
:10593000807021680C3141E80002002AF3D100BFD9
:1059400000BF00BF2168143151E8001F41F0010081
:105950002168143141E80002002AF3D100BF00BFE2
:1059600000BF2168143151E8001F41F04000216858
:10597000143141E80002002AF3D100BF002004B036
:1059800070BD0000DF540008935500088F540008D4
:10599000014691F84100212828D18868B0F5805F40
:1059A0000BD1086948B90A6A1088C0F308000B686F
:1059B0005860086A801C086205E00B6A581C08627F
:1059C00018780B685860C88C401E80B2C88458B9DB
:1059D0000868C06820F080000B68D8600868C0685C
:1059E00040F040000B68D860002070470220FCE7C0
:1059F00010B50248FDF75CFA10BD00001C04002041
:105A000010B50248FDF754FA10BD000064040020F0
:105A100000BFFEE710B500F03BF800F08BF84FF444
:105A2000FA70FBF79BFBFAF7F1FF0520FBF796FBFB
:105A3000FBF72EF900F024F810BD000010B5044665
:105A4000C4B12046FFF774F880B10B492068FAF71B
:105A5000FFFB206000BF00BF00BFBFF35F8F00BF30
:105A600000BF00BF01200549087003E00020034982
:105A70000870206010BD000000003E43420000207E
:105A800010B50248FFF774F810BD00006404002050
:105A900010B50C48FFF790F980B90BA000F06CFF2F
:105AA0004FF496710748FFF7CDF818B90120104957
:105AB000087006E00FA000F05FFF02E015A000F004
:105AC0005BFF10BDF00100204B656570204D505507
:105AD000207374696C6C3A2063616C6962726174E2
